{
  "contracts/Lottery.sol": {
    "Lottery": {
      "abi": [
        {
          "inputs": [
            {
              "internalType": "address",
              "name": "_bound",
              "type": "address"
            },
            {
              "internalType": "address",
              "name": "_timer",
              "type": "address"
            },
            {
              "internalType": "uint8",
              "name": "_sizeOfLotteryNumbers",
              "type": "uint8"
            },
            {
              "internalType": "uint16",
              "name": "_maxValidNumberRange",
              "type": "uint16"
            },
            {
              "internalType": "uint8",
              "name": "_bucketOneMaxNumber",
              "type": "uint8"
            },
            {
              "internalType": "uint8",
              "name": "_bucketTwoMaxNumber",
              "type": "uint8"
            },
            {
              "internalType": "uint8",
              "name": "_discountForBucketOne",
              "type": "uint8"
            },
            {
              "internalType": "uint8",
              "name": "_discountForBucketTwo",
              "type": "uint8"
            },
            {
              "internalType": "uint8",
              "name": "_discountForBucketThree",
              "type": "uint8"
            }
          ],
          "stateMutability": "nonpayable",
          "type": "constructor"
        },
        {
          "anonymous": false,
          "inputs": [
            {
              "indexed": false,
              "internalType": "uint256",
              "name": "lotteryId",
              "type": "uint256"
            },
            {
              "indexed": false,
              "internalType": "uint256",
              "name": "ticketSupply",
              "type": "uint256"
            }
          ],
          "name": "LotteryClose",
          "type": "event"
        },
        {
          "anonymous": false,
          "inputs": [
            {
              "indexed": false,
              "internalType": "uint256",
              "name": "lotteryId",
              "type": "uint256"
            },
            {
              "indexed": false,
              "internalType": "uint256",
              "name": "ticketSupply",
              "type": "uint256"
            }
          ],
          "name": "LotteryOpen",
          "type": "event"
        },
        {
          "anonymous": false,
          "inputs": [
            {
              "indexed": true,
              "internalType": "address",
              "name": "minter",
              "type": "address"
            },
            {
              "indexed": false,
              "internalType": "uint256[]",
              "name": "ticketIDs",
              "type": "uint256[]"
            },
            {
              "indexed": false,
              "internalType": "uint16[]",
              "name": "numbers",
              "type": "uint16[]"
            },
            {
              "indexed": false,
              "internalType": "uint256",
              "name": "totalCost",
              "type": "uint256"
            },
            {
              "indexed": false,
              "internalType": "uint256",
              "name": "discount",
              "type": "uint256"
            },
            {
              "indexed": false,
              "internalType": "uint256",
              "name": "pricePaid",
              "type": "uint256"
            }
          ],
          "name": "NewBatchMint",
          "type": "event"
        },
        {
          "anonymous": false,
          "inputs": [
            {
              "indexed": true,
              "internalType": "address",
              "name": "previousOwner",
              "type": "address"
            },
            {
              "indexed": true,
              "internalType": "address",
              "name": "newOwner",
              "type": "address"
            }
          ],
          "name": "OwnershipTransferred",
          "type": "event"
        },
        {
          "anonymous": false,
          "inputs": [
            {
              "indexed": false,
              "internalType": "uint256",
              "name": "lotteryId",
              "type": "uint256"
            },
            {
              "indexed": false,
              "internalType": "bytes32",
              "name": "requestId",
              "type": "bytes32"
            }
          ],
          "name": "RequestNumbers",
          "type": "event"
        },
        {
          "anonymous": false,
          "inputs": [
            {
              "indexed": false,
              "internalType": "address",
              "name": "admin",
              "type": "address"
            },
            {
              "indexed": false,
              "internalType": "uint8",
              "name": "bucketOneMax",
              "type": "uint8"
            },
            {
              "indexed": false,
              "internalType": "uint8",
              "name": "bucketTwoMax",
              "type": "uint8"
            },
            {
              "indexed": false,
              "internalType": "uint8",
              "name": "discountForBucketOne",
              "type": "uint8"
            },
            {
              "indexed": false,
              "internalType": "uint8",
              "name": "discountForBucketTwo",
              "type": "uint8"
            },
            {
              "indexed": false,
              "internalType": "uint8",
              "name": "discountForBucketThree",
              "type": "uint8"
            }
          ],
          "name": "UpdatedBuckets",
          "type": "event"
        },
        {
          "anonymous": false,
          "inputs": [
            {
              "indexed": false,
              "internalType": "address",
              "name": "admin",
              "type": "address"
            },
            {
              "indexed": false,
              "internalType": "uint16",
              "name": "newMaxRange",
              "type": "uint16"
            }
          ],
          "name": "UpdatedMaxRange",
          "type": "event"
        },
        {
          "anonymous": false,
          "inputs": [
            {
              "indexed": false,
              "internalType": "address",
              "name": "admin",
              "type": "address"
            },
            {
              "indexed": false,
              "internalType": "uint8",
              "name": "newLotterySize",
              "type": "uint8"
            }
          ],
          "name": "UpdatedSizeOfLottery",
          "type": "event"
        },
        {
          "inputs": [
            {
              "internalType": "uint256",
              "name": "_lotteryId",
              "type": "uint256"
            },
            {
              "internalType": "uint8",
              "name": "_numberOfTickets",
              "type": "uint8"
            },
            {
              "internalType": "uint16[]",
              "name": "_chosenNumbersForEachTicket",
              "type": "uint16[]"
            }
          ],
          "name": "batchBuyLottoTicket",
          "outputs": [],
          "stateMutability": "nonpayable",
          "type": "function"
        },
        {
          "inputs": [
            {
              "internalType": "uint256",
              "name": "_lotteryId",
              "type": "uint256"
            },
            {
              "internalType": "uint256[]",
              "name": "_tokeIds",
              "type": "uint256[]"
            }
          ],
          "name": "batchClaimRewards",
          "outputs": [],
          "stateMutability": "nonpayable",
          "type": "function"
        },
        {
          "inputs": [],
          "name": "bucketOneMax_",
          "outputs": [
            {
              "internalType": "uint8",
              "name": "",
              "type": "uint8"
            }
          ],
          "stateMutability": "view",
          "type": "function"
        },
        {
          "inputs": [],
          "name": "bucketTwoMax_",
          "outputs": [
            {
              "internalType": "uint8",
              "name": "",
              "type": "uint8"
            }
          ],
          "stateMutability": "view",
          "type": "function"
        },
        {
          "inputs": [
            {
              "internalType": "uint256",
              "name": "_lotteryId",
              "type": "uint256"
            },
            {
              "internalType": "uint256",
              "name": "_tokenId",
              "type": "uint256"
            }
          ],
          "name": "claimReward",
          "outputs": [],
          "stateMutability": "nonpayable",
          "type": "function"
        },
        {
          "inputs": [
            {
              "internalType": "uint256",
              "name": "_lotteryId",
              "type": "uint256"
            },
            {
              "internalType": "uint256",
              "name": "_numberOfTickets",
              "type": "uint256"
            }
          ],
          "name": "costToBuyTickets",
          "outputs": [
            {
              "internalType": "uint256",
              "name": "totalCost",
              "type": "uint256"
            }
          ],
          "stateMutability": "view",
          "type": "function"
        },
        {
          "inputs": [
            {
              "internalType": "uint256",
              "name": "_lotteryId",
              "type": "uint256"
            },
            {
              "internalType": "uint256",
              "name": "_numberOfTickets",
              "type": "uint256"
            }
          ],
          "name": "costToBuyTicketsWithDiscount",
          "outputs": [
            {
              "internalType": "uint256",
              "name": "cost",
              "type": "uint256"
            },
            {
              "internalType": "uint256",
              "name": "discount",
              "type": "uint256"
            },
            {
              "internalType": "uint256",
              "name": "costWithDiscount",
              "type": "uint256"
            }
          ],
          "stateMutability": "view",
          "type": "function"
        },
        {
          "inputs": [
            {
              "internalType": "uint8[]",
              "name": "_prizeDistribution",
              "type": "uint8[]"
            },
            {
              "internalType": "uint256",
              "name": "_prizePoolInBound",
              "type": "uint256"
            },
            {
              "internalType": "uint256",
              "name": "_costPerTicket",
              "type": "uint256"
            },
            {
              "internalType": "uint256",
              "name": "_startingTimestamp",
              "type": "uint256"
            },
            {
              "internalType": "uint256",
              "name": "_closingTimestamp",
              "type": "uint256"
            }
          ],
          "name": "createNewLotto",
          "outputs": [
            {
              "internalType": "uint256",
              "name": "lotteryId",
              "type": "uint256"
            }
          ],
          "stateMutability": "nonpayable",
          "type": "function"
        },
        {
          "inputs": [],
          "name": "discountForBucketOne_",
          "outputs": [
            {
              "internalType": "uint8",
              "name": "",
              "type": "uint8"
            }
          ],
          "stateMutability": "view",
          "type": "function"
        },
        {
          "inputs": [],
          "name": "discountForBucketThree_",
          "outputs": [
            {
              "internalType": "uint8",
              "name": "",
              "type": "uint8"
            }
          ],
          "stateMutability": "view",
          "type": "function"
        },
        {
          "inputs": [],
          "name": "discountForBucketTwo_",
          "outputs": [
            {
              "internalType": "uint8",
              "name": "",
              "type": "uint8"
            }
          ],
          "stateMutability": "view",
          "type": "function"
        },
        {
          "inputs": [
            {
              "internalType": "uint256",
              "name": "_lotteryId",
              "type": "uint256"
            },
            {
              "internalType": "uint256",
              "name": "_seed",
              "type": "uint256"
            }
          ],
          "name": "drawWinningNumbers",
          "outputs": [],
          "stateMutability": "nonpayable",
          "type": "function"
        },
        {
          "inputs": [
            {
              "internalType": "uint256",
              "name": "_lotteryId",
              "type": "uint256"
            }
          ],
          "name": "getBasicLottoInfo",
          "outputs": [
            {
              "components": [
                {
                  "internalType": "uint256",
                  "name": "lotteryID",
                  "type": "uint256"
                },
                {
                  "internalType": "enum Lottery.Status",
                  "name": "lotteryStatus",
                  "type": "uint8"
                },
                {
                  "internalType": "uint256",
                  "name": "prizePoolInBound",
                  "type": "uint256"
                },
                {
                  "internalType": "uint256",
                  "name": "costPerTicket",
                  "type": "uint256"
                },
                {
                  "internalType": "uint8[]",
                  "name": "prizeDistribution",
                  "type": "uint8[]"
                },
                {
                  "internalType": "uint256",
                  "name": "startingTimestamp",
                  "type": "uint256"
                },
                {
                  "internalType": "uint256",
                  "name": "closingTimestamp",
                  "type": "uint256"
                },
                {
                  "internalType": "uint16[]",
                  "name": "winningNumbers",
                  "type": "uint16[]"
                }
              ],
              "internalType": "struct Lottery.LottoInfo",
              "name": "",
              "type": "tuple"
            }
          ],
          "stateMutability": "view",
          "type": "function"
        },
        {
          "inputs": [],
          "name": "getCurrentTime",
          "outputs": [
            {
              "internalType": "uint256",
              "name": "",
              "type": "uint256"
            }
          ],
          "stateMutability": "view",
          "type": "function"
        },
        {
          "inputs": [],
          "name": "getMaxRange",
          "outputs": [
            {
              "internalType": "uint16",
              "name": "",
              "type": "uint16"
            }
          ],
          "stateMutability": "view",
          "type": "function"
        },
        {
          "inputs": [
            {
              "internalType": "address",
              "name": "_lotteryNFT",
              "type": "address"
            },
            {
              "internalType": "address",
              "name": "_IRandomNumberGenerator",
              "type": "address"
            }
          ],
          "name": "initialize",
          "outputs": [],
          "stateMutability": "nonpayable",
          "type": "function"
        },
        {
          "inputs": [],
          "name": "maxValidRange_",
          "outputs": [
            {
              "internalType": "uint16",
              "name": "",
              "type": "uint16"
            }
          ],
          "stateMutability": "view",
          "type": "function"
        },
        {
          "inputs": [
            {
              "internalType": "uint256",
              "name": "_lotteryId",
              "type": "uint256"
            },
            {
              "internalType": "bytes32",
              "name": "_requestId",
              "type": "bytes32"
            },
            {
              "internalType": "uint256",
              "name": "_randomNumber",
              "type": "uint256"
            }
          ],
          "name": "numbersDrawn",
          "outputs": [],
          "stateMutability": "nonpayable",
          "type": "function"
        },
        {
          "inputs": [],
          "name": "owner",
          "outputs": [
            {
              "internalType": "address",
              "name": "",
              "type": "address"
            }
          ],
          "stateMutability": "view",
          "type": "function"
        },
        {
          "inputs": [],
          "name": "renounceOwnership",
          "outputs": [],
          "stateMutability": "nonpayable",
          "type": "function"
        },
        {
          "inputs": [
            {
              "internalType": "uint256",
              "name": "time",
              "type": "uint256"
            }
          ],
          "name": "setCurrentTime",
          "outputs": [],
          "stateMutability": "nonpayable",
          "type": "function"
        },
        {
          "inputs": [],
          "name": "sizeOfLottery_",
          "outputs": [
            {
              "internalType": "uint8",
              "name": "",
              "type": "uint8"
            }
          ],
          "stateMutability": "view",
          "type": "function"
        },
        {
          "inputs": [],
          "name": "timerAddress",
          "outputs": [
            {
              "internalType": "address",
              "name": "",
              "type": "address"
            }
          ],
          "stateMutability": "view",
          "type": "function"
        },
        {
          "inputs": [
            {
              "internalType": "address",
              "name": "newOwner",
              "type": "address"
            }
          ],
          "name": "transferOwnership",
          "outputs": [],
          "stateMutability": "nonpayable",
          "type": "function"
        },
        {
          "inputs": [
            {
              "internalType": "uint8",
              "name": "_bucketOneMax",
              "type": "uint8"
            },
            {
              "internalType": "uint8",
              "name": "_bucketTwoMax",
              "type": "uint8"
            },
            {
              "internalType": "uint8",
              "name": "_discountForBucketOne",
              "type": "uint8"
            },
            {
              "internalType": "uint8",
              "name": "_discountForBucketTwo",
              "type": "uint8"
            },
            {
              "internalType": "uint8",
              "name": "_discountForBucketThree",
              "type": "uint8"
            }
          ],
          "name": "updateBuckets",
          "outputs": [],
          "stateMutability": "nonpayable",
          "type": "function"
        },
        {
          "inputs": [
            {
              "internalType": "uint16",
              "name": "_newMaxRange",
              "type": "uint16"
            }
          ],
          "name": "updateMaxRange",
          "outputs": [],
          "stateMutability": "nonpayable",
          "type": "function"
        },
        {
          "inputs": [
            {
              "internalType": "uint8",
              "name": "_newSize",
              "type": "uint8"
            }
          ],
          "name": "updateSizeOfLottery",
          "outputs": [],
          "stateMutability": "nonpayable",
          "type": "function"
        },
        {
          "inputs": [
            {
              "internalType": "uint256",
              "name": "_amount",
              "type": "uint256"
            }
          ],
          "name": "withdrawBound",
          "outputs": [],
          "stateMutability": "nonpayable",
          "type": "function"
        }
      ],
      "evm": {
        "bytecode": {
          "linkReferences": {},
          "object": "60806040523480156200001157600080fd5b50604051620066ce380380620066ce833981810160405281019062000037919062000457565b8760006200004a6200040a60201b60201c565b9050806000806101000a81548173ffffffffffffffffffffffffffffffffffffffff021916908373ffffffffffffffffffffffffffffffffffffffff1602179055508073ffffffffffffffffffffffffffffffffffffffff16600073ffffffffffffffffffffffffffffffffffffffff167f8be0079c531659141344cd1fd0a4f28419497f9722a3daafe3b4186f6b6457e060405160405180910390a35080600160006101000a81548173ffffffffffffffffffffffffffffffffffffffff021916908373ffffffffffffffffffffffffffffffffffffffff1602179055505060008560ff161415801562000143575060008460ff1614155b62000185576040517f08c379a00000000000000000000000000000000000000000000000000000000081526004016200017c90620006e0565b60405180910390fd5b8360ff168560ff1610620001d0576040517f08c379a0000000000000000000000000000000000000000000000000000000008152600401620001c7906200067a565b60405180910390fd5b8160ff168360ff16108015620001eb57508060ff168260ff16105b6200022d576040517f08c379a000000000000000000000000000000000000000000000000000000000815260040162000224906200069c565b60405180910390fd5b600073ffffffffffffffffffffffffffffffffffffffff168973ffffffffffffffffffffffffffffffffffffffff161415620002a0576040517f08c379a00000000000000000000000000000000000000000000000000000000081526004016200029790620006be565b60405180910390fd5b60008760ff1614158015620002ba575060008661ffff1614155b620002fc576040517f08c379a0000000000000000000000000000000000000000000000000000000008152600401620002f39062000702565b60405180910390fd5b88600260006101000a81548173ffffffffffffffffffffffffffffffffffffffff021916908373ffffffffffffffffffffffffffffffffffffffff16021790555086600760006101000a81548160ff021916908360ff16021790555085600760016101000a81548161ffff021916908361ffff16021790555084600760036101000a81548160ff021916908360ff16021790555083600760046101000a81548160ff021916908360ff16021790555082600760056101000a81548160ff021916908360ff16021790555081600760066101000a81548160ff021916908360ff160217905550806007806101000a81548160ff021916908360ff160217905550505050505050505050620007d2565b600033905090565b600081519050620004238162000784565b92915050565b6000815190506200043a816200079e565b92915050565b6000815190506200045181620007b8565b92915050565b60008060008060008060008060006101208a8c0312156200047757600080fd5b6000620004878c828d0162000412565b99505060206200049a8c828d0162000412565b9850506040620004ad8c828d0162000440565b9750506060620004c08c828d0162000429565b9650506080620004d38c828d0162000440565b95505060a0620004e68c828d0162000440565b94505060c0620004f98c828d0162000440565b93505060e06200050c8c828d0162000440565b925050610100620005208c828d0162000440565b9150509295985092959850929598565b60006200053f601a8362000724565b91507f4275636b6574206f6e65206d75737420626520736d616c6c65720000000000006000830152602082019050919050565b60006200058160178362000724565b91507f446973636f756e7473206d75737420696e6372656173650000000000000000006000830152602082019050919050565b6000620005c3601d8362000724565b91507f436f6e7472616374732063616e6e6f74206265203020616464726573730000006000830152602082019050919050565b60006200060560188362000724565b91507f4275636b65742072616e67652063616e6e6f74206265203000000000000000006000830152602082019050919050565b60006200064760198362000724565b91507f4c6f74746572792073657475702063616e6e6f742062652030000000000000006000830152602082019050919050565b60006020820190508181036000830152620006958162000530565b9050919050565b60006020820190508181036000830152620006b78162000572565b9050919050565b60006020820190508181036000830152620006d981620005b4565b9050919050565b60006020820190508181036000830152620006fb81620005f6565b9050919050565b600060208201905081810360008301526200071d8162000638565b9050919050565b600082825260208201905092915050565b6000620007428262000757565b9050919050565b600061ffff82169050919050565b600073ffffffffffffffffffffffffffffffffffffffff82169050919050565b600060ff82169050919050565b6200078f8162000735565b81146200079b57600080fd5b50565b620007a98162000749565b8114620007b557600080fd5b50565b620007c38162000777565b8114620007cf57600080fd5b50565b615eec80620007e26000396000f3fe608060405234801561001057600080fd5b50600436106101c45760003560e01c80638be852b1116100f9578063ced5a63f11610097578063dccda09611610071578063dccda096146104a7578063e59bbab5146104d9578063e97fc162146104f7578063f2fde38b14610513576101c4565b8063ced5a63f1461043f578063d062b57c1461045b578063da47675514610477576101c4565b80639c216602116100d35780639c216602146103c9578063a624aa1b146103e7578063add5edf014610405578063c8cfd90214610423576101c4565b80638be852b1146103715780638da5cb5b1461038f57806391a28cdd146103ad576101c4565b80633c309fe711610166578063715018a611610140578063715018a6146102ff57806376674b8f146103095780638324f7c51461032557806386bb8f3714610355576101c4565b80633c309fe714610295578063485cc955146102b35780634f7d93db146102cf576101c4565b80631c39c38d116101a25780631c39c38d1461021f57806322f8e5661461023d57806329cb924d14610259578063350d925114610277576101c4565b8063075dc415146101c95780630773aa46146101e75780630dabc1d414610203575b600080fd5b6101d161052f565b6040516101de9190615b43565b60405180910390f35b61020160048036038101906101fc919061445e565b610542565b005b61021d60048036038101906102189190614367565b6106c3565b005b610227610947565b6040516102349190615341565b60405180910390f35b6102576004803603810190610252919061426e565b61096d565b005b610261610a59565b60405161026e9190615a76565b60405180910390f35b61027f610b5e565b60405161028c9190615b43565b60405180910390f35b61029d610b71565b6040516102aa9190615b43565b60405180910390f35b6102cd60048036038101906102c891906140a3565b610b84565b005b6102e960048036038101906102e49190614367565b610e18565b6040516102f69190615a76565b60405180910390f35b610307610e50565b005b610323600480360381019061031e91906142c0565b610f8a565b005b61033f600480360381019061033a9190614161565b61169e565b60405161034c9190615a76565b60405180910390f35b61036f600480360381019061036a9190614367565b611b69565b005b610379612104565b6040516103869190615b43565b60405180910390f35b610397612117565b6040516103a49190615341565b60405180910390f35b6103c760048036038101906103c29190614487565b612140565b005b6103d1612382565b6040516103de9190615b43565b60405180910390f35b6103ef612393565b6040516103fc9190615a5b565b60405180910390f35b61040d6123a7565b60405161041a9190615b43565b60405180910390f35b61043d600480360381019061043891906143f2565b6123ba565b005b6104596004803603810190610454919061426e565b612994565b005b61047560048036038101906104709190614245565b612ac3565b005b610491600480360381019061048c919061426e565b612c4b565b60405161049e9190615a39565b60405180910390f35b6104c160048036038101906104bc9190614367565b612dd6565b6040516104d093929190615ae3565b60405180910390f35b6104e1612e90565b6040516104ee9190615a5b565b60405180910390f35b610511600480360381019061050c9190614318565b612ea8565b005b61052d60048036038101906105289190614051565b613107565b005b600760009054906101000a900460ff1681565b61054a6132b0565b73ffffffffffffffffffffffffffffffffffffffff16610568612117565b73ffffffffffffffffffffffffffffffffffffffff16146105be576040517f08c379a00000000000000000000000000000000000000000000000000000000081526004016105b5906158f9565b60405180910390fd5b8060ff16600760009054906101000a900460ff1660ff161415610616576040517f08c379a000000000000000000000000000000000000000000000000000000000815260040161060d90615819565b60405180910390fd5b6000600760009054906101000a900460ff1660ff16141561066c576040517f08c379a0000000000000000000000000000000000000000000000000000000008152600401610663906156d9565b60405180910390fd5b80600760006101000a81548160ff021916908360ff1602179055507f390ce0ae29f1f6d8a7be889544606cb23b660dd44710ecbe1408aaed6356eba333826040516106b8929190615441565b60405180910390a150565b6106cb6132b0565b73ffffffffffffffffffffffffffffffffffffffff166106e9612117565b73ffffffffffffffffffffffffffffffffffffffff161461073f576040517f08c379a0000000000000000000000000000000000000000000000000000000008152600401610736906158f9565b60405180910390fd5b610747610a59565b6008600084815260200190815260200160002060060154111561079f576040517f08c379a000000000000000000000000000000000000000000000000000000000815260040161079690615939565b60405180910390fd5b600160038111156107ac57fe5b6008600084815260200190815260200160002060010160009054906101000a900460ff1660038111156107db57fe5b1461081b576040517f08c379a000000000000000000000000000000000000000000000000000000000815260040161081290615779565b60405180910390fd5b60026008600084815260200190815260200160002060010160006101000a81548160ff0219169083600381111561084e57fe5b0217905550600460009054906101000a900473ffffffffffffffffffffffffffffffffffffffff1673ffffffffffffffffffffffffffffffffffffffff16636e68fc0a83836040518363ffffffff1660e01b81526004016108b0929190615aba565b602060405180830381600087803b1580156108ca57600080fd5b505af11580156108de573d6000803e3d6000fd5b505050506040513d601f19601f82011682018060405250810190610902919061421c565b6005819055507ff8cdf8355a0f31bbad8998a631f5a75dcb3e475a010b34a111ed105fe88e751a8260055460405161093b929190615a91565b60405180910390a15050565b600160009054906101000a900473ffffffffffffffffffffffffffffffffffffffff1681565b600073ffffffffffffffffffffffffffffffffffffffff16600160009054906101000a900473ffffffffffffffffffffffffffffffffffffffff1673ffffffffffffffffffffffffffffffffffffffff1614156109c957600080fd5b600160009054906101000a900473ffffffffffffffffffffffffffffffffffffffff1673ffffffffffffffffffffffffffffffffffffffff166322f8e566826040518263ffffffff1660e01b8152600401610a249190615a76565b600060405180830381600087803b158015610a3e57600080fd5b505af1158015610a52573d6000803e3d6000fd5b5050505050565b60008073ffffffffffffffffffffffffffffffffffffffff16600160009054906101000a900473ffffffffffffffffffffffffffffffffffffffff1673ffffffffffffffffffffffffffffffffffffffff1614610b5757600160009054906101000a900473ffffffffffffffffffffffffffffffffffffffff1673ffffffffffffffffffffffffffffffffffffffff166329cb924d6040518163ffffffff1660e01b815260040160206040518083038186803b158015610b1857600080fd5b505afa158015610b2c573d6000803e3d6000fd5b505050506040513d601f19601f82011682018060405250810190610b509190614297565b9050610b5b565b4290505b90565b600760039054906101000a900460ff1681565b600760069054906101000a900460ff1681565b600060159054906101000a900460ff1680610ba35750610ba26132b8565b5b80610bbb5750600060149054906101000a900460ff16155b610bfa576040517f08c379a0000000000000000000000000000000000000000000000000000000008152600401610bf190615879565b60405180910390fd5b60008060159054906101000a900460ff161590508015610c4b576001600060156101000a81548160ff0219169083151502179055506001600060146101000a81548160ff0219169083151502179055505b610c536132b0565b73ffffffffffffffffffffffffffffffffffffffff16610c71612117565b73ffffffffffffffffffffffffffffffffffffffff1614610cc7576040517f08c379a0000000000000000000000000000000000000000000000000000000008152600401610cbe906158f9565b60405180910390fd5b600073ffffffffffffffffffffffffffffffffffffffff168373ffffffffffffffffffffffffffffffffffffffff1614158015610d315750600073ffffffffffffffffffffffffffffffffffffffff168273ffffffffffffffffffffffffffffffffffffffff1614155b610d70576040517f08c379a0000000000000000000000000000000000000000000000000000000008152600401610d67906158b9565b60405180910390fd5b82600360006101000a81548173ffffffffffffffffffffffffffffffffffffffff021916908373ffffffffffffffffffffffffffffffffffffffff16021790555081600460006101000a81548173ffffffffffffffffffffffffffffffffffffffff021916908373ffffffffffffffffffffffffffffffffffffffff1602179055508015610e135760008060156101000a81548160ff0219169083151502179055505b505050565b60008060086000858152602001908152602001600020600301549050610e4783826132c990919063ffffffff16565b91505092915050565b610e586132b0565b73ffffffffffffffffffffffffffffffffffffffff16610e76612117565b73ffffffffffffffffffffffffffffffffffffffff1614610ecc576040517f08c379a0000000000000000000000000000000000000000000000000000000008152600401610ec3906158f9565b60405180910390fd5b600073ffffffffffffffffffffffffffffffffffffffff1660008054906101000a900473ffffffffffffffffffffffffffffffffffffffff1673ffffffffffffffffffffffffffffffffffffffff167f8be0079c531659141344cd1fd0a4f28419497f9722a3daafe3b4186f6b6457e060405160405180910390a360008060006101000a81548173ffffffffffffffffffffffffffffffffffffffff021916908373ffffffffffffffffffffffffffffffffffffffff160217905550565b610fa93373ffffffffffffffffffffffffffffffffffffffff16613339565b15610fe9576040517f08c379a0000000000000000000000000000000000000000000000000000000008152600401610fe090615919565b60405180910390fd5b3273ffffffffffffffffffffffffffffffffffffffff163373ffffffffffffffffffffffffffffffffffffffff1614611057576040517f08c379a000000000000000000000000000000000000000000000000000000000815260040161104e90615579565b60405180910390fd5b603282829050111561109e576040517f08c379a0000000000000000000000000000000000000000000000000000000008152600401611095906157d9565b60405180910390fd5b6110a6610a59565b600860008581526020019081526020016000206006015411156110fe576040517f08c379a00000000000000000000000000000000000000000000000000000000081526004016110f590615679565b60405180910390fd5b60038081111561110a57fe5b6008600085815260200190815260200160002060010160009054906101000a900460ff16600381111561113957fe5b14611179576040517f08c379a0000000000000000000000000000000000000000000000000000000008152600401611170906159f9565b60405180910390fd5b6000805b8383905081101561164a573373ffffffffffffffffffffffffffffffffffffffff16600360009054906101000a900473ffffffffffffffffffffffffffffffffffffffff1673ffffffffffffffffffffffffffffffffffffffff16639d7553678686858181106111e957fe5b905060200201356040518263ffffffff1660e01b815260040161120c9190615a76565b60206040518083038186803b15801561122457600080fd5b505afa158015611238573d6000803e3d6000fd5b505050506040513d601f19601f8201168201806040525081019061125c919061407a565b73ffffffffffffffffffffffffffffffffffffffff16146112b2576040517f08c379a00000000000000000000000000000000000000000000000000000000081526004016112a990615839565b60405180910390fd5b600360009054906101000a900473ffffffffffffffffffffffffffffffffffffffff1673ffffffffffffffffffffffffffffffffffffffff16639191a7ea8585848181106112fc57fe5b905060200201356040518263ffffffff1660e01b815260040161131f9190615a76565b60206040518083038186803b15801561133757600080fd5b505afa15801561134b573d6000803e3d6000fd5b505050506040513d601f19601f8201168201806040525081019061136f91906141f3565b156113795761163d565b600360009054906101000a900473ffffffffffffffffffffffffffffffffffffffff1673ffffffffffffffffffffffffffffffffffffffff1663ed06a7408585848181106113c357fe5b90506020020135876040518363ffffffff1660e01b81526004016113e8929190615aba565b602060405180830381600087803b15801561140257600080fd5b505af1158015611416573d6000803e3d6000fd5b505050506040513d601f19601f8201168201806040525081019061143a91906141f3565b611479576040517f08c379a0000000000000000000000000000000000000000000000000000000008152600401611470906156f9565b60405180910390fd5b60006115d2600360009054906101000a900473ffffffffffffffffffffffffffffffffffffffff1673ffffffffffffffffffffffffffffffffffffffff16639839eafd8787868181106114c857fe5b905060200201356040518263ffffffff1660e01b81526004016114eb9190615a76565b60006040518083038186803b15801561150357600080fd5b505afa158015611517573d6000803e3d6000fd5b505050506040513d6000823e3d601f19601f8201168201806040525081019061154091906140df565b600860008981526020019081526020016000206007018054806020026020016040519081016040528092919081815260200182805480156115c857602002820191906000526020600020906000905b82829054906101000a900461ffff1661ffff168152602001906002019060208260010104928301926001038202915080841161158f5790505b505050505061334c565b905060006115e082886133ae565b905061160b81600860008a81526020019081526020016000206002015461346390919063ffffffff16565b600860008981526020019081526020016000206002018190555061163881856134b390919063ffffffff16565b935050505b808060010191505061117d565b506116983382600260009054906101000a900473ffffffffffffffffffffffffffffffffffffffff1673ffffffffffffffffffffffffffffffffffffffff166135089092919063ffffffff16565b50505050565b60006116a86132b0565b73ffffffffffffffffffffffffffffffffffffffff166116c6612117565b73ffffffffffffffffffffffffffffffffffffffff161461171c576040517f08c379a0000000000000000000000000000000000000000000000000000000008152600401611713906158f9565b60405180910390fd5b600760009054906101000a900460ff1660ff168787905014611773576040517f08c379a000000000000000000000000000000000000000000000000000000000815260040161176a906155d9565b60405180910390fd5b6000805b888890508110156117c7576117b889898381811061179157fe5b90506020020160208101906117a6919061445e565b60ff16836134b390919063ffffffff16565b91508080600101915050611777565b506064811461180b576040517f08c379a000000000000000000000000000000000000000000000000000000000815260040161180290615a19565b60405180910390fd5b6000861415801561181d575060008514155b61185c576040517f08c379a0000000000000000000000000000000000000000000000000000000008152600401611853906155b9565b60405180910390fd5b6000841415801561186c57508284105b6118ab576040517f08c379a00000000000000000000000000000000000000000000000000000000081526004016118a2906159b9565b60405180910390fd5b6118c160016006546134b390919063ffffffff16565b60068190555060065491506060600760009054906101000a900460ff1660ff1667ffffffffffffffff811180156118f757600080fd5b506040519080825280602002602001820160405280156119265781602001602082028036833780820191505090505b5090506000611933610a59565b86106119425760019050611947565b600090505b61194f613ba9565b60405180610100016040528086815260200183600381111561196d57fe5b81526020018a81526020018981526020018c8c80806020026020016040519081016040528093929190818152602001838360200280828437600081840152601f19601f82011690508083019250505050505050815260200188815260200187815260200184815250905080600860008781526020019081526020016000206000820151816000015560208201518160010160006101000a81548160ff02191690836003811115611a1957fe5b021790555060408201518160020155606082015181600301556080820151816004019080519060200190611a4e929190613bf9565b5060a0820151816005015560c0820151816006015560e0820151816007019080519060200190611a7f929190613ca0565b509050507fce7176db4e5b6d07ad0f0ecf9523a01d98aa268b888a199592cb5b1e40615c4685600360009054906101000a900473ffffffffffffffffffffffffffffffffffffffff1673ffffffffffffffffffffffffffffffffffffffff1663c4e41b226040518163ffffffff1660e01b815260040160206040518083038186803b158015611b0d57600080fd5b505afa158015611b21573d6000803e3d6000fd5b505050506040513d601f19601f82011682018060405250810190611b459190614297565b604051611b53929190615aba565b60405180910390a1505050509695505050505050565b611b883373ffffffffffffffffffffffffffffffffffffffff16613339565b15611bc8576040517f08c379a0000000000000000000000000000000000000000000000000000000008152600401611bbf90615919565b60405180910390fd5b3273ffffffffffffffffffffffffffffffffffffffff163373ffffffffffffffffffffffffffffffffffffffff1614611c36576040517f08c379a0000000000000000000000000000000000000000000000000000000008152600401611c2d90615579565b60405180910390fd5b611c3e610a59565b60086000848152602001908152602001600020600601541115611c96576040517f08c379a0000000000000000000000000000000000000000000000000000000008152600401611c8d90615679565b60405180910390fd5b600380811115611ca257fe5b6008600084815260200190815260200160002060010160009054906101000a900460ff166003811115611cd157fe5b14611d11576040517f08c379a0000000000000000000000000000000000000000000000000000000008152600401611d08906159f9565b60405180910390fd5b3373ffffffffffffffffffffffffffffffffffffffff16600360009054906101000a900473ffffffffffffffffffffffffffffffffffffffff1673ffffffffffffffffffffffffffffffffffffffff16639d755367836040518263ffffffff1660e01b8152600401611d839190615a76565b60206040518083038186803b158015611d9b57600080fd5b505afa158015611daf573d6000803e3d6000fd5b505050506040513d601f19601f82011682018060405250810190611dd3919061407a565b73ffffffffffffffffffffffffffffffffffffffff1614611e29576040517f08c379a0000000000000000000000000000000000000000000000000000000008152600401611e2090615839565b60405180910390fd5b600360009054906101000a900473ffffffffffffffffffffffffffffffffffffffff1673ffffffffffffffffffffffffffffffffffffffff1663ed06a74082846040518363ffffffff1660e01b8152600401611e86929190615aba565b602060405180830381600087803b158015611ea057600080fd5b505af1158015611eb4573d6000803e3d6000fd5b505050506040513d601f19601f82011682018060405250810190611ed891906141f3565b611f17576040517f08c379a0000000000000000000000000000000000000000000000000000000008152600401611f0e906156f9565b60405180910390fd5b600061205e600360009054906101000a900473ffffffffffffffffffffffffffffffffffffffff1673ffffffffffffffffffffffffffffffffffffffff16639839eafd846040518263ffffffff1660e01b8152600401611f779190615a76565b60006040518083038186803b158015611f8f57600080fd5b505afa158015611fa3573d6000803e3d6000fd5b505050506040513d6000823e3d601f19601f82011682018060405250810190611fcc91906140df565b6008600086815260200190815260200160002060070180548060200260200160405190810160405280929190818152602001828054801561205457602002820191906000526020600020906000905b82829054906101000a900461ffff1661ffff168152602001906002019060208260010104928301926001038202915080841161201b5790505b505050505061334c565b9050600061206c82856133ae565b905061209781600860008781526020019081526020016000206002015461346390919063ffffffff16565b60086000868152602001908152602001600020600201819055506120fe3382600260009054906101000a900473ffffffffffffffffffffffffffffffffffffffff1673ffffffffffffffffffffffffffffffffffffffff166135089092919063ffffffff16565b50505050565b600760049054906101000a900460ff1681565b60008060009054906101000a900473ffffffffffffffffffffffffffffffffffffffff16905090565b6121486132b0565b73ffffffffffffffffffffffffffffffffffffffff16612166612117565b73ffffffffffffffffffffffffffffffffffffffff16146121bc576040517f08c379a00000000000000000000000000000000000000000000000000000000081526004016121b3906158f9565b60405180910390fd5b60008560ff16141580156121d4575060008460ff1614155b612213576040517f08c379a000000000000000000000000000000000000000000000000000000000815260040161220a90615979565b60405180910390fd5b8360ff168560ff161061225b576040517f08c379a000000000000000000000000000000000000000000000000000000000815260040161225290615639565b60405180910390fd5b8160ff168360ff1610801561227557508060ff168260ff16105b6122b4576040517f08c379a00000000000000000000000000000000000000000000000000000000081526004016122ab90615699565b60405180910390fd5b84600760036101000a81548160ff021916908360ff16021790555083600760046101000a81548160ff021916908360ff16021790555082600760056101000a81548160ff021916908360ff16021790555081600760066101000a81548160ff021916908360ff160217905550806007806101000a81548160ff021916908360ff1602179055507f01618beb8a3c654575d63a5d2e28c8fc894fed0753514441c68f2e17a40bddd63386868686866040516123739695949392919061546a565b60405180910390a15050505050565b60078054906101000a900460ff1681565b600760019054906101000a900461ffff1681565b600760059054906101000a900460ff1681565b6123d93373ffffffffffffffffffffffffffffffffffffffff16613339565b15612419576040517f08c379a000000000000000000000000000000000000000000000000000000000815260040161241090615919565b60405180910390fd5b3273ffffffffffffffffffffffffffffffffffffffff163373ffffffffffffffffffffffffffffffffffffffff1614612487576040517f08c379a000000000000000000000000000000000000000000000000000000000815260040161247e90615579565b60405180910390fd5b60086000858152602001908152602001600020600501546124a6610a59565b10156124e7576040517f08c379a00000000000000000000000000000000000000000000000000000000081526004016124de90615719565b60405180910390fd5b6008600085815260200190815260200160002060060154612506610a59565b10612546576040517f08c379a000000000000000000000000000000000000000000000000000000000815260040161253d906157b9565b60405180910390fd5b6000600381111561255357fe5b6008600086815260200190815260200160002060010160009054906101000a900460ff16600381111561258257fe5b14156125e657612590610a59565b6008600086815260200190815260200160002060050154106125e55760016008600086815260200190815260200160002060010160006101000a81548160ff021916908360038111156125df57fe5b02179055505b5b600160038111156125f357fe5b6008600086815260200190815260200160002060010160009054906101000a900460ff16600381111561262257fe5b14612662576040517f08c379a000000000000000000000000000000000000000000000000000000000815260040161265990615999565b60405180910390fd5b60328360ff1611156126a9576040517f08c379a00000000000000000000000000000000000000000000000000000000081526004016126a0906155f9565b60405180910390fd5b60006126d0600760009054906101000a900460ff168560ff1661358e90919063ffffffff16565b60ff16905080838390501461271a576040517f08c379a000000000000000000000000000000000000000000000000000000000815260040161271190615899565b60405180910390fd5b60008060003073ffffffffffffffffffffffffffffffffffffffff1663dccda09689896040518363ffffffff1660e01b815260040161275a929190615b1a565b60606040518083038186803b15801561277257600080fd5b505afa158015612786573d6000803e3d6000fd5b505050506040513d601f19601f820116820180604052508101906127aa91906143a3565b925092509250600260009054906101000a900473ffffffffffffffffffffffffffffffffffffffff1673ffffffffffffffffffffffffffffffffffffffff166323b872dd3330846040518463ffffffff1660e01b815260040161280f9392919061535c565b602060405180830381600087803b15801561282957600080fd5b505af115801561283d573d6000803e3d6000fd5b505050506040513d601f19601f8201168201806040525081019061286191906141f3565b506060600360009054906101000a900473ffffffffffffffffffffffffffffffffffffffff1673ffffffffffffffffffffffffffffffffffffffff16635e3261d0338b8b8b8b600760009054906101000a900460ff166040518763ffffffff1660e01b81526004016128d8969594939291906153e5565b600060405180830381600087803b1580156128f257600080fd5b505af1158015612906573d6000803e3d6000fd5b505050506040513d6000823e3d601f19601f8201168201806040525081019061292f9190614120565b90503373ffffffffffffffffffffffffffffffffffffffff167ff3b6bffcebba7579100b0c6d1a161291881ac36e30c7eced22d0103370e6cafc828989888888604051612981969594939291906154f4565b60405180910390a2505050505050505050565b61299c6132b0565b73ffffffffffffffffffffffffffffffffffffffff166129ba612117565b73ffffffffffffffffffffffffffffffffffffffff1614612a10576040517f08c379a0000000000000000000000000000000000000000000000000000000008152600401612a07906158f9565b60405180910390fd5b600260009054906101000a900473ffffffffffffffffffffffffffffffffffffffff1673ffffffffffffffffffffffffffffffffffffffff1663a9059cbb33836040518363ffffffff1660e01b8152600401612a6d9291906153bc565b602060405180830381600087803b158015612a8757600080fd5b505af1158015612a9b573d6000803e3d6000fd5b505050506040513d601f19601f82011682018060405250810190612abf91906141f3565b5050565b612acb6132b0565b73ffffffffffffffffffffffffffffffffffffffff16612ae9612117565b73ffffffffffffffffffffffffffffffffffffffff1614612b3f576040517f08c379a0000000000000000000000000000000000000000000000000000000008152600401612b36906158f9565b60405180910390fd5b8061ffff16600760019054906101000a900461ffff1661ffff161415612b9a576040517f08c379a0000000000000000000000000000000000000000000000000000000008152600401612b9190615819565b60405180910390fd5b6000600760019054906101000a900461ffff1661ffff161415612bf2576040517f08c379a0000000000000000000000000000000000000000000000000000000008152600401612be9906157f9565b60405180910390fd5b80600760016101000a81548161ffff021916908361ffff1602179055507f2a54f3414068117c88afc33d8e1dea5f6330df95e10ef41731baea27ab8a946e3382604051612c40929190615393565b60405180910390a150565b612c53613ba9565b6008600083815260200190815260200160002060405180610100016040529081600082015481526020016001820160009054906101000a900460ff166003811115612c9a57fe5b6003811115612ca557fe5b8152602001600282015481526020016003820154815260200160048201805480602002602001604051908101604052809291908181526020018280548015612d3257602002820191906000526020600020906000905b82829054906101000a900460ff1660ff1681526020019060010190602082600001049283019260010382029150808411612cfb5790505b50505050508152602001600582015481526020016006820154815260200160078201805480602002602001604051908101604052809291908181526020018280548015612dc657602002820191906000526020600020906000905b82829054906101000a900461ffff1661ffff1681526020019060020190602082600101049283019260010382029150808411612d8d5790505b5050505050815250509050919050565b6000806000612de5858561360d565b91503073ffffffffffffffffffffffffffffffffffffffff16634f7d93db86866040518363ffffffff1660e01b8152600401612e22929190615aba565b60206040518083038186803b158015612e3a57600080fd5b505afa158015612e4e573d6000803e3d6000fd5b505050506040513d601f19601f82011682018060405250810190612e729190614297565b9250612e87828461346390919063ffffffff16565b90509250925092565b6000600760019054906101000a900461ffff16905090565b600460009054906101000a900473ffffffffffffffffffffffffffffffffffffffff1673ffffffffffffffffffffffffffffffffffffffff163373ffffffffffffffffffffffffffffffffffffffff1614612f38576040517f08c379a0000000000000000000000000000000000000000000000000000000008152600401612f2f90615599565b60405180910390fd5b60026003811115612f4557fe5b6008600085815260200190815260200160002060010160009054906101000a900460ff166003811115612f7457fe5b14612fb4576040517f08c379a0000000000000000000000000000000000000000000000000000000008152600401612fab90615659565b60405180910390fd5b81600554141561302a5760036008600085815260200190815260200160002060010160006101000a81548160ff02191690836003811115612ff157fe5b0217905550612fff81613790565b600860008581526020019081526020016000206007019080519060200190613028929190613ca0565b505b7f3728e75294796694d59d2ffced9c394279baf7b9ebd2702db43f5f04bac6792983600360009054906101000a900473ffffffffffffffffffffffffffffffffffffffff1673ffffffffffffffffffffffffffffffffffffffff1663c4e41b226040518163ffffffff1660e01b815260040160206040518083038186803b1580156130b457600080fd5b505afa1580156130c8573d6000803e3d6000fd5b505050506040513d601f19601f820116820180604052508101906130ec9190614297565b6040516130fa929190615aba565b60405180910390a1505050565b61310f6132b0565b73ffffffffffffffffffffffffffffffffffffffff1661312d612117565b73ffffffffffffffffffffffffffffffffffffffff1614613183576040517f08c379a000000000000000000000000000000000000000000000000000000000815260040161317a906158f9565b60405180910390fd5b600073ffffffffffffffffffffffffffffffffffffffff168173ffffffffffffffffffffffffffffffffffffffff1614156131f3576040517f08c379a00000000000000000000000000000000000000000000000000000000081526004016131ea90615619565b60405180910390fd5b8073ffffffffffffffffffffffffffffffffffffffff1660008054906101000a900473ffffffffffffffffffffffffffffffffffffffff1673ffffffffffffffffffffffffffffffffffffffff167f8be0079c531659141344cd1fd0a4f28419497f9722a3daafe3b4186f6b6457e060405160405180910390a3806000806101000a81548173ffffffffffffffffffffffffffffffffffffffff021916908373ffffffffffffffffffffffffffffffffffffffff16021790555050565b600033905090565b60006132c330613339565b15905090565b6000808314156132dc5760009050613333565b60008284029050828482816132ed57fe5b041461332e576040517f08c379a0000000000000000000000000000000000000000000000000000000008152600401613325906158d9565b60405180910390fd5b809150505b92915050565b600080823b905060008111915050919050565b600080600090505b82518110156133a75782818151811061336957fe5b602002602001015161ffff1684828151811061338157fe5b602002602001015161ffff16141561339a576001820191505b8080600101915050613354565b5092915050565b6000806000905060008460ff1614156133cb57600091505061345d565b6000600860008581526020019081526020016000206004016001860360ff16815481106133f457fe5b90600052602060002090602091828204019190069054906101000a900460ff1660ff1690506134428160086000878152602001908152602001600020600201546132c990919063ffffffff16565b91506134586064836138a290919063ffffffff16565b925050505b92915050565b6000828211156134a8576040517f08c379a000000000000000000000000000000000000000000000000000000000815260040161349f90615739565b60405180910390fd5b818303905092915050565b6000808284019050838110156134fe576040517f08c379a00000000000000000000000000000000000000000000000000000000081526004016134f5906156b9565b60405180910390fd5b8091505092915050565b6135898363a9059cbb60e01b84846040516024016135279291906154cb565b604051602081830303815290604052907bffffffffffffffffffffffffffffffffffffffffffffffffffffffff19166020820180517bffffffffffffffffffffffffffffffffffffffffffffffffffffffff83818316178352505050506138f8565b505050565b6000808360ff1614156135a45760009050613607565b600082840290508260ff168460ff168260ff16816135be57fe5b0460ff1614613602576040517f08c379a00000000000000000000000000000000000000000000000000000000081526004016135f9906158d9565b60405180910390fd5b809150505b92915050565b6000803073ffffffffffffffffffffffffffffffffffffffff16634f7d93db85856040518363ffffffff1660e01b815260040161364b929190615aba565b60206040518083038186803b15801561366357600080fd5b505afa158015613677573d6000803e3d6000fd5b505050506040513d601f19601f8201168201806040525081019061369b9190614297565b9050600760039054906101000a900460ff1660ff168310156136f6576136ef60646136e1600760059054906101000a900460ff1660ff16846132c990919063ffffffff16565b6138a290919063ffffffff16565b9150613789565b600760049054906101000a900460ff1660ff1683101561374f57613748606461373a600760069054906101000a900460ff1660ff16846132c990919063ffffffff16565b6138a290919063ffffffff16565b9150613788565b613785606461377760078054906101000a900460ff1660ff16846132c990919063ffffffff16565b6138a290919063ffffffff16565b91505b5b5092915050565b606080600760009054906101000a900460ff1660ff1667ffffffffffffffff811180156137bc57600080fd5b506040519080825280602002602001820160405280156137eb5781602001602082028036833780820191505090505b50905060005b600760009054906101000a900460ff1660ff168110156138985760008482604051602001613820929190615315565b60405160208183030381529060405280519060200120905060008160001c9050613867600760019054906101000a900461ffff1661ffff16826139bf90919063ffffffff16565b84848151811061387357fe5b602002602001019061ffff16908161ffff1681525050505080806001019150506137f1565b5080915050919050565b60008082116138e6576040517f08c379a00000000000000000000000000000000000000000000000000000000081526004016138dd90615799565b60405180910390fd5b8183816138ef57fe5b04905092915050565b606061395a826040518060400160405280602081526020017f5361666545524332303a206c6f772d6c6576656c2063616c6c206661696c65648152508573ffffffffffffffffffffffffffffffffffffffff16613a159092919063ffffffff16565b90506000815111156139ba578080602001905181019061397a91906141f3565b6139b9576040517f08c379a00000000000000000000000000000000000000000000000000000000081526004016139b0906159d9565b60405180910390fd5b5b505050565b6000808211613a03576040517f08c379a00000000000000000000000000000000000000000000000000000000081526004016139fa90615859565b60405180910390fd5b818381613a0c57fe5b06905092915050565b6060613a248484600085613a2d565b90509392505050565b606082471015613a72576040517f08c379a0000000000000000000000000000000000000000000000000000000008152600401613a6990615759565b60405180910390fd5b613a7b85613339565b613aba576040517f08c379a0000000000000000000000000000000000000000000000000000000008152600401613ab190615959565b60405180910390fd5b600060608673ffffffffffffffffffffffffffffffffffffffff168587604051613ae491906152fe565b60006040518083038185875af1925050503d8060008114613b21576040519150601f19603f3d011682016040523d82523d6000602084013e613b26565b606091505b5091509150613b36828286613b42565b92505050949350505050565b60608315613b5257829050613ba2565b600083511115613b655782518084602001fd5b816040517f08c379a0000000000000000000000000000000000000000000000000000000008152600401613b999190615557565b60405180910390fd5b9392505050565b6040518061010001604052806000815260200160006003811115613bc957fe5b81526020016000815260200160008152602001606081526020016000815260200160008152602001606081525090565b82805482825590600052602060002090601f01602090048101928215613c8f5791602002820160005b83821115613c6057835183826101000a81548160ff021916908360ff1602179055509260200192600101602081600001049283019260010302613c22565b8015613c8d5782816101000a81549060ff0219169055600101602081600001049283019260010302613c60565b505b509050613c9c9190613d4a565b5090565b82805482825590600052602060002090600f01601090048101928215613d395791602002820160005b83821115613d0957835183826101000a81548161ffff021916908361ffff1602179055509260200192600201602081600101049283019260010302613cc9565b8015613d375782816101000a81549061ffff0219169055600201602081600101049283019260010302613d09565b505b509050613d469190613d72565b5090565b5b80821115613d6e57600081816101000a81549060ff021916905550600101613d4b565b5090565b5b80821115613d9757600081816101000a81549061ffff021916905550600101613d73565b5090565b600081359050613daa81615e2c565b92915050565b600081519050613dbf81615e2c565b92915050565b60008083601f840112613dd757600080fd5b8235905067ffffffffffffffff811115613df057600080fd5b602083019150836020820283011115613e0857600080fd5b9250929050565b600082601f830112613e2057600080fd5b8151613e33613e2e82615b8b565b615b5e565b91508181835260208401935060208101905083856020840282011115613e5857600080fd5b60005b83811015613e885781613e6e8882613ffd565b845260208401935060208301925050600181019050613e5b565b5050505092915050565b60008083601f840112613ea457600080fd5b8235905067ffffffffffffffff811115613ebd57600080fd5b602083019150836020820283011115613ed557600080fd5b9250929050565b600082601f830112613eed57600080fd5b8151613f00613efb82615bb3565b615b5e565b91508181835260208401935060208101905083856020840282011115613f2557600080fd5b60005b83811015613f555781613f3b8882614027565b845260208401935060208301925050600181019050613f28565b5050505092915050565b60008083601f840112613f7157600080fd5b8235905067ffffffffffffffff811115613f8a57600080fd5b602083019150836020820283011115613fa257600080fd5b9250929050565b600081519050613fb881615e43565b92915050565b600081359050613fcd81615e5a565b92915050565b600081519050613fe281615e5a565b92915050565b600081359050613ff781615e71565b92915050565b60008151905061400c81615e71565b92915050565b60008135905061402181615e88565b92915050565b60008151905061403681615e88565b92915050565b60008135905061404b81615e9f565b92915050565b60006020828403121561406357600080fd5b600061407184828501613d9b565b91505092915050565b60006020828403121561408c57600080fd5b600061409a84828501613db0565b91505092915050565b600080604083850312156140b657600080fd5b60006140c485828601613d9b565b92505060206140d585828601613d9b565b9150509250929050565b6000602082840312156140f157600080fd5b600082015167ffffffffffffffff81111561410b57600080fd5b61411784828501613e0f565b91505092915050565b60006020828403121561413257600080fd5b600082015167ffffffffffffffff81111561414c57600080fd5b61415884828501613edc565b91505092915050565b60008060008060008060a0878903121561417a57600080fd5b600087013567ffffffffffffffff81111561419457600080fd5b6141a089828a01613f5f565b965096505060206141b389828a01614012565b94505060406141c489828a01614012565b93505060606141d589828a01614012565b92505060806141e689828a01614012565b9150509295509295509295565b60006020828403121561420557600080fd5b600061421384828501613fa9565b91505092915050565b60006020828403121561422e57600080fd5b600061423c84828501613fd3565b91505092915050565b60006020828403121561425757600080fd5b600061426584828501613fe8565b91505092915050565b60006020828403121561428057600080fd5b600061428e84828501614012565b91505092915050565b6000602082840312156142a957600080fd5b60006142b784828501614027565b91505092915050565b6000806000604084860312156142d557600080fd5b60006142e386828701614012565b935050602084013567ffffffffffffffff81111561430057600080fd5b61430c86828701613e92565b92509250509250925092565b60008060006060848603121561432d57600080fd5b600061433b86828701614012565b935050602061434c86828701613fbe565b925050604061435d86828701614012565b9150509250925092565b6000806040838503121561437a57600080fd5b600061438885828601614012565b925050602061439985828601614012565b9150509250929050565b6000806000606084860312156143b857600080fd5b60006143c686828701614027565b93505060206143d786828701614027565b92505060406143e886828701614027565b9150509250925092565b6000806000806060858703121561440857600080fd5b600061441687828801614012565b94505060206144278782880161403c565b935050604085013567ffffffffffffffff81111561444457600080fd5b61445087828801613dc5565b925092505092959194509250565b60006020828403121561447057600080fd5b600061447e8482850161403c565b91505092915050565b600080600080600060a0868803121561449f57600080fd5b60006144ad8882890161403c565b95505060206144be8882890161403c565b94505060406144cf8882890161403c565b93505060606144e08882890161403c565b92505060806144f18882890161403c565b9150509295509295909350565b600061450a838361527e565b60208301905092915050565b6000614522838361529c565b60208301905092915050565b600061453a83836152e0565b60208301905092915050565b61454f81615d77565b82525050565b61455e81615cf7565b82525050565b60006145708385615c91565b935061457b82615bdb565b8060005b858110156145b4576145918284615ce0565b61459b88826144fe565b97506145a683615c4c565b92505060018101905061457f565b5085925050509392505050565b60006145cc82615c15565b6145d68185615c80565b93506145e183615be5565b8060005b838110156146125781516145f988826144fe565b975061460483615c59565b9250506001810190506145e5565b5085935050505092915050565b600061462a82615c20565b6146348185615ca2565b935061463f83615bf5565b8060005b838110156146705781516146578882614516565b975061466283615c66565b925050600181019050614643565b5085935050505092915050565b600061468882615c2b565b6146928185615cb3565b935061469d83615c05565b8060005b838110156146ce5781516146b5888261452e565b97506146c083615c73565b9250506001810190506146a1565b5085935050505092915050565b6146e481615d15565b82525050565b60006146f582615c36565b6146ff8185615cc4565b935061470f818560208601615dd1565b80840191505092915050565b61472481615d89565b82525050565b600061473582615c41565b61473f8185615ccf565b935061474f818560208601615dd1565b61475881615e0e565b840191505092915050565b6000614770601a83615ccf565b91507f70726f787920636f6e7472616374206e6f7420616c6c6f7765640000000000006000830152602082019050919050565b60006147b0601583615ccf565b91507f4f6e6c792072616e646f6d2067656e657261746f7200000000000000000000006000830152602082019050919050565b60006147f0601983615ccf565b91507f5072697a65206f7220636f73742063616e6e6f742062652030000000000000006000830152602082019050919050565b6000614830601483615ccf565b91507f496e76616c696420646973747269627574696f6e0000000000000000000000006000830152602082019050919050565b6000614870601483615ccf565b91507f4261746368206d696e7420746f6f206c617267650000000000000000000000006000830152602082019050919050565b60006148b0602683615ccf565b91507f4f776e61626c653a206e6577206f776e657220697320746865207a65726f206160008301527f64647265737300000000000000000000000000000000000000000000000000006020830152604082019050919050565b6000614916601a83615ccf565b91507f4275636b6574206f6e65206d75737420626520736d616c6c65720000000000006000830152602082019050919050565b6000614956601283615ccf565b91507f44726177206e756d6265727320666972737400000000000000000000000000006000830152602082019050919050565b6000614996601683615ccf565b91507f576169742074696c6c20656e6420746f20636c61696d000000000000000000006000830152602082019050919050565b60006149d6601783615ccf565b91507f446973636f756e7473206d75737420696e6372656173650000000000000000006000830152602082019050919050565b6000614a16601b83615ccf565b91507f536166654d6174683a206164646974696f6e206f766572666c6f7700000000006000830152602082019050919050565b6000614a56601883615ccf565b91507f4c6f74746572792073697a652063616e6e6f74206265203000000000000000006000830152602082019050919050565b6000614a96601a83615ccf565b91507f4e756d6265727320666f72207469636b657420696e76616c69640000000000006000830152602082019050919050565b6000614ad6601b83615ccf565b91507f496e76616c69642074696d6520666f72206d696e743a737461727400000000006000830152602082019050919050565b6000614b16601e83615ccf565b91507f536166654d6174683a207375627472616374696f6e206f766572666c6f7700006000830152602082019050919050565b6000614b56602683615ccf565b91507f416464726573733a20696e73756666696369656e742062616c616e636520666f60008301527f722063616c6c00000000000000000000000000000000000000000000000000006020830152604082019050919050565b6000614bbc602083615ccf565b91507f4c6f747465727920537461746520696e636f727265637420666f7220647261776000830152602082019050919050565b6000614bfc601a83615ccf565b91507f536166654d6174683a206469766973696f6e206279207a65726f0000000000006000830152602082019050919050565b6000614c3c601983615ccf565b91507f496e76616c69642074696d6520666f72206d696e743a656e64000000000000006000830152602082019050919050565b6000614c7c601583615ccf565b91507f426174636820636c61696d20746f6f206c6172676500000000000000000000006000830152602082019050919050565b6000614cbc601583615ccf565b91507f4d61782072616e67652063616e6e6f74206265203000000000000000000000006000830152602082019050919050565b6000614cfc601a83615ccf565b91507f43616e6e6f742073657420746f2063757272656e742073697a650000000000006000830152602082019050919050565b6000614d3c601883615ccf565b91507f4f6e6c7920746865206f776e65722063616e20636c61696d00000000000000006000830152602082019050919050565b6000614d7c601883615ccf565b91507f536166654d6174683a206d6f64756c6f206279207a65726f00000000000000006000830152602082019050919050565b6000614dbc602e83615ccf565b91507f496e697469616c697a61626c653a20636f6e747261637420697320616c72656160008301527f647920696e697469616c697a65640000000000000000000000000000000000006020830152604082019050919050565b6000614e22601683615ccf565b91507f496e76616c69642063686f73656e206e756d62657273000000000000000000006000830152602082019050919050565b6000614e62601d83615ccf565b91507f436f6e7472616374732063616e6e6f74206265203020616464726573730000006000830152602082019050919050565b6000614ea2602183615ccf565b91507f536166654d6174683a206d756c7469706c69636174696f6e206f766572666c6f60008301527f77000000000000000000000000000000000000000000000000000000000000006020830152604082019050919050565b6000614f08602083615ccf565b91507f4f776e61626c653a2063616c6c6572206973206e6f7420746865206f776e65726000830152602082019050919050565b6000614f48601483615ccf565b91507f636f6e7472616374206e6f7420616c6c6f7765640000000000000000000000006000830152602082019050919050565b6000614f88602983615ccf565b91507f43616e6e6f74207365742077696e6e696e67206e756d6265727320647572696e60008301527f67206c6f747465727900000000000000000000000000000000000000000000006020830152604082019050919050565b6000614fee601d83615ccf565b91507f416464726573733a2063616c6c20746f206e6f6e2d636f6e74726163740000006000830152602082019050919050565b600061502e601883615ccf565b91507f4275636b65742072616e67652063616e6e6f74206265203000000000000000006000830152602082019050919050565b600061506e601d83615ccf565b91507f4c6f7474657279206e6f7420696e20737461746520666f72206d696e740000006000830152602082019050919050565b60006150ae601e83615ccf565b91507f54696d657374616d707320666f72206c6f747465727920696e76616c696400006000830152602082019050919050565b60006150ee602a83615ccf565b91507f5361666545524332303a204552433230206f7065726174696f6e20646964206e60008301527f6f742073756363656564000000000000000000000000000000000000000000006020830152604082019050919050565b6000615154601e83615ccf565b91507f57696e6e696e67204e756d62657273206e6f742063686f73656e2079657400006000830152602082019050919050565b6000615194601e83615ccf565b91507f5072697a6520646973747269627574696f6e206973206e6f74203130302500006000830152602082019050919050565b6000610100830160008301516151e0600086018261529c565b5060208301516151f3602086018261471b565b506040830151615206604086018261529c565b506060830151615219606086018261529c565b5060808301518482036080860152615231828261467d565b91505060a083015161524660a086018261529c565b5060c083015161525960c086018261529c565b5060e083015184820360e086015261527182826145c1565b9150508091505092915050565b61528781615d32565b82525050565b61529681615d32565b82525050565b6152a581615d60565b82525050565b6152b481615d60565b82525050565b6152cb6152c682615d60565b615e04565b82525050565b6152da81615dbf565b82525050565b6152e981615d6a565b82525050565b6152f881615d6a565b82525050565b600061530a82846146ea565b915081905092915050565b600061532182856152ba565b60208201915061533182846152ba565b6020820191508190509392505050565b60006020820190506153566000830184614555565b92915050565b60006060820190506153716000830186614546565b61537e6020830185614555565b61538b60408301846152ab565b949350505050565b60006040820190506153a86000830185614546565b6153b5602083018461528d565b9392505050565b60006040820190506153d16000830185614546565b6153de60208301846152ab565b9392505050565b600060a0820190506153fa6000830189614546565b61540760208301886152ab565b61541460408301876152ef565b8181036060830152615427818587614564565b905061543660808301846152ef565b979650505050505050565b60006040820190506154566000830185614546565b61546360208301846152ef565b9392505050565b600060c08201905061547f6000830189614546565b61548c60208301886152ef565b61549960408301876152ef565b6154a660608301866152ef565b6154b360808301856152ef565b6154c060a08301846152ef565b979650505050505050565b60006040820190506154e06000830185614555565b6154ed60208301846152ab565b9392505050565b600060a082019050818103600083015261550e818961461f565b90508181036020830152615523818789614564565b905061553260408301866152ab565b61553f60608301856152ab565b61554c60808301846152ab565b979650505050505050565b60006020820190508181036000830152615571818461472a565b905092915050565b6000602082019050818103600083015261559281614763565b9050919050565b600060208201905081810360008301526155b2816147a3565b9050919050565b600060208201905081810360008301526155d2816147e3565b9050919050565b600060208201905081810360008301526155f281614823565b9050919050565b6000602082019050818103600083015261561281614863565b9050919050565b60006020820190508181036000830152615632816148a3565b9050919050565b6000602082019050818103600083015261565281614909565b9050919050565b6000602082019050818103600083015261567281614949565b9050919050565b6000602082019050818103600083015261569281614989565b9050919050565b600060208201905081810360008301526156b2816149c9565b9050919050565b600060208201905081810360008301526156d281614a09565b9050919050565b600060208201905081810360008301526156f281614a49565b9050919050565b6000602082019050818103600083015261571281614a89565b9050919050565b6000602082019050818103600083015261573281614ac9565b9050919050565b6000602082019050818103600083015261575281614b09565b9050919050565b6000602082019050818103600083015261577281614b49565b9050919050565b6000602082019050818103600083015261579281614baf565b9050919050565b600060208201905081810360008301526157b281614bef565b9050919050565b600060208201905081810360008301526157d281614c2f565b9050919050565b600060208201905081810360008301526157f281614c6f565b9050919050565b6000602082019050818103600083015261581281614caf565b9050919050565b6000602082019050818103600083015261583281614cef565b9050919050565b6000602082019050818103600083015261585281614d2f565b9050919050565b6000602082019050818103600083015261587281614d6f565b9050919050565b6000602082019050818103600083015261589281614daf565b9050919050565b600060208201905081810360008301526158b281614e15565b9050919050565b600060208201905081810360008301526158d281614e55565b9050919050565b600060208201905081810360008301526158f281614e95565b9050919050565b6000602082019050818103600083015261591281614efb565b9050919050565b6000602082019050818103600083015261593281614f3b565b9050919050565b6000602082019050818103600083015261595281614f7b565b9050919050565b6000602082019050818103600083015261597281614fe1565b9050919050565b6000602082019050818103600083015261599281615021565b9050919050565b600060208201905081810360008301526159b281615061565b9050919050565b600060208201905081810360008301526159d2816150a1565b9050919050565b600060208201905081810360008301526159f2816150e1565b9050919050565b60006020820190508181036000830152615a1281615147565b9050919050565b60006020820190508181036000830152615a3281615187565b9050919050565b60006020820190508181036000830152615a5381846151c7565b905092915050565b6000602082019050615a70600083018461528d565b92915050565b6000602082019050615a8b60008301846152ab565b92915050565b6000604082019050615aa660008301856152ab565b615ab360208301846146db565b9392505050565b6000604082019050615acf60008301856152ab565b615adc60208301846152ab565b9392505050565b6000606082019050615af860008301866152ab565b615b0560208301856152ab565b615b1260408301846152ab565b949350505050565b6000604082019050615b2f60008301856152ab565b615b3c60208301846152d1565b9392505050565b6000602082019050615b5860008301846152ef565b92915050565b6000604051905081810181811067ffffffffffffffff82111715615b8157600080fd5b8060405250919050565b600067ffffffffffffffff821115615ba257600080fd5b602082029050602081019050919050565b600067ffffffffffffffff821115615bca57600080fd5b602082029050602081019050919050565b6000819050919050565b6000819050602082019050919050565b6000819050602082019050919050565b6000819050602082019050919050565b600081519050919050565b600081519050919050565b600081519050919050565b600081519050919050565b600081519050919050565b6000602082019050919050565b6000602082019050919050565b6000602082019050919050565b6000602082019050919050565b600082825260208201905092915050565b600082825260208201905092915050565b600082825260208201905092915050565b600082825260208201905092915050565b600081905092915050565b600082825260208201905092915050565b6000615cef6020840184613fe8565b905092915050565b6000615d0282615d40565b9050919050565b60008115159050919050565b6000819050919050565b6000819050615d2d82615e1f565b919050565b600061ffff82169050919050565b600073ffffffffffffffffffffffffffffffffffffffff82169050919050565b6000819050919050565b600060ff82169050919050565b6000615d8282615d9b565b9050919050565b6000615d9482615d1f565b9050919050565b6000615da682615dad565b9050919050565b6000615db882615d40565b9050919050565b6000615dca82615d6a565b9050919050565b60005b83811015615def578082015181840152602081019050615dd4565b83811115615dfe576000848401525b50505050565b6000819050919050565b6000601f19601f8301169050919050565b60048110615e2957fe5b50565b615e3581615cf7565b8114615e4057600080fd5b50565b615e4c81615d09565b8114615e5757600080fd5b50565b615e6381615d15565b8114615e6e57600080fd5b50565b615e7a81615d32565b8114615e8557600080fd5b50565b615e9181615d60565b8114615e9c57600080fd5b50565b615ea881615d6a565b8114615eb357600080fd5b5056fea26469706673582212205999ef8fed5bad9808e1c9eef5bf868a6e4c3c2477cff551dc9618ed8f5b771364736f6c634300060c0033",
          "opcodes": "PUSH1 0x80 PUSH1 0x40 MSTORE CALLVALUE DUP1 ISZERO PUSH3 0x11 JUMPI PUSH1 0x0 DUP1 REVERT JUMPDEST POP PUSH1 0x40 MLOAD PUSH3 0x66CE CODESIZE SUB DUP1 PUSH3 0x66CE DUP4 CODECOPY DUP2 DUP2 ADD PUSH1 0x40 MSTORE DUP2 ADD SWAP1 PUSH3 0x37 SWAP2 SWAP1 PUSH3 0x457 JUMP JUMPDEST DUP8 PUSH1 0x0 PUSH3 0x4A PUSH3 0x40A PUSH1 0x20 SHL PUSH1 0x20 SHR JUMP JUMPDEST SWAP1 POP DUP1 PUSH1 0x0 DUP1 PUSH2 0x100 EXP DUP2 SLOAD DUP2 PUSH20 0xFFFFFFFFFFFFFFFFFFFFFFFFFFFFFFFFFFFFFFFF MUL NOT AND SWAP1 DUP4 PUSH20 0xFFFFFFFFFFFFFFFFFFFFFFFFFFFFFFFFFFFFFFFF AND MUL OR SWAP1 SSTORE POP DUP1 PUSH20 0xFFFFFFFFFFFFFFFFFFFFFFFFFFFFFFFFFFFFFFFF AND PUSH1 0x0 PUSH20 0xFFFFFFFFFFFFFFFFFFFFFFFFFFFFFFFFFFFFFFFF AND PUSH32 0x8BE0079C531659141344CD1FD0A4F28419497F9722A3DAAFE3B4186F6B6457E0 PUSH1 0x40 MLOAD PUSH1 0x40 MLOAD DUP1 SWAP2 SUB SWAP1 LOG3 POP DUP1 PUSH1 0x1 PUSH1 0x0 PUSH2 0x100 EXP DUP2 SLOAD DUP2 PUSH20 0xFFFFFFFFFFFFFFFFFFFFFFFFFFFFFFFFFFFFFFFF MUL NOT AND SWAP1 DUP4 PUSH20 0xFFFFFFFFFFFFFFFFFFFFFFFFFFFFFFFFFFFFFFFF AND MUL OR SWAP1 SSTORE POP POP PUSH1 0x0 DUP6 PUSH1 0xFF AND EQ ISZERO DUP1 ISZERO PUSH3 0x143 JUMPI POP PUSH1 0x0 DUP5 PUSH1 0xFF AND EQ ISZERO JUMPDEST PUSH3 0x185 JUMPI PUSH1 0x40 MLOAD PUSH32 0x8C379A000000000000000000000000000000000000000000000000000000000 DUP2 MSTORE PUSH1 0x4 ADD PUSH3 0x17C SWAP1 PUSH3 0x6E0 JUMP JUMPDEST PUSH1 0x40 MLOAD DUP1 SWAP2 SUB SWAP1 REVERT JUMPDEST DUP4 PUSH1 0xFF AND DUP6 PUSH1 0xFF AND LT PUSH3 0x1D0 JUMPI PUSH1 0x40 MLOAD PUSH32 0x8C379A000000000000000000000000000000000000000000000000000000000 DUP2 MSTORE PUSH1 0x4 ADD PUSH3 0x1C7 SWAP1 PUSH3 0x67A JUMP JUMPDEST PUSH1 0x40 MLOAD DUP1 SWAP2 SUB SWAP1 REVERT JUMPDEST DUP2 PUSH1 0xFF AND DUP4 PUSH1 0xFF AND LT DUP1 ISZERO PUSH3 0x1EB JUMPI POP DUP1 PUSH1 0xFF AND DUP3 PUSH1 0xFF AND LT JUMPDEST PUSH3 0x22D JUMPI PUSH1 0x40 MLOAD PUSH32 0x8C379A000000000000000000000000000000000000000000000000000000000 DUP2 MSTORE PUSH1 0x4 ADD PUSH3 0x224 SWAP1 PUSH3 0x69C JUMP JUMPDEST PUSH1 0x40 MLOAD DUP1 SWAP2 SUB SWAP1 REVERT JUMPDEST PUSH1 0x0 PUSH20 0xFFFFFFFFFFFFFFFFFFFFFFFFFFFFFFFFFFFFFFFF AND DUP10 PUSH20 0xFFFFFFFFFFFFFFFFFFFFFFFFFFFFFFFFFFFFFFFF AND EQ ISZERO PUSH3 0x2A0 JUMPI PUSH1 0x40 MLOAD PUSH32 0x8C379A000000000000000000000000000000000000000000000000000000000 DUP2 MSTORE PUSH1 0x4 ADD PUSH3 0x297 SWAP1 PUSH3 0x6BE JUMP JUMPDEST PUSH1 0x40 MLOAD DUP1 SWAP2 SUB SWAP1 REVERT JUMPDEST PUSH1 0x0 DUP8 PUSH1 0xFF AND EQ ISZERO DUP1 ISZERO PUSH3 0x2BA JUMPI POP PUSH1 0x0 DUP7 PUSH2 0xFFFF AND EQ ISZERO JUMPDEST PUSH3 0x2FC JUMPI PUSH1 0x40 MLOAD PUSH32 0x8C379A000000000000000000000000000000000000000000000000000000000 DUP2 MSTORE PUSH1 0x4 ADD PUSH3 0x2F3 SWAP1 PUSH3 0x702 JUMP JUMPDEST PUSH1 0x40 MLOAD DUP1 SWAP2 SUB SWAP1 REVERT JUMPDEST DUP9 PUSH1 0x2 PUSH1 0x0 PUSH2 0x100 EXP DUP2 SLOAD DUP2 PUSH20 0xFFFFFFFFFFFFFFFFFFFFFFFFFFFFFFFFFFFFFFFF MUL NOT AND SWAP1 DUP4 PUSH20 0xFFFFFFFFFFFFFFFFFFFFFFFFFFFFFFFFFFFFFFFF AND MUL OR SWAP1 SSTORE POP DUP7 PUSH1 0x7 PUSH1 0x0 PUSH2 0x100 EXP DUP2 SLOAD DUP2 PUSH1 0xFF MUL NOT AND SWAP1 DUP4 PUSH1 0xFF AND MUL OR SWAP1 SSTORE POP DUP6 PUSH1 0x7 PUSH1 0x1 PUSH2 0x100 EXP DUP2 SLOAD DUP2 PUSH2 0xFFFF MUL NOT AND SWAP1 DUP4 PUSH2 0xFFFF AND MUL OR SWAP1 SSTORE POP DUP5 PUSH1 0x7 PUSH1 0x3 PUSH2 0x100 EXP DUP2 SLOAD DUP2 PUSH1 0xFF MUL NOT AND SWAP1 DUP4 PUSH1 0xFF AND MUL OR SWAP1 SSTORE POP DUP4 PUSH1 0x7 PUSH1 0x4 PUSH2 0x100 EXP DUP2 SLOAD DUP2 PUSH1 0xFF MUL NOT AND SWAP1 DUP4 PUSH1 0xFF AND MUL OR SWAP1 SSTORE POP DUP3 PUSH1 0x7 PUSH1 0x5 PUSH2 0x100 EXP DUP2 SLOAD DUP2 PUSH1 0xFF MUL NOT AND SWAP1 DUP4 PUSH1 0xFF AND MUL OR SWAP1 SSTORE POP DUP2 PUSH1 0x7 PUSH1 0x6 PUSH2 0x100 EXP DUP2 SLOAD DUP2 PUSH1 0xFF MUL NOT AND SWAP1 DUP4 PUSH1 0xFF AND MUL OR SWAP1 SSTORE POP DUP1 PUSH1 0x7 DUP1 PUSH2 0x100 EXP DUP2 SLOAD DUP2 PUSH1 0xFF MUL NOT AND SWAP1 DUP4 PUSH1 0xFF AND MUL OR SWAP1 SSTORE POP POP POP POP POP POP POP POP POP POP PUSH3 0x7D2 JUMP JUMPDEST PUSH1 0x0 CALLER SWAP1 POP SWAP1 JUMP JUMPDEST PUSH1 0x0 DUP2 MLOAD SWAP1 POP PUSH3 0x423 DUP2 PUSH3 0x784 JUMP JUMPDEST SWAP3 SWAP2 POP POP JUMP JUMPDEST PUSH1 0x0 DUP2 MLOAD SWAP1 POP PUSH3 0x43A DUP2 PUSH3 0x79E JUMP JUMPDEST SWAP3 SWAP2 POP POP JUMP JUMPDEST PUSH1 0x0 DUP2 MLOAD SWAP1 POP PUSH3 0x451 DUP2 PUSH3 0x7B8 JUMP JUMPDEST SWAP3 SWAP2 POP POP JUMP JUMPDEST PUSH1 0x0 DUP1 PUSH1 0x0 DUP1 PUSH1 0x0 DUP1 PUSH1 0x0 DUP1 PUSH1 0x0 PUSH2 0x120 DUP11 DUP13 SUB SLT ISZERO PUSH3 0x477 JUMPI PUSH1 0x0 DUP1 REVERT JUMPDEST PUSH1 0x0 PUSH3 0x487 DUP13 DUP3 DUP14 ADD PUSH3 0x412 JUMP JUMPDEST SWAP10 POP POP PUSH1 0x20 PUSH3 0x49A DUP13 DUP3 DUP14 ADD PUSH3 0x412 JUMP JUMPDEST SWAP9 POP POP PUSH1 0x40 PUSH3 0x4AD DUP13 DUP3 DUP14 ADD PUSH3 0x440 JUMP JUMPDEST SWAP8 POP POP PUSH1 0x60 PUSH3 0x4C0 DUP13 DUP3 DUP14 ADD PUSH3 0x429 JUMP JUMPDEST SWAP7 POP POP PUSH1 0x80 PUSH3 0x4D3 DUP13 DUP3 DUP14 ADD PUSH3 0x440 JUMP JUMPDEST SWAP6 POP POP PUSH1 0xA0 PUSH3 0x4E6 DUP13 DUP3 DUP14 ADD PUSH3 0x440 JUMP JUMPDEST SWAP5 POP POP PUSH1 0xC0 PUSH3 0x4F9 DUP13 DUP3 DUP14 ADD PUSH3 0x440 JUMP JUMPDEST SWAP4 POP POP PUSH1 0xE0 PUSH3 0x50C DUP13 DUP3 DUP14 ADD PUSH3 0x440 JUMP JUMPDEST SWAP3 POP POP PUSH2 0x100 PUSH3 0x520 DUP13 DUP3 DUP14 ADD PUSH3 0x440 JUMP JUMPDEST SWAP2 POP POP SWAP3 SWAP6 SWAP9 POP SWAP3 SWAP6 SWAP9 POP SWAP3 SWAP6 SWAP9 JUMP JUMPDEST PUSH1 0x0 PUSH3 0x53F PUSH1 0x1A DUP4 PUSH3 0x724 JUMP JUMPDEST SWAP2 POP PUSH32 0x4275636B6574206F6E65206D75737420626520736D616C6C6572000000000000 PUSH1 0x0 DUP4 ADD MSTORE PUSH1 0x20 DUP3 ADD SWAP1 POP SWAP2 SWAP1 POP JUMP JUMPDEST PUSH1 0x0 PUSH3 0x581 PUSH1 0x17 DUP4 PUSH3 0x724 JUMP JUMPDEST SWAP2 POP PUSH32 0x446973636F756E7473206D75737420696E637265617365000000000000000000 PUSH1 0x0 DUP4 ADD MSTORE PUSH1 0x20 DUP3 ADD SWAP1 POP SWAP2 SWAP1 POP JUMP JUMPDEST PUSH1 0x0 PUSH3 0x5C3 PUSH1 0x1D DUP4 PUSH3 0x724 JUMP JUMPDEST SWAP2 POP PUSH32 0x436F6E7472616374732063616E6E6F7420626520302061646472657373000000 PUSH1 0x0 DUP4 ADD MSTORE PUSH1 0x20 DUP3 ADD SWAP1 POP SWAP2 SWAP1 POP JUMP JUMPDEST PUSH1 0x0 PUSH3 0x605 PUSH1 0x18 DUP4 PUSH3 0x724 JUMP JUMPDEST SWAP2 POP PUSH32 0x4275636B65742072616E67652063616E6E6F7420626520300000000000000000 PUSH1 0x0 DUP4 ADD MSTORE PUSH1 0x20 DUP3 ADD SWAP1 POP SWAP2 SWAP1 POP JUMP JUMPDEST PUSH1 0x0 PUSH3 0x647 PUSH1 0x19 DUP4 PUSH3 0x724 JUMP JUMPDEST SWAP2 POP PUSH32 0x4C6F74746572792073657475702063616E6E6F74206265203000000000000000 PUSH1 0x0 DUP4 ADD MSTORE PUSH1 0x20 DUP3 ADD SWAP1 POP SWAP2 SWAP1 POP JUMP JUMPDEST PUSH1 0x0 PUSH1 0x20 DUP3 ADD SWAP1 POP DUP2 DUP2 SUB PUSH1 0x0 DUP4 ADD MSTORE PUSH3 0x695 DUP2 PUSH3 0x530 JUMP JUMPDEST SWAP1 POP SWAP2 SWAP1 POP JUMP JUMPDEST PUSH1 0x0 PUSH1 0x20 DUP3 ADD SWAP1 POP DUP2 DUP2 SUB PUSH1 0x0 DUP4 ADD MSTORE PUSH3 0x6B7 DUP2 PUSH3 0x572 JUMP JUMPDEST SWAP1 POP SWAP2 SWAP1 POP JUMP JUMPDEST PUSH1 0x0 PUSH1 0x20 DUP3 ADD SWAP1 POP DUP2 DUP2 SUB PUSH1 0x0 DUP4 ADD MSTORE PUSH3 0x6D9 DUP2 PUSH3 0x5B4 JUMP JUMPDEST SWAP1 POP SWAP2 SWAP1 POP JUMP JUMPDEST PUSH1 0x0 PUSH1 0x20 DUP3 ADD SWAP1 POP DUP2 DUP2 SUB PUSH1 0x0 DUP4 ADD MSTORE PUSH3 0x6FB DUP2 PUSH3 0x5F6 JUMP JUMPDEST SWAP1 POP SWAP2 SWAP1 POP JUMP JUMPDEST PUSH1 0x0 PUSH1 0x20 DUP3 ADD SWAP1 POP DUP2 DUP2 SUB PUSH1 0x0 DUP4 ADD MSTORE PUSH3 0x71D DUP2 PUSH3 0x638 JUMP JUMPDEST SWAP1 POP SWAP2 SWAP1 POP JUMP JUMPDEST PUSH1 0x0 DUP3 DUP3 MSTORE PUSH1 0x20 DUP3 ADD SWAP1 POP SWAP3 SWAP2 POP POP JUMP JUMPDEST PUSH1 0x0 PUSH3 0x742 DUP3 PUSH3 0x757 JUMP JUMPDEST SWAP1 POP SWAP2 SWAP1 POP JUMP JUMPDEST PUSH1 0x0 PUSH2 0xFFFF DUP3 AND SWAP1 POP SWAP2 SWAP1 POP JUMP JUMPDEST PUSH1 0x0 PUSH20 0xFFFFFFFFFFFFFFFFFFFFFFFFFFFFFFFFFFFFFFFF DUP3 AND SWAP1 POP SWAP2 SWAP1 POP JUMP JUMPDEST PUSH1 0x0 PUSH1 0xFF DUP3 AND SWAP1 POP SWAP2 SWAP1 POP JUMP JUMPDEST PUSH3 0x78F DUP2 PUSH3 0x735 JUMP JUMPDEST DUP2 EQ PUSH3 0x79B JUMPI PUSH1 0x0 DUP1 REVERT JUMPDEST POP JUMP JUMPDEST PUSH3 0x7A9 DUP2 PUSH3 0x749 JUMP JUMPDEST DUP2 EQ PUSH3 0x7B5 JUMPI PUSH1 0x0 DUP1 REVERT JUMPDEST POP JUMP JUMPDEST PUSH3 0x7C3 DUP2 PUSH3 0x777 JUMP JUMPDEST DUP2 EQ PUSH3 0x7CF JUMPI PUSH1 0x0 DUP1 REVERT JUMPDEST POP JUMP JUMPDEST PUSH2 0x5EEC DUP1 PUSH3 0x7E2 PUSH1 0x0 CODECOPY PUSH1 0x0 RETURN INVALID PUSH1 0x80 PUSH1 0x40 MSTORE CALLVALUE DUP1 ISZERO PUSH2 0x10 JUMPI PUSH1 0x0 DUP1 REVERT JUMPDEST POP PUSH1 0x4 CALLDATASIZE LT PUSH2 0x1C4 JUMPI PUSH1 0x0 CALLDATALOAD PUSH1 0xE0 SHR DUP1 PUSH4 0x8BE852B1 GT PUSH2 0xF9 JUMPI DUP1 PUSH4 0xCED5A63F GT PUSH2 0x97 JUMPI DUP1 PUSH4 0xDCCDA096 GT PUSH2 0x71 JUMPI DUP1 PUSH4 0xDCCDA096 EQ PUSH2 0x4A7 JUMPI DUP1 PUSH4 0xE59BBAB5 EQ PUSH2 0x4D9 JUMPI DUP1 PUSH4 0xE97FC162 EQ PUSH2 0x4F7 JUMPI DUP1 PUSH4 0xF2FDE38B EQ PUSH2 0x513 JUMPI PUSH2 0x1C4 JUMP JUMPDEST DUP1 PUSH4 0xCED5A63F EQ PUSH2 0x43F JUMPI DUP1 PUSH4 0xD062B57C EQ PUSH2 0x45B JUMPI DUP1 PUSH4 0xDA476755 EQ PUSH2 0x477 JUMPI PUSH2 0x1C4 JUMP JUMPDEST DUP1 PUSH4 0x9C216602 GT PUSH2 0xD3 JUMPI DUP1 PUSH4 0x9C216602 EQ PUSH2 0x3C9 JUMPI DUP1 PUSH4 0xA624AA1B EQ PUSH2 0x3E7 JUMPI DUP1 PUSH4 0xADD5EDF0 EQ PUSH2 0x405 JUMPI DUP1 PUSH4 0xC8CFD902 EQ PUSH2 0x423 JUMPI PUSH2 0x1C4 JUMP JUMPDEST DUP1 PUSH4 0x8BE852B1 EQ PUSH2 0x371 JUMPI DUP1 PUSH4 0x8DA5CB5B EQ PUSH2 0x38F JUMPI DUP1 PUSH4 0x91A28CDD EQ PUSH2 0x3AD JUMPI PUSH2 0x1C4 JUMP JUMPDEST DUP1 PUSH4 0x3C309FE7 GT PUSH2 0x166 JUMPI DUP1 PUSH4 0x715018A6 GT PUSH2 0x140 JUMPI DUP1 PUSH4 0x715018A6 EQ PUSH2 0x2FF JUMPI DUP1 PUSH4 0x76674B8F EQ PUSH2 0x309 JUMPI DUP1 PUSH4 0x8324F7C5 EQ PUSH2 0x325 JUMPI DUP1 PUSH4 0x86BB8F37 EQ PUSH2 0x355 JUMPI PUSH2 0x1C4 JUMP JUMPDEST DUP1 PUSH4 0x3C309FE7 EQ PUSH2 0x295 JUMPI DUP1 PUSH4 0x485CC955 EQ PUSH2 0x2B3 JUMPI DUP1 PUSH4 0x4F7D93DB EQ PUSH2 0x2CF JUMPI PUSH2 0x1C4 JUMP JUMPDEST DUP1 PUSH4 0x1C39C38D GT PUSH2 0x1A2 JUMPI DUP1 PUSH4 0x1C39C38D EQ PUSH2 0x21F JUMPI DUP1 PUSH4 0x22F8E566 EQ PUSH2 0x23D JUMPI DUP1 PUSH4 0x29CB924D EQ PUSH2 0x259 JUMPI DUP1 PUSH4 0x350D9251 EQ PUSH2 0x277 JUMPI PUSH2 0x1C4 JUMP JUMPDEST DUP1 PUSH4 0x75DC415 EQ PUSH2 0x1C9 JUMPI DUP1 PUSH4 0x773AA46 EQ PUSH2 0x1E7 JUMPI DUP1 PUSH4 0xDABC1D4 EQ PUSH2 0x203 JUMPI JUMPDEST PUSH1 0x0 DUP1 REVERT JUMPDEST PUSH2 0x1D1 PUSH2 0x52F JUMP JUMPDEST PUSH1 0x40 MLOAD PUSH2 0x1DE SWAP2 SWAP1 PUSH2 0x5B43 JUMP JUMPDEST PUSH1 0x40 MLOAD DUP1 SWAP2 SUB SWAP1 RETURN JUMPDEST PUSH2 0x201 PUSH1 0x4 DUP1 CALLDATASIZE SUB DUP2 ADD SWAP1 PUSH2 0x1FC SWAP2 SWAP1 PUSH2 0x445E JUMP JUMPDEST PUSH2 0x542 JUMP JUMPDEST STOP JUMPDEST PUSH2 0x21D PUSH1 0x4 DUP1 CALLDATASIZE SUB DUP2 ADD SWAP1 PUSH2 0x218 SWAP2 SWAP1 PUSH2 0x4367 JUMP JUMPDEST PUSH2 0x6C3 JUMP JUMPDEST STOP JUMPDEST PUSH2 0x227 PUSH2 0x947 JUMP JUMPDEST PUSH1 0x40 MLOAD PUSH2 0x234 SWAP2 SWAP1 PUSH2 0x5341 JUMP JUMPDEST PUSH1 0x40 MLOAD DUP1 SWAP2 SUB SWAP1 RETURN JUMPDEST PUSH2 0x257 PUSH1 0x4 DUP1 CALLDATASIZE SUB DUP2 ADD SWAP1 PUSH2 0x252 SWAP2 SWAP1 PUSH2 0x426E JUMP JUMPDEST PUSH2 0x96D JUMP JUMPDEST STOP JUMPDEST PUSH2 0x261 PUSH2 0xA59 JUMP JUMPDEST PUSH1 0x40 MLOAD PUSH2 0x26E SWAP2 SWAP1 PUSH2 0x5A76 JUMP JUMPDEST PUSH1 0x40 MLOAD DUP1 SWAP2 SUB SWAP1 RETURN JUMPDEST PUSH2 0x27F PUSH2 0xB5E JUMP JUMPDEST PUSH1 0x40 MLOAD PUSH2 0x28C SWAP2 SWAP1 PUSH2 0x5B43 JUMP JUMPDEST PUSH1 0x40 MLOAD DUP1 SWAP2 SUB SWAP1 RETURN JUMPDEST PUSH2 0x29D PUSH2 0xB71 JUMP JUMPDEST PUSH1 0x40 MLOAD PUSH2 0x2AA SWAP2 SWAP1 PUSH2 0x5B43 JUMP JUMPDEST PUSH1 0x40 MLOAD DUP1 SWAP2 SUB SWAP1 RETURN JUMPDEST PUSH2 0x2CD PUSH1 0x4 DUP1 CALLDATASIZE SUB DUP2 ADD SWAP1 PUSH2 0x2C8 SWAP2 SWAP1 PUSH2 0x40A3 JUMP JUMPDEST PUSH2 0xB84 JUMP JUMPDEST STOP JUMPDEST PUSH2 0x2E9 PUSH1 0x4 DUP1 CALLDATASIZE SUB DUP2 ADD SWAP1 PUSH2 0x2E4 SWAP2 SWAP1 PUSH2 0x4367 JUMP JUMPDEST PUSH2 0xE18 JUMP JUMPDEST PUSH1 0x40 MLOAD PUSH2 0x2F6 SWAP2 SWAP1 PUSH2 0x5A76 JUMP JUMPDEST PUSH1 0x40 MLOAD DUP1 SWAP2 SUB SWAP1 RETURN JUMPDEST PUSH2 0x307 PUSH2 0xE50 JUMP JUMPDEST STOP JUMPDEST PUSH2 0x323 PUSH1 0x4 DUP1 CALLDATASIZE SUB DUP2 ADD SWAP1 PUSH2 0x31E SWAP2 SWAP1 PUSH2 0x42C0 JUMP JUMPDEST PUSH2 0xF8A JUMP JUMPDEST STOP JUMPDEST PUSH2 0x33F PUSH1 0x4 DUP1 CALLDATASIZE SUB DUP2 ADD SWAP1 PUSH2 0x33A SWAP2 SWAP1 PUSH2 0x4161 JUMP JUMPDEST PUSH2 0x169E JUMP JUMPDEST PUSH1 0x40 MLOAD PUSH2 0x34C SWAP2 SWAP1 PUSH2 0x5A76 JUMP JUMPDEST PUSH1 0x40 MLOAD DUP1 SWAP2 SUB SWAP1 RETURN JUMPDEST PUSH2 0x36F PUSH1 0x4 DUP1 CALLDATASIZE SUB DUP2 ADD SWAP1 PUSH2 0x36A SWAP2 SWAP1 PUSH2 0x4367 JUMP JUMPDEST PUSH2 0x1B69 JUMP JUMPDEST STOP JUMPDEST PUSH2 0x379 PUSH2 0x2104 JUMP JUMPDEST PUSH1 0x40 MLOAD PUSH2 0x386 SWAP2 SWAP1 PUSH2 0x5B43 JUMP JUMPDEST PUSH1 0x40 MLOAD DUP1 SWAP2 SUB SWAP1 RETURN JUMPDEST PUSH2 0x397 PUSH2 0x2117 JUMP JUMPDEST PUSH1 0x40 MLOAD PUSH2 0x3A4 SWAP2 SWAP1 PUSH2 0x5341 JUMP JUMPDEST PUSH1 0x40 MLOAD DUP1 SWAP2 SUB SWAP1 RETURN JUMPDEST PUSH2 0x3C7 PUSH1 0x4 DUP1 CALLDATASIZE SUB DUP2 ADD SWAP1 PUSH2 0x3C2 SWAP2 SWAP1 PUSH2 0x4487 JUMP JUMPDEST PUSH2 0x2140 JUMP JUMPDEST STOP JUMPDEST PUSH2 0x3D1 PUSH2 0x2382 JUMP JUMPDEST PUSH1 0x40 MLOAD PUSH2 0x3DE SWAP2 SWAP1 PUSH2 0x5B43 JUMP JUMPDEST PUSH1 0x40 MLOAD DUP1 SWAP2 SUB SWAP1 RETURN JUMPDEST PUSH2 0x3EF PUSH2 0x2393 JUMP JUMPDEST PUSH1 0x40 MLOAD PUSH2 0x3FC SWAP2 SWAP1 PUSH2 0x5A5B JUMP JUMPDEST PUSH1 0x40 MLOAD DUP1 SWAP2 SUB SWAP1 RETURN JUMPDEST PUSH2 0x40D PUSH2 0x23A7 JUMP JUMPDEST PUSH1 0x40 MLOAD PUSH2 0x41A SWAP2 SWAP1 PUSH2 0x5B43 JUMP JUMPDEST PUSH1 0x40 MLOAD DUP1 SWAP2 SUB SWAP1 RETURN JUMPDEST PUSH2 0x43D PUSH1 0x4 DUP1 CALLDATASIZE SUB DUP2 ADD SWAP1 PUSH2 0x438 SWAP2 SWAP1 PUSH2 0x43F2 JUMP JUMPDEST PUSH2 0x23BA JUMP JUMPDEST STOP JUMPDEST PUSH2 0x459 PUSH1 0x4 DUP1 CALLDATASIZE SUB DUP2 ADD SWAP1 PUSH2 0x454 SWAP2 SWAP1 PUSH2 0x426E JUMP JUMPDEST PUSH2 0x2994 JUMP JUMPDEST STOP JUMPDEST PUSH2 0x475 PUSH1 0x4 DUP1 CALLDATASIZE SUB DUP2 ADD SWAP1 PUSH2 0x470 SWAP2 SWAP1 PUSH2 0x4245 JUMP JUMPDEST PUSH2 0x2AC3 JUMP JUMPDEST STOP JUMPDEST PUSH2 0x491 PUSH1 0x4 DUP1 CALLDATASIZE SUB DUP2 ADD SWAP1 PUSH2 0x48C SWAP2 SWAP1 PUSH2 0x426E JUMP JUMPDEST PUSH2 0x2C4B JUMP JUMPDEST PUSH1 0x40 MLOAD PUSH2 0x49E SWAP2 SWAP1 PUSH2 0x5A39 JUMP JUMPDEST PUSH1 0x40 MLOAD DUP1 SWAP2 SUB SWAP1 RETURN JUMPDEST PUSH2 0x4C1 PUSH1 0x4 DUP1 CALLDATASIZE SUB DUP2 ADD SWAP1 PUSH2 0x4BC SWAP2 SWAP1 PUSH2 0x4367 JUMP JUMPDEST PUSH2 0x2DD6 JUMP JUMPDEST PUSH1 0x40 MLOAD PUSH2 0x4D0 SWAP4 SWAP3 SWAP2 SWAP1 PUSH2 0x5AE3 JUMP JUMPDEST PUSH1 0x40 MLOAD DUP1 SWAP2 SUB SWAP1 RETURN JUMPDEST PUSH2 0x4E1 PUSH2 0x2E90 JUMP JUMPDEST PUSH1 0x40 MLOAD PUSH2 0x4EE SWAP2 SWAP1 PUSH2 0x5A5B JUMP JUMPDEST PUSH1 0x40 MLOAD DUP1 SWAP2 SUB SWAP1 RETURN JUMPDEST PUSH2 0x511 PUSH1 0x4 DUP1 CALLDATASIZE SUB DUP2 ADD SWAP1 PUSH2 0x50C SWAP2 SWAP1 PUSH2 0x4318 JUMP JUMPDEST PUSH2 0x2EA8 JUMP JUMPDEST STOP JUMPDEST PUSH2 0x52D PUSH1 0x4 DUP1 CALLDATASIZE SUB DUP2 ADD SWAP1 PUSH2 0x528 SWAP2 SWAP1 PUSH2 0x4051 JUMP JUMPDEST PUSH2 0x3107 JUMP JUMPDEST STOP JUMPDEST PUSH1 0x7 PUSH1 0x0 SWAP1 SLOAD SWAP1 PUSH2 0x100 EXP SWAP1 DIV PUSH1 0xFF AND DUP2 JUMP JUMPDEST PUSH2 0x54A PUSH2 0x32B0 JUMP JUMPDEST PUSH20 0xFFFFFFFFFFFFFFFFFFFFFFFFFFFFFFFFFFFFFFFF AND PUSH2 0x568 PUSH2 0x2117 JUMP JUMPDEST PUSH20 0xFFFFFFFFFFFFFFFFFFFFFFFFFFFFFFFFFFFFFFFF AND EQ PUSH2 0x5BE JUMPI PUSH1 0x40 MLOAD PUSH32 0x8C379A000000000000000000000000000000000000000000000000000000000 DUP2 MSTORE PUSH1 0x4 ADD PUSH2 0x5B5 SWAP1 PUSH2 0x58F9 JUMP JUMPDEST PUSH1 0x40 MLOAD DUP1 SWAP2 SUB SWAP1 REVERT JUMPDEST DUP1 PUSH1 0xFF AND PUSH1 0x7 PUSH1 0x0 SWAP1 SLOAD SWAP1 PUSH2 0x100 EXP SWAP1 DIV PUSH1 0xFF AND PUSH1 0xFF AND EQ ISZERO PUSH2 0x616 JUMPI PUSH1 0x40 MLOAD PUSH32 0x8C379A000000000000000000000000000000000000000000000000000000000 DUP2 MSTORE PUSH1 0x4 ADD PUSH2 0x60D SWAP1 PUSH2 0x5819 JUMP JUMPDEST PUSH1 0x40 MLOAD DUP1 SWAP2 SUB SWAP1 REVERT JUMPDEST PUSH1 0x0 PUSH1 0x7 PUSH1 0x0 SWAP1 SLOAD SWAP1 PUSH2 0x100 EXP SWAP1 DIV PUSH1 0xFF AND PUSH1 0xFF AND EQ ISZERO PUSH2 0x66C JUMPI PUSH1 0x40 MLOAD PUSH32 0x8C379A000000000000000000000000000000000000000000000000000000000 DUP2 MSTORE PUSH1 0x4 ADD PUSH2 0x663 SWAP1 PUSH2 0x56D9 JUMP JUMPDEST PUSH1 0x40 MLOAD DUP1 SWAP2 SUB SWAP1 REVERT JUMPDEST DUP1 PUSH1 0x7 PUSH1 0x0 PUSH2 0x100 EXP DUP2 SLOAD DUP2 PUSH1 0xFF MUL NOT AND SWAP1 DUP4 PUSH1 0xFF AND MUL OR SWAP1 SSTORE POP PUSH32 0x390CE0AE29F1F6D8A7BE889544606CB23B660DD44710ECBE1408AAED6356EBA3 CALLER DUP3 PUSH1 0x40 MLOAD PUSH2 0x6B8 SWAP3 SWAP2 SWAP1 PUSH2 0x5441 JUMP JUMPDEST PUSH1 0x40 MLOAD DUP1 SWAP2 SUB SWAP1 LOG1 POP JUMP JUMPDEST PUSH2 0x6CB PUSH2 0x32B0 JUMP JUMPDEST PUSH20 0xFFFFFFFFFFFFFFFFFFFFFFFFFFFFFFFFFFFFFFFF AND PUSH2 0x6E9 PUSH2 0x2117 JUMP JUMPDEST PUSH20 0xFFFFFFFFFFFFFFFFFFFFFFFFFFFFFFFFFFFFFFFF AND EQ PUSH2 0x73F JUMPI PUSH1 0x40 MLOAD PUSH32 0x8C379A000000000000000000000000000000000000000000000000000000000 DUP2 MSTORE PUSH1 0x4 ADD PUSH2 0x736 SWAP1 PUSH2 0x58F9 JUMP JUMPDEST PUSH1 0x40 MLOAD DUP1 SWAP2 SUB SWAP1 REVERT JUMPDEST PUSH2 0x747 PUSH2 0xA59 JUMP JUMPDEST PUSH1 0x8 PUSH1 0x0 DUP5 DUP2 MSTORE PUSH1 0x20 ADD SWAP1 DUP2 MSTORE PUSH1 0x20 ADD PUSH1 0x0 KECCAK256 PUSH1 0x6 ADD SLOAD GT ISZERO PUSH2 0x79F JUMPI PUSH1 0x40 MLOAD PUSH32 0x8C379A000000000000000000000000000000000000000000000000000000000 DUP2 MSTORE PUSH1 0x4 ADD PUSH2 0x796 SWAP1 PUSH2 0x5939 JUMP JUMPDEST PUSH1 0x40 MLOAD DUP1 SWAP2 SUB SWAP1 REVERT JUMPDEST PUSH1 0x1 PUSH1 0x3 DUP2 GT ISZERO PUSH2 0x7AC JUMPI INVALID JUMPDEST PUSH1 0x8 PUSH1 0x0 DUP5 DUP2 MSTORE PUSH1 0x20 ADD SWAP1 DUP2 MSTORE PUSH1 0x20 ADD PUSH1 0x0 KECCAK256 PUSH1 0x1 ADD PUSH1 0x0 SWAP1 SLOAD SWAP1 PUSH2 0x100 EXP SWAP1 DIV PUSH1 0xFF AND PUSH1 0x3 DUP2 GT ISZERO PUSH2 0x7DB JUMPI INVALID JUMPDEST EQ PUSH2 0x81B JUMPI PUSH1 0x40 MLOAD PUSH32 0x8C379A000000000000000000000000000000000000000000000000000000000 DUP2 MSTORE PUSH1 0x4 ADD PUSH2 0x812 SWAP1 PUSH2 0x5779 JUMP JUMPDEST PUSH1 0x40 MLOAD DUP1 SWAP2 SUB SWAP1 REVERT JUMPDEST PUSH1 0x2 PUSH1 0x8 PUSH1 0x0 DUP5 DUP2 MSTORE PUSH1 0x20 ADD SWAP1 DUP2 MSTORE PUSH1 0x20 ADD PUSH1 0x0 KECCAK256 PUSH1 0x1 ADD PUSH1 0x0 PUSH2 0x100 EXP DUP2 SLOAD DUP2 PUSH1 0xFF MUL NOT AND SWAP1 DUP4 PUSH1 0x3 DUP2 GT ISZERO PUSH2 0x84E JUMPI INVALID JUMPDEST MUL OR SWAP1 SSTORE POP PUSH1 0x4 PUSH1 0x0 SWAP1 SLOAD SWAP1 PUSH2 0x100 EXP SWAP1 DIV PUSH20 0xFFFFFFFFFFFFFFFFFFFFFFFFFFFFFFFFFFFFFFFF AND PUSH20 0xFFFFFFFFFFFFFFFFFFFFFFFFFFFFFFFFFFFFFFFF AND PUSH4 0x6E68FC0A DUP4 DUP4 PUSH1 0x40 MLOAD DUP4 PUSH4 0xFFFFFFFF AND PUSH1 0xE0 SHL DUP2 MSTORE PUSH1 0x4 ADD PUSH2 0x8B0 SWAP3 SWAP2 SWAP1 PUSH2 0x5ABA JUMP JUMPDEST PUSH1 0x20 PUSH1 0x40 MLOAD DUP1 DUP4 SUB DUP2 PUSH1 0x0 DUP8 DUP1 EXTCODESIZE ISZERO DUP1 ISZERO PUSH2 0x8CA JUMPI PUSH1 0x0 DUP1 REVERT JUMPDEST POP GAS CALL ISZERO DUP1 ISZERO PUSH2 0x8DE JUMPI RETURNDATASIZE PUSH1 0x0 DUP1 RETURNDATACOPY RETURNDATASIZE PUSH1 0x0 REVERT JUMPDEST POP POP POP POP PUSH1 0x40 MLOAD RETURNDATASIZE PUSH1 0x1F NOT PUSH1 0x1F DUP3 ADD AND DUP3 ADD DUP1 PUSH1 0x40 MSTORE POP DUP2 ADD SWAP1 PUSH2 0x902 SWAP2 SWAP1 PUSH2 0x421C JUMP JUMPDEST PUSH1 0x5 DUP2 SWAP1 SSTORE POP PUSH32 0xF8CDF8355A0F31BBAD8998A631F5A75DCB3E475A010B34A111ED105FE88E751A DUP3 PUSH1 0x5 SLOAD PUSH1 0x40 MLOAD PUSH2 0x93B SWAP3 SWAP2 SWAP1 PUSH2 0x5A91 JUMP JUMPDEST PUSH1 0x40 MLOAD DUP1 SWAP2 SUB SWAP1 LOG1 POP POP JUMP JUMPDEST PUSH1 0x1 PUSH1 0x0 SWAP1 SLOAD SWAP1 PUSH2 0x100 EXP SWAP1 DIV PUSH20 0xFFFFFFFFFFFFFFFFFFFFFFFFFFFFFFFFFFFFFFFF AND DUP2 JUMP JUMPDEST PUSH1 0x0 PUSH20 0xFFFFFFFFFFFFFFFFFFFFFFFFFFFFFFFFFFFFFFFF AND PUSH1 0x1 PUSH1 0x0 SWAP1 SLOAD SWAP1 PUSH2 0x100 EXP SWAP1 DIV PUSH20 0xFFFFFFFFFFFFFFFFFFFFFFFFFFFFFFFFFFFFFFFF AND PUSH20 0xFFFFFFFFFFFFFFFFFFFFFFFFFFFFFFFFFFFFFFFF AND EQ ISZERO PUSH2 0x9C9 JUMPI PUSH1 0x0 DUP1 REVERT JUMPDEST PUSH1 0x1 PUSH1 0x0 SWAP1 SLOAD SWAP1 PUSH2 0x100 EXP SWAP1 DIV PUSH20 0xFFFFFFFFFFFFFFFFFFFFFFFFFFFFFFFFFFFFFFFF AND PUSH20 0xFFFFFFFFFFFFFFFFFFFFFFFFFFFFFFFFFFFFFFFF AND PUSH4 0x22F8E566 DUP3 PUSH1 0x40 MLOAD DUP3 PUSH4 0xFFFFFFFF AND PUSH1 0xE0 SHL DUP2 MSTORE PUSH1 0x4 ADD PUSH2 0xA24 SWAP2 SWAP1 PUSH2 0x5A76 JUMP JUMPDEST PUSH1 0x0 PUSH1 0x40 MLOAD DUP1 DUP4 SUB DUP2 PUSH1 0x0 DUP8 DUP1 EXTCODESIZE ISZERO DUP1 ISZERO PUSH2 0xA3E JUMPI PUSH1 0x0 DUP1 REVERT JUMPDEST POP GAS CALL ISZERO DUP1 ISZERO PUSH2 0xA52 JUMPI RETURNDATASIZE PUSH1 0x0 DUP1 RETURNDATACOPY RETURNDATASIZE PUSH1 0x0 REVERT JUMPDEST POP POP POP POP POP JUMP JUMPDEST PUSH1 0x0 DUP1 PUSH20 0xFFFFFFFFFFFFFFFFFFFFFFFFFFFFFFFFFFFFFFFF AND PUSH1 0x1 PUSH1 0x0 SWAP1 SLOAD SWAP1 PUSH2 0x100 EXP SWAP1 DIV PUSH20 0xFFFFFFFFFFFFFFFFFFFFFFFFFFFFFFFFFFFFFFFF AND PUSH20 0xFFFFFFFFFFFFFFFFFFFFFFFFFFFFFFFFFFFFFFFF AND EQ PUSH2 0xB57 JUMPI PUSH1 0x1 PUSH1 0x0 SWAP1 SLOAD SWAP1 PUSH2 0x100 EXP SWAP1 DIV PUSH20 0xFFFFFFFFFFFFFFFFFFFFFFFFFFFFFFFFFFFFFFFF AND PUSH20 0xFFFFFFFFFFFFFFFFFFFFFFFFFFFFFFFFFFFFFFFF AND PUSH4 0x29CB924D PUSH1 0x40 MLOAD DUP2 PUSH4 0xFFFFFFFF AND PUSH1 0xE0 SHL DUP2 MSTORE PUSH1 0x4 ADD PUSH1 0x20 PUSH1 0x40 MLOAD DUP1 DUP4 SUB DUP2 DUP7 DUP1 EXTCODESIZE ISZERO DUP1 ISZERO PUSH2 0xB18 JUMPI PUSH1 0x0 DUP1 REVERT JUMPDEST POP GAS STATICCALL ISZERO DUP1 ISZERO PUSH2 0xB2C JUMPI RETURNDATASIZE PUSH1 0x0 DUP1 RETURNDATACOPY RETURNDATASIZE PUSH1 0x0 REVERT JUMPDEST POP POP POP POP PUSH1 0x40 MLOAD RETURNDATASIZE PUSH1 0x1F NOT PUSH1 0x1F DUP3 ADD AND DUP3 ADD DUP1 PUSH1 0x40 MSTORE POP DUP2 ADD SWAP1 PUSH2 0xB50 SWAP2 SWAP1 PUSH2 0x4297 JUMP JUMPDEST SWAP1 POP PUSH2 0xB5B JUMP JUMPDEST TIMESTAMP SWAP1 POP JUMPDEST SWAP1 JUMP JUMPDEST PUSH1 0x7 PUSH1 0x3 SWAP1 SLOAD SWAP1 PUSH2 0x100 EXP SWAP1 DIV PUSH1 0xFF AND DUP2 JUMP JUMPDEST PUSH1 0x7 PUSH1 0x6 SWAP1 SLOAD SWAP1 PUSH2 0x100 EXP SWAP1 DIV PUSH1 0xFF AND DUP2 JUMP JUMPDEST PUSH1 0x0 PUSH1 0x15 SWAP1 SLOAD SWAP1 PUSH2 0x100 EXP SWAP1 DIV PUSH1 0xFF AND DUP1 PUSH2 0xBA3 JUMPI POP PUSH2 0xBA2 PUSH2 0x32B8 JUMP JUMPDEST JUMPDEST DUP1 PUSH2 0xBBB JUMPI POP PUSH1 0x0 PUSH1 0x14 SWAP1 SLOAD SWAP1 PUSH2 0x100 EXP SWAP1 DIV PUSH1 0xFF AND ISZERO JUMPDEST PUSH2 0xBFA JUMPI PUSH1 0x40 MLOAD PUSH32 0x8C379A000000000000000000000000000000000000000000000000000000000 DUP2 MSTORE PUSH1 0x4 ADD PUSH2 0xBF1 SWAP1 PUSH2 0x5879 JUMP JUMPDEST PUSH1 0x40 MLOAD DUP1 SWAP2 SUB SWAP1 REVERT JUMPDEST PUSH1 0x0 DUP1 PUSH1 0x15 SWAP1 SLOAD SWAP1 PUSH2 0x100 EXP SWAP1 DIV PUSH1 0xFF AND ISZERO SWAP1 POP DUP1 ISZERO PUSH2 0xC4B JUMPI PUSH1 0x1 PUSH1 0x0 PUSH1 0x15 PUSH2 0x100 EXP DUP2 SLOAD DUP2 PUSH1 0xFF MUL NOT AND SWAP1 DUP4 ISZERO ISZERO MUL OR SWAP1 SSTORE POP PUSH1 0x1 PUSH1 0x0 PUSH1 0x14 PUSH2 0x100 EXP DUP2 SLOAD DUP2 PUSH1 0xFF MUL NOT AND SWAP1 DUP4 ISZERO ISZERO MUL OR SWAP1 SSTORE POP JUMPDEST PUSH2 0xC53 PUSH2 0x32B0 JUMP JUMPDEST PUSH20 0xFFFFFFFFFFFFFFFFFFFFFFFFFFFFFFFFFFFFFFFF AND PUSH2 0xC71 PUSH2 0x2117 JUMP JUMPDEST PUSH20 0xFFFFFFFFFFFFFFFFFFFFFFFFFFFFFFFFFFFFFFFF AND EQ PUSH2 0xCC7 JUMPI PUSH1 0x40 MLOAD PUSH32 0x8C379A000000000000000000000000000000000000000000000000000000000 DUP2 MSTORE PUSH1 0x4 ADD PUSH2 0xCBE SWAP1 PUSH2 0x58F9 JUMP JUMPDEST PUSH1 0x40 MLOAD DUP1 SWAP2 SUB SWAP1 REVERT JUMPDEST PUSH1 0x0 PUSH20 0xFFFFFFFFFFFFFFFFFFFFFFFFFFFFFFFFFFFFFFFF AND DUP4 PUSH20 0xFFFFFFFFFFFFFFFFFFFFFFFFFFFFFFFFFFFFFFFF AND EQ ISZERO DUP1 ISZERO PUSH2 0xD31 JUMPI POP PUSH1 0x0 PUSH20 0xFFFFFFFFFFFFFFFFFFFFFFFFFFFFFFFFFFFFFFFF AND DUP3 PUSH20 0xFFFFFFFFFFFFFFFFFFFFFFFFFFFFFFFFFFFFFFFF AND EQ ISZERO JUMPDEST PUSH2 0xD70 JUMPI PUSH1 0x40 MLOAD PUSH32 0x8C379A000000000000000000000000000000000000000000000000000000000 DUP2 MSTORE PUSH1 0x4 ADD PUSH2 0xD67 SWAP1 PUSH2 0x58B9 JUMP JUMPDEST PUSH1 0x40 MLOAD DUP1 SWAP2 SUB SWAP1 REVERT JUMPDEST DUP3 PUSH1 0x3 PUSH1 0x0 PUSH2 0x100 EXP DUP2 SLOAD DUP2 PUSH20 0xFFFFFFFFFFFFFFFFFFFFFFFFFFFFFFFFFFFFFFFF MUL NOT AND SWAP1 DUP4 PUSH20 0xFFFFFFFFFFFFFFFFFFFFFFFFFFFFFFFFFFFFFFFF AND MUL OR SWAP1 SSTORE POP DUP2 PUSH1 0x4 PUSH1 0x0 PUSH2 0x100 EXP DUP2 SLOAD DUP2 PUSH20 0xFFFFFFFFFFFFFFFFFFFFFFFFFFFFFFFFFFFFFFFF MUL NOT AND SWAP1 DUP4 PUSH20 0xFFFFFFFFFFFFFFFFFFFFFFFFFFFFFFFFFFFFFFFF AND MUL OR SWAP1 SSTORE POP DUP1 ISZERO PUSH2 0xE13 JUMPI PUSH1 0x0 DUP1 PUSH1 0x15 PUSH2 0x100 EXP DUP2 SLOAD DUP2 PUSH1 0xFF MUL NOT AND SWAP1 DUP4 ISZERO ISZERO MUL OR SWAP1 SSTORE POP JUMPDEST POP POP POP JUMP JUMPDEST PUSH1 0x0 DUP1 PUSH1 0x8 PUSH1 0x0 DUP6 DUP2 MSTORE PUSH1 0x20 ADD SWAP1 DUP2 MSTORE PUSH1 0x20 ADD PUSH1 0x0 KECCAK256 PUSH1 0x3 ADD SLOAD SWAP1 POP PUSH2 0xE47 DUP4 DUP3 PUSH2 0x32C9 SWAP1 SWAP2 SWAP1 PUSH4 0xFFFFFFFF AND JUMP JUMPDEST SWAP2 POP POP SWAP3 SWAP2 POP POP JUMP JUMPDEST PUSH2 0xE58 PUSH2 0x32B0 JUMP JUMPDEST PUSH20 0xFFFFFFFFFFFFFFFFFFFFFFFFFFFFFFFFFFFFFFFF AND PUSH2 0xE76 PUSH2 0x2117 JUMP JUMPDEST PUSH20 0xFFFFFFFFFFFFFFFFFFFFFFFFFFFFFFFFFFFFFFFF AND EQ PUSH2 0xECC JUMPI PUSH1 0x40 MLOAD PUSH32 0x8C379A000000000000000000000000000000000000000000000000000000000 DUP2 MSTORE PUSH1 0x4 ADD PUSH2 0xEC3 SWAP1 PUSH2 0x58F9 JUMP JUMPDEST PUSH1 0x40 MLOAD DUP1 SWAP2 SUB SWAP1 REVERT JUMPDEST PUSH1 0x0 PUSH20 0xFFFFFFFFFFFFFFFFFFFFFFFFFFFFFFFFFFFFFFFF AND PUSH1 0x0 DUP1 SLOAD SWAP1 PUSH2 0x100 EXP SWAP1 DIV PUSH20 0xFFFFFFFFFFFFFFFFFFFFFFFFFFFFFFFFFFFFFFFF AND PUSH20 0xFFFFFFFFFFFFFFFFFFFFFFFFFFFFFFFFFFFFFFFF AND PUSH32 0x8BE0079C531659141344CD1FD0A4F28419497F9722A3DAAFE3B4186F6B6457E0 PUSH1 0x40 MLOAD PUSH1 0x40 MLOAD DUP1 SWAP2 SUB SWAP1 LOG3 PUSH1 0x0 DUP1 PUSH1 0x0 PUSH2 0x100 EXP DUP2 SLOAD DUP2 PUSH20 0xFFFFFFFFFFFFFFFFFFFFFFFFFFFFFFFFFFFFFFFF MUL NOT AND SWAP1 DUP4 PUSH20 0xFFFFFFFFFFFFFFFFFFFFFFFFFFFFFFFFFFFFFFFF AND MUL OR SWAP1 SSTORE POP JUMP JUMPDEST PUSH2 0xFA9 CALLER PUSH20 0xFFFFFFFFFFFFFFFFFFFFFFFFFFFFFFFFFFFFFFFF AND PUSH2 0x3339 JUMP JUMPDEST ISZERO PUSH2 0xFE9 JUMPI PUSH1 0x40 MLOAD PUSH32 0x8C379A000000000000000000000000000000000000000000000000000000000 DUP2 MSTORE PUSH1 0x4 ADD PUSH2 0xFE0 SWAP1 PUSH2 0x5919 JUMP JUMPDEST PUSH1 0x40 MLOAD DUP1 SWAP2 SUB SWAP1 REVERT JUMPDEST ORIGIN PUSH20 0xFFFFFFFFFFFFFFFFFFFFFFFFFFFFFFFFFFFFFFFF AND CALLER PUSH20 0xFFFFFFFFFFFFFFFFFFFFFFFFFFFFFFFFFFFFFFFF AND EQ PUSH2 0x1057 JUMPI PUSH1 0x40 MLOAD PUSH32 0x8C379A000000000000000000000000000000000000000000000000000000000 DUP2 MSTORE PUSH1 0x4 ADD PUSH2 0x104E SWAP1 PUSH2 0x5579 JUMP JUMPDEST PUSH1 0x40 MLOAD DUP1 SWAP2 SUB SWAP1 REVERT JUMPDEST PUSH1 0x32 DUP3 DUP3 SWAP1 POP GT ISZERO PUSH2 0x109E JUMPI PUSH1 0x40 MLOAD PUSH32 0x8C379A000000000000000000000000000000000000000000000000000000000 DUP2 MSTORE PUSH1 0x4 ADD PUSH2 0x1095 SWAP1 PUSH2 0x57D9 JUMP JUMPDEST PUSH1 0x40 MLOAD DUP1 SWAP2 SUB SWAP1 REVERT JUMPDEST PUSH2 0x10A6 PUSH2 0xA59 JUMP JUMPDEST PUSH1 0x8 PUSH1 0x0 DUP6 DUP2 MSTORE PUSH1 0x20 ADD SWAP1 DUP2 MSTORE PUSH1 0x20 ADD PUSH1 0x0 KECCAK256 PUSH1 0x6 ADD SLOAD GT ISZERO PUSH2 0x10FE JUMPI PUSH1 0x40 MLOAD PUSH32 0x8C379A000000000000000000000000000000000000000000000000000000000 DUP2 MSTORE PUSH1 0x4 ADD PUSH2 0x10F5 SWAP1 PUSH2 0x5679 JUMP JUMPDEST PUSH1 0x40 MLOAD DUP1 SWAP2 SUB SWAP1 REVERT JUMPDEST PUSH1 0x3 DUP1 DUP2 GT ISZERO PUSH2 0x110A JUMPI INVALID JUMPDEST PUSH1 0x8 PUSH1 0x0 DUP6 DUP2 MSTORE PUSH1 0x20 ADD SWAP1 DUP2 MSTORE PUSH1 0x20 ADD PUSH1 0x0 KECCAK256 PUSH1 0x1 ADD PUSH1 0x0 SWAP1 SLOAD SWAP1 PUSH2 0x100 EXP SWAP1 DIV PUSH1 0xFF AND PUSH1 0x3 DUP2 GT ISZERO PUSH2 0x1139 JUMPI INVALID JUMPDEST EQ PUSH2 0x1179 JUMPI PUSH1 0x40 MLOAD PUSH32 0x8C379A000000000000000000000000000000000000000000000000000000000 DUP2 MSTORE PUSH1 0x4 ADD PUSH2 0x1170 SWAP1 PUSH2 0x59F9 JUMP JUMPDEST PUSH1 0x40 MLOAD DUP1 SWAP2 SUB SWAP1 REVERT JUMPDEST PUSH1 0x0 DUP1 JUMPDEST DUP4 DUP4 SWAP1 POP DUP2 LT ISZERO PUSH2 0x164A JUMPI CALLER PUSH20 0xFFFFFFFFFFFFFFFFFFFFFFFFFFFFFFFFFFFFFFFF AND PUSH1 0x3 PUSH1 0x0 SWAP1 SLOAD SWAP1 PUSH2 0x100 EXP SWAP1 DIV PUSH20 0xFFFFFFFFFFFFFFFFFFFFFFFFFFFFFFFFFFFFFFFF AND PUSH20 0xFFFFFFFFFFFFFFFFFFFFFFFFFFFFFFFFFFFFFFFF AND PUSH4 0x9D755367 DUP7 DUP7 DUP6 DUP2 DUP2 LT PUSH2 0x11E9 JUMPI INVALID JUMPDEST SWAP1 POP PUSH1 0x20 MUL ADD CALLDATALOAD PUSH1 0x40 MLOAD DUP3 PUSH4 0xFFFFFFFF AND PUSH1 0xE0 SHL DUP2 MSTORE PUSH1 0x4 ADD PUSH2 0x120C SWAP2 SWAP1 PUSH2 0x5A76 JUMP JUMPDEST PUSH1 0x20 PUSH1 0x40 MLOAD DUP1 DUP4 SUB DUP2 DUP7 DUP1 EXTCODESIZE ISZERO DUP1 ISZERO PUSH2 0x1224 JUMPI PUSH1 0x0 DUP1 REVERT JUMPDEST POP GAS STATICCALL ISZERO DUP1 ISZERO PUSH2 0x1238 JUMPI RETURNDATASIZE PUSH1 0x0 DUP1 RETURNDATACOPY RETURNDATASIZE PUSH1 0x0 REVERT JUMPDEST POP POP POP POP PUSH1 0x40 MLOAD RETURNDATASIZE PUSH1 0x1F NOT PUSH1 0x1F DUP3 ADD AND DUP3 ADD DUP1 PUSH1 0x40 MSTORE POP DUP2 ADD SWAP1 PUSH2 0x125C SWAP2 SWAP1 PUSH2 0x407A JUMP JUMPDEST PUSH20 0xFFFFFFFFFFFFFFFFFFFFFFFFFFFFFFFFFFFFFFFF AND EQ PUSH2 0x12B2 JUMPI PUSH1 0x40 MLOAD PUSH32 0x8C379A000000000000000000000000000000000000000000000000000000000 DUP2 MSTORE PUSH1 0x4 ADD PUSH2 0x12A9 SWAP1 PUSH2 0x5839 JUMP JUMPDEST PUSH1 0x40 MLOAD DUP1 SWAP2 SUB SWAP1 REVERT JUMPDEST PUSH1 0x3 PUSH1 0x0 SWAP1 SLOAD SWAP1 PUSH2 0x100 EXP SWAP1 DIV PUSH20 0xFFFFFFFFFFFFFFFFFFFFFFFFFFFFFFFFFFFFFFFF AND PUSH20 0xFFFFFFFFFFFFFFFFFFFFFFFFFFFFFFFFFFFFFFFF AND PUSH4 0x9191A7EA DUP6 DUP6 DUP5 DUP2 DUP2 LT PUSH2 0x12FC JUMPI INVALID JUMPDEST SWAP1 POP PUSH1 0x20 MUL ADD CALLDATALOAD PUSH1 0x40 MLOAD DUP3 PUSH4 0xFFFFFFFF AND PUSH1 0xE0 SHL DUP2 MSTORE PUSH1 0x4 ADD PUSH2 0x131F SWAP2 SWAP1 PUSH2 0x5A76 JUMP JUMPDEST PUSH1 0x20 PUSH1 0x40 MLOAD DUP1 DUP4 SUB DUP2 DUP7 DUP1 EXTCODESIZE ISZERO DUP1 ISZERO PUSH2 0x1337 JUMPI PUSH1 0x0 DUP1 REVERT JUMPDEST POP GAS STATICCALL ISZERO DUP1 ISZERO PUSH2 0x134B JUMPI RETURNDATASIZE PUSH1 0x0 DUP1 RETURNDATACOPY RETURNDATASIZE PUSH1 0x0 REVERT JUMPDEST POP POP POP POP PUSH1 0x40 MLOAD RETURNDATASIZE PUSH1 0x1F NOT PUSH1 0x1F DUP3 ADD AND DUP3 ADD DUP1 PUSH1 0x40 MSTORE POP DUP2 ADD SWAP1 PUSH2 0x136F SWAP2 SWAP1 PUSH2 0x41F3 JUMP JUMPDEST ISZERO PUSH2 0x1379 JUMPI PUSH2 0x163D JUMP JUMPDEST PUSH1 0x3 PUSH1 0x0 SWAP1 SLOAD SWAP1 PUSH2 0x100 EXP SWAP1 DIV PUSH20 0xFFFFFFFFFFFFFFFFFFFFFFFFFFFFFFFFFFFFFFFF AND PUSH20 0xFFFFFFFFFFFFFFFFFFFFFFFFFFFFFFFFFFFFFFFF AND PUSH4 0xED06A740 DUP6 DUP6 DUP5 DUP2 DUP2 LT PUSH2 0x13C3 JUMPI INVALID JUMPDEST SWAP1 POP PUSH1 0x20 MUL ADD CALLDATALOAD DUP8 PUSH1 0x40 MLOAD DUP4 PUSH4 0xFFFFFFFF AND PUSH1 0xE0 SHL DUP2 MSTORE PUSH1 0x4 ADD PUSH2 0x13E8 SWAP3 SWAP2 SWAP1 PUSH2 0x5ABA JUMP JUMPDEST PUSH1 0x20 PUSH1 0x40 MLOAD DUP1 DUP4 SUB DUP2 PUSH1 0x0 DUP8 DUP1 EXTCODESIZE ISZERO DUP1 ISZERO PUSH2 0x1402 JUMPI PUSH1 0x0 DUP1 REVERT JUMPDEST POP GAS CALL ISZERO DUP1 ISZERO PUSH2 0x1416 JUMPI RETURNDATASIZE PUSH1 0x0 DUP1 RETURNDATACOPY RETURNDATASIZE PUSH1 0x0 REVERT JUMPDEST POP POP POP POP PUSH1 0x40 MLOAD RETURNDATASIZE PUSH1 0x1F NOT PUSH1 0x1F DUP3 ADD AND DUP3 ADD DUP1 PUSH1 0x40 MSTORE POP DUP2 ADD SWAP1 PUSH2 0x143A SWAP2 SWAP1 PUSH2 0x41F3 JUMP JUMPDEST PUSH2 0x1479 JUMPI PUSH1 0x40 MLOAD PUSH32 0x8C379A000000000000000000000000000000000000000000000000000000000 DUP2 MSTORE PUSH1 0x4 ADD PUSH2 0x1470 SWAP1 PUSH2 0x56F9 JUMP JUMPDEST PUSH1 0x40 MLOAD DUP1 SWAP2 SUB SWAP1 REVERT JUMPDEST PUSH1 0x0 PUSH2 0x15D2 PUSH1 0x3 PUSH1 0x0 SWAP1 SLOAD SWAP1 PUSH2 0x100 EXP SWAP1 DIV PUSH20 0xFFFFFFFFFFFFFFFFFFFFFFFFFFFFFFFFFFFFFFFF AND PUSH20 0xFFFFFFFFFFFFFFFFFFFFFFFFFFFFFFFFFFFFFFFF AND PUSH4 0x9839EAFD DUP8 DUP8 DUP7 DUP2 DUP2 LT PUSH2 0x14C8 JUMPI INVALID JUMPDEST SWAP1 POP PUSH1 0x20 MUL ADD CALLDATALOAD PUSH1 0x40 MLOAD DUP3 PUSH4 0xFFFFFFFF AND PUSH1 0xE0 SHL DUP2 MSTORE PUSH1 0x4 ADD PUSH2 0x14EB SWAP2 SWAP1 PUSH2 0x5A76 JUMP JUMPDEST PUSH1 0x0 PUSH1 0x40 MLOAD DUP1 DUP4 SUB DUP2 DUP7 DUP1 EXTCODESIZE ISZERO DUP1 ISZERO PUSH2 0x1503 JUMPI PUSH1 0x0 DUP1 REVERT JUMPDEST POP GAS STATICCALL ISZERO DUP1 ISZERO PUSH2 0x1517 JUMPI RETURNDATASIZE PUSH1 0x0 DUP1 RETURNDATACOPY RETURNDATASIZE PUSH1 0x0 REVERT JUMPDEST POP POP POP POP PUSH1 0x40 MLOAD RETURNDATASIZE PUSH1 0x0 DUP3 RETURNDATACOPY RETURNDATASIZE PUSH1 0x1F NOT PUSH1 0x1F DUP3 ADD AND DUP3 ADD DUP1 PUSH1 0x40 MSTORE POP DUP2 ADD SWAP1 PUSH2 0x1540 SWAP2 SWAP1 PUSH2 0x40DF JUMP JUMPDEST PUSH1 0x8 PUSH1 0x0 DUP10 DUP2 MSTORE PUSH1 0x20 ADD SWAP1 DUP2 MSTORE PUSH1 0x20 ADD PUSH1 0x0 KECCAK256 PUSH1 0x7 ADD DUP1 SLOAD DUP1 PUSH1 0x20 MUL PUSH1 0x20 ADD PUSH1 0x40 MLOAD SWAP1 DUP2 ADD PUSH1 0x40 MSTORE DUP1 SWAP3 SWAP2 SWAP1 DUP2 DUP2 MSTORE PUSH1 0x20 ADD DUP3 DUP1 SLOAD DUP1 ISZERO PUSH2 0x15C8 JUMPI PUSH1 0x20 MUL DUP3 ADD SWAP2 SWAP1 PUSH1 0x0 MSTORE PUSH1 0x20 PUSH1 0x0 KECCAK256 SWAP1 PUSH1 0x0 SWAP1 JUMPDEST DUP3 DUP3 SWAP1 SLOAD SWAP1 PUSH2 0x100 EXP SWAP1 DIV PUSH2 0xFFFF AND PUSH2 0xFFFF AND DUP2 MSTORE PUSH1 0x20 ADD SWAP1 PUSH1 0x2 ADD SWAP1 PUSH1 0x20 DUP3 PUSH1 0x1 ADD DIV SWAP3 DUP4 ADD SWAP3 PUSH1 0x1 SUB DUP3 MUL SWAP2 POP DUP1 DUP5 GT PUSH2 0x158F JUMPI SWAP1 POP JUMPDEST POP POP POP POP POP PUSH2 0x334C JUMP JUMPDEST SWAP1 POP PUSH1 0x0 PUSH2 0x15E0 DUP3 DUP9 PUSH2 0x33AE JUMP JUMPDEST SWAP1 POP PUSH2 0x160B DUP2 PUSH1 0x8 PUSH1 0x0 DUP11 DUP2 MSTORE PUSH1 0x20 ADD SWAP1 DUP2 MSTORE PUSH1 0x20 ADD PUSH1 0x0 KECCAK256 PUSH1 0x2 ADD SLOAD PUSH2 0x3463 SWAP1 SWAP2 SWAP1 PUSH4 0xFFFFFFFF AND JUMP JUMPDEST PUSH1 0x8 PUSH1 0x0 DUP10 DUP2 MSTORE PUSH1 0x20 ADD SWAP1 DUP2 MSTORE PUSH1 0x20 ADD PUSH1 0x0 KECCAK256 PUSH1 0x2 ADD DUP2 SWAP1 SSTORE POP PUSH2 0x1638 DUP2 DUP6 PUSH2 0x34B3 SWAP1 SWAP2 SWAP1 PUSH4 0xFFFFFFFF AND JUMP JUMPDEST SWAP4 POP POP POP JUMPDEST DUP1 DUP1 PUSH1 0x1 ADD SWAP2 POP POP PUSH2 0x117D JUMP JUMPDEST POP PUSH2 0x1698 CALLER DUP3 PUSH1 0x2 PUSH1 0x0 SWAP1 SLOAD SWAP1 PUSH2 0x100 EXP SWAP1 DIV PUSH20 0xFFFFFFFFFFFFFFFFFFFFFFFFFFFFFFFFFFFFFFFF AND PUSH20 0xFFFFFFFFFFFFFFFFFFFFFFFFFFFFFFFFFFFFFFFF AND PUSH2 0x3508 SWAP1 SWAP3 SWAP2 SWAP1 PUSH4 0xFFFFFFFF AND JUMP JUMPDEST POP POP POP POP JUMP JUMPDEST PUSH1 0x0 PUSH2 0x16A8 PUSH2 0x32B0 JUMP JUMPDEST PUSH20 0xFFFFFFFFFFFFFFFFFFFFFFFFFFFFFFFFFFFFFFFF AND PUSH2 0x16C6 PUSH2 0x2117 JUMP JUMPDEST PUSH20 0xFFFFFFFFFFFFFFFFFFFFFFFFFFFFFFFFFFFFFFFF AND EQ PUSH2 0x171C JUMPI PUSH1 0x40 MLOAD PUSH32 0x8C379A000000000000000000000000000000000000000000000000000000000 DUP2 MSTORE PUSH1 0x4 ADD PUSH2 0x1713 SWAP1 PUSH2 0x58F9 JUMP JUMPDEST PUSH1 0x40 MLOAD DUP1 SWAP2 SUB SWAP1 REVERT JUMPDEST PUSH1 0x7 PUSH1 0x0 SWAP1 SLOAD SWAP1 PUSH2 0x100 EXP SWAP1 DIV PUSH1 0xFF AND PUSH1 0xFF AND DUP8 DUP8 SWAP1 POP EQ PUSH2 0x1773 JUMPI PUSH1 0x40 MLOAD PUSH32 0x8C379A000000000000000000000000000000000000000000000000000000000 DUP2 MSTORE PUSH1 0x4 ADD PUSH2 0x176A SWAP1 PUSH2 0x55D9 JUMP JUMPDEST PUSH1 0x40 MLOAD DUP1 SWAP2 SUB SWAP1 REVERT JUMPDEST PUSH1 0x0 DUP1 JUMPDEST DUP9 DUP9 SWAP1 POP DUP2 LT ISZERO PUSH2 0x17C7 JUMPI PUSH2 0x17B8 DUP10 DUP10 DUP4 DUP2 DUP2 LT PUSH2 0x1791 JUMPI INVALID JUMPDEST SWAP1 POP PUSH1 0x20 MUL ADD PUSH1 0x20 DUP2 ADD SWAP1 PUSH2 0x17A6 SWAP2 SWAP1 PUSH2 0x445E JUMP JUMPDEST PUSH1 0xFF AND DUP4 PUSH2 0x34B3 SWAP1 SWAP2 SWAP1 PUSH4 0xFFFFFFFF AND JUMP JUMPDEST SWAP2 POP DUP1 DUP1 PUSH1 0x1 ADD SWAP2 POP POP PUSH2 0x1777 JUMP JUMPDEST POP PUSH1 0x64 DUP2 EQ PUSH2 0x180B JUMPI PUSH1 0x40 MLOAD PUSH32 0x8C379A000000000000000000000000000000000000000000000000000000000 DUP2 MSTORE PUSH1 0x4 ADD PUSH2 0x1802 SWAP1 PUSH2 0x5A19 JUMP JUMPDEST PUSH1 0x40 MLOAD DUP1 SWAP2 SUB SWAP1 REVERT JUMPDEST PUSH1 0x0 DUP7 EQ ISZERO DUP1 ISZERO PUSH2 0x181D JUMPI POP PUSH1 0x0 DUP6 EQ ISZERO JUMPDEST PUSH2 0x185C JUMPI PUSH1 0x40 MLOAD PUSH32 0x8C379A000000000000000000000000000000000000000000000000000000000 DUP2 MSTORE PUSH1 0x4 ADD PUSH2 0x1853 SWAP1 PUSH2 0x55B9 JUMP JUMPDEST PUSH1 0x40 MLOAD DUP1 SWAP2 SUB SWAP1 REVERT JUMPDEST PUSH1 0x0 DUP5 EQ ISZERO DUP1 ISZERO PUSH2 0x186C JUMPI POP DUP3 DUP5 LT JUMPDEST PUSH2 0x18AB JUMPI PUSH1 0x40 MLOAD PUSH32 0x8C379A000000000000000000000000000000000000000000000000000000000 DUP2 MSTORE PUSH1 0x4 ADD PUSH2 0x18A2 SWAP1 PUSH2 0x59B9 JUMP JUMPDEST PUSH1 0x40 MLOAD DUP1 SWAP2 SUB SWAP1 REVERT JUMPDEST PUSH2 0x18C1 PUSH1 0x1 PUSH1 0x6 SLOAD PUSH2 0x34B3 SWAP1 SWAP2 SWAP1 PUSH4 0xFFFFFFFF AND JUMP JUMPDEST PUSH1 0x6 DUP2 SWAP1 SSTORE POP PUSH1 0x6 SLOAD SWAP2 POP PUSH1 0x60 PUSH1 0x7 PUSH1 0x0 SWAP1 SLOAD SWAP1 PUSH2 0x100 EXP SWAP1 DIV PUSH1 0xFF AND PUSH1 0xFF AND PUSH8 0xFFFFFFFFFFFFFFFF DUP2 GT DUP1 ISZERO PUSH2 0x18F7 JUMPI PUSH1 0x0 DUP1 REVERT JUMPDEST POP PUSH1 0x40 MLOAD SWAP1 DUP1 DUP3 MSTORE DUP1 PUSH1 0x20 MUL PUSH1 0x20 ADD DUP3 ADD PUSH1 0x40 MSTORE DUP1 ISZERO PUSH2 0x1926 JUMPI DUP2 PUSH1 0x20 ADD PUSH1 0x20 DUP3 MUL DUP1 CALLDATASIZE DUP4 CALLDATACOPY DUP1 DUP3 ADD SWAP2 POP POP SWAP1 POP JUMPDEST POP SWAP1 POP PUSH1 0x0 PUSH2 0x1933 PUSH2 0xA59 JUMP JUMPDEST DUP7 LT PUSH2 0x1942 JUMPI PUSH1 0x1 SWAP1 POP PUSH2 0x1947 JUMP JUMPDEST PUSH1 0x0 SWAP1 POP JUMPDEST PUSH2 0x194F PUSH2 0x3BA9 JUMP JUMPDEST PUSH1 0x40 MLOAD DUP1 PUSH2 0x100 ADD PUSH1 0x40 MSTORE DUP1 DUP7 DUP2 MSTORE PUSH1 0x20 ADD DUP4 PUSH1 0x3 DUP2 GT ISZERO PUSH2 0x196D JUMPI INVALID JUMPDEST DUP2 MSTORE PUSH1 0x20 ADD DUP11 DUP2 MSTORE PUSH1 0x20 ADD DUP10 DUP2 MSTORE PUSH1 0x20 ADD DUP13 DUP13 DUP1 DUP1 PUSH1 0x20 MUL PUSH1 0x20 ADD PUSH1 0x40 MLOAD SWAP1 DUP2 ADD PUSH1 0x40 MSTORE DUP1 SWAP4 SWAP3 SWAP2 SWAP1 DUP2 DUP2 MSTORE PUSH1 0x20 ADD DUP4 DUP4 PUSH1 0x20 MUL DUP1 DUP3 DUP5 CALLDATACOPY PUSH1 0x0 DUP2 DUP5 ADD MSTORE PUSH1 0x1F NOT PUSH1 0x1F DUP3 ADD AND SWAP1 POP DUP1 DUP4 ADD SWAP3 POP POP POP POP POP POP POP DUP2 MSTORE PUSH1 0x20 ADD DUP9 DUP2 MSTORE PUSH1 0x20 ADD DUP8 DUP2 MSTORE PUSH1 0x20 ADD DUP5 DUP2 MSTORE POP SWAP1 POP DUP1 PUSH1 0x8 PUSH1 0x0 DUP8 DUP2 MSTORE PUSH1 0x20 ADD SWAP1 DUP2 MSTORE PUSH1 0x20 ADD PUSH1 0x0 KECCAK256 PUSH1 0x0 DUP3 ADD MLOAD DUP2 PUSH1 0x0 ADD SSTORE PUSH1 0x20 DUP3 ADD MLOAD DUP2 PUSH1 0x1 ADD PUSH1 0x0 PUSH2 0x100 EXP DUP2 SLOAD DUP2 PUSH1 0xFF MUL NOT AND SWAP1 DUP4 PUSH1 0x3 DUP2 GT ISZERO PUSH2 0x1A19 JUMPI INVALID JUMPDEST MUL OR SWAP1 SSTORE POP PUSH1 0x40 DUP3 ADD MLOAD DUP2 PUSH1 0x2 ADD SSTORE PUSH1 0x60 DUP3 ADD MLOAD DUP2 PUSH1 0x3 ADD SSTORE PUSH1 0x80 DUP3 ADD MLOAD DUP2 PUSH1 0x4 ADD SWAP1 DUP1 MLOAD SWAP1 PUSH1 0x20 ADD SWAP1 PUSH2 0x1A4E SWAP3 SWAP2 SWAP1 PUSH2 0x3BF9 JUMP JUMPDEST POP PUSH1 0xA0 DUP3 ADD MLOAD DUP2 PUSH1 0x5 ADD SSTORE PUSH1 0xC0 DUP3 ADD MLOAD DUP2 PUSH1 0x6 ADD SSTORE PUSH1 0xE0 DUP3 ADD MLOAD DUP2 PUSH1 0x7 ADD SWAP1 DUP1 MLOAD SWAP1 PUSH1 0x20 ADD SWAP1 PUSH2 0x1A7F SWAP3 SWAP2 SWAP1 PUSH2 0x3CA0 JUMP JUMPDEST POP SWAP1 POP POP PUSH32 0xCE7176DB4E5B6D07AD0F0ECF9523A01D98AA268B888A199592CB5B1E40615C46 DUP6 PUSH1 0x3 PUSH1 0x0 SWAP1 SLOAD SWAP1 PUSH2 0x100 EXP SWAP1 DIV PUSH20 0xFFFFFFFFFFFFFFFFFFFFFFFFFFFFFFFFFFFFFFFF AND PUSH20 0xFFFFFFFFFFFFFFFFFFFFFFFFFFFFFFFFFFFFFFFF AND PUSH4 0xC4E41B22 PUSH1 0x40 MLOAD DUP2 PUSH4 0xFFFFFFFF AND PUSH1 0xE0 SHL DUP2 MSTORE PUSH1 0x4 ADD PUSH1 0x20 PUSH1 0x40 MLOAD DUP1 DUP4 SUB DUP2 DUP7 DUP1 EXTCODESIZE ISZERO DUP1 ISZERO PUSH2 0x1B0D JUMPI PUSH1 0x0 DUP1 REVERT JUMPDEST POP GAS STATICCALL ISZERO DUP1 ISZERO PUSH2 0x1B21 JUMPI RETURNDATASIZE PUSH1 0x0 DUP1 RETURNDATACOPY RETURNDATASIZE PUSH1 0x0 REVERT JUMPDEST POP POP POP POP PUSH1 0x40 MLOAD RETURNDATASIZE PUSH1 0x1F NOT PUSH1 0x1F DUP3 ADD AND DUP3 ADD DUP1 PUSH1 0x40 MSTORE POP DUP2 ADD SWAP1 PUSH2 0x1B45 SWAP2 SWAP1 PUSH2 0x4297 JUMP JUMPDEST PUSH1 0x40 MLOAD PUSH2 0x1B53 SWAP3 SWAP2 SWAP1 PUSH2 0x5ABA JUMP JUMPDEST PUSH1 0x40 MLOAD DUP1 SWAP2 SUB SWAP1 LOG1 POP POP POP POP SWAP7 SWAP6 POP POP POP POP POP POP JUMP JUMPDEST PUSH2 0x1B88 CALLER PUSH20 0xFFFFFFFFFFFFFFFFFFFFFFFFFFFFFFFFFFFFFFFF AND PUSH2 0x3339 JUMP JUMPDEST ISZERO PUSH2 0x1BC8 JUMPI PUSH1 0x40 MLOAD PUSH32 0x8C379A000000000000000000000000000000000000000000000000000000000 DUP2 MSTORE PUSH1 0x4 ADD PUSH2 0x1BBF SWAP1 PUSH2 0x5919 JUMP JUMPDEST PUSH1 0x40 MLOAD DUP1 SWAP2 SUB SWAP1 REVERT JUMPDEST ORIGIN PUSH20 0xFFFFFFFFFFFFFFFFFFFFFFFFFFFFFFFFFFFFFFFF AND CALLER PUSH20 0xFFFFFFFFFFFFFFFFFFFFFFFFFFFFFFFFFFFFFFFF AND EQ PUSH2 0x1C36 JUMPI PUSH1 0x40 MLOAD PUSH32 0x8C379A000000000000000000000000000000000000000000000000000000000 DUP2 MSTORE PUSH1 0x4 ADD PUSH2 0x1C2D SWAP1 PUSH2 0x5579 JUMP JUMPDEST PUSH1 0x40 MLOAD DUP1 SWAP2 SUB SWAP1 REVERT JUMPDEST PUSH2 0x1C3E PUSH2 0xA59 JUMP JUMPDEST PUSH1 0x8 PUSH1 0x0 DUP5 DUP2 MSTORE PUSH1 0x20 ADD SWAP1 DUP2 MSTORE PUSH1 0x20 ADD PUSH1 0x0 KECCAK256 PUSH1 0x6 ADD SLOAD GT ISZERO PUSH2 0x1C96 JUMPI PUSH1 0x40 MLOAD PUSH32 0x8C379A000000000000000000000000000000000000000000000000000000000 DUP2 MSTORE PUSH1 0x4 ADD PUSH2 0x1C8D SWAP1 PUSH2 0x5679 JUMP JUMPDEST PUSH1 0x40 MLOAD DUP1 SWAP2 SUB SWAP1 REVERT JUMPDEST PUSH1 0x3 DUP1 DUP2 GT ISZERO PUSH2 0x1CA2 JUMPI INVALID JUMPDEST PUSH1 0x8 PUSH1 0x0 DUP5 DUP2 MSTORE PUSH1 0x20 ADD SWAP1 DUP2 MSTORE PUSH1 0x20 ADD PUSH1 0x0 KECCAK256 PUSH1 0x1 ADD PUSH1 0x0 SWAP1 SLOAD SWAP1 PUSH2 0x100 EXP SWAP1 DIV PUSH1 0xFF AND PUSH1 0x3 DUP2 GT ISZERO PUSH2 0x1CD1 JUMPI INVALID JUMPDEST EQ PUSH2 0x1D11 JUMPI PUSH1 0x40 MLOAD PUSH32 0x8C379A000000000000000000000000000000000000000000000000000000000 DUP2 MSTORE PUSH1 0x4 ADD PUSH2 0x1D08 SWAP1 PUSH2 0x59F9 JUMP JUMPDEST PUSH1 0x40 MLOAD DUP1 SWAP2 SUB SWAP1 REVERT JUMPDEST CALLER PUSH20 0xFFFFFFFFFFFFFFFFFFFFFFFFFFFFFFFFFFFFFFFF AND PUSH1 0x3 PUSH1 0x0 SWAP1 SLOAD SWAP1 PUSH2 0x100 EXP SWAP1 DIV PUSH20 0xFFFFFFFFFFFFFFFFFFFFFFFFFFFFFFFFFFFFFFFF AND PUSH20 0xFFFFFFFFFFFFFFFFFFFFFFFFFFFFFFFFFFFFFFFF AND PUSH4 0x9D755367 DUP4 PUSH1 0x40 MLOAD DUP3 PUSH4 0xFFFFFFFF AND PUSH1 0xE0 SHL DUP2 MSTORE PUSH1 0x4 ADD PUSH2 0x1D83 SWAP2 SWAP1 PUSH2 0x5A76 JUMP JUMPDEST PUSH1 0x20 PUSH1 0x40 MLOAD DUP1 DUP4 SUB DUP2 DUP7 DUP1 EXTCODESIZE ISZERO DUP1 ISZERO PUSH2 0x1D9B JUMPI PUSH1 0x0 DUP1 REVERT JUMPDEST POP GAS STATICCALL ISZERO DUP1 ISZERO PUSH2 0x1DAF JUMPI RETURNDATASIZE PUSH1 0x0 DUP1 RETURNDATACOPY RETURNDATASIZE PUSH1 0x0 REVERT JUMPDEST POP POP POP POP PUSH1 0x40 MLOAD RETURNDATASIZE PUSH1 0x1F NOT PUSH1 0x1F DUP3 ADD AND DUP3 ADD DUP1 PUSH1 0x40 MSTORE POP DUP2 ADD SWAP1 PUSH2 0x1DD3 SWAP2 SWAP1 PUSH2 0x407A JUMP JUMPDEST PUSH20 0xFFFFFFFFFFFFFFFFFFFFFFFFFFFFFFFFFFFFFFFF AND EQ PUSH2 0x1E29 JUMPI PUSH1 0x40 MLOAD PUSH32 0x8C379A000000000000000000000000000000000000000000000000000000000 DUP2 MSTORE PUSH1 0x4 ADD PUSH2 0x1E20 SWAP1 PUSH2 0x5839 JUMP JUMPDEST PUSH1 0x40 MLOAD DUP1 SWAP2 SUB SWAP1 REVERT JUMPDEST PUSH1 0x3 PUSH1 0x0 SWAP1 SLOAD SWAP1 PUSH2 0x100 EXP SWAP1 DIV PUSH20 0xFFFFFFFFFFFFFFFFFFFFFFFFFFFFFFFFFFFFFFFF AND PUSH20 0xFFFFFFFFFFFFFFFFFFFFFFFFFFFFFFFFFFFFFFFF AND PUSH4 0xED06A740 DUP3 DUP5 PUSH1 0x40 MLOAD DUP4 PUSH4 0xFFFFFFFF AND PUSH1 0xE0 SHL DUP2 MSTORE PUSH1 0x4 ADD PUSH2 0x1E86 SWAP3 SWAP2 SWAP1 PUSH2 0x5ABA JUMP JUMPDEST PUSH1 0x20 PUSH1 0x40 MLOAD DUP1 DUP4 SUB DUP2 PUSH1 0x0 DUP8 DUP1 EXTCODESIZE ISZERO DUP1 ISZERO PUSH2 0x1EA0 JUMPI PUSH1 0x0 DUP1 REVERT JUMPDEST POP GAS CALL ISZERO DUP1 ISZERO PUSH2 0x1EB4 JUMPI RETURNDATASIZE PUSH1 0x0 DUP1 RETURNDATACOPY RETURNDATASIZE PUSH1 0x0 REVERT JUMPDEST POP POP POP POP PUSH1 0x40 MLOAD RETURNDATASIZE PUSH1 0x1F NOT PUSH1 0x1F DUP3 ADD AND DUP3 ADD DUP1 PUSH1 0x40 MSTORE POP DUP2 ADD SWAP1 PUSH2 0x1ED8 SWAP2 SWAP1 PUSH2 0x41F3 JUMP JUMPDEST PUSH2 0x1F17 JUMPI PUSH1 0x40 MLOAD PUSH32 0x8C379A000000000000000000000000000000000000000000000000000000000 DUP2 MSTORE PUSH1 0x4 ADD PUSH2 0x1F0E SWAP1 PUSH2 0x56F9 JUMP JUMPDEST PUSH1 0x40 MLOAD DUP1 SWAP2 SUB SWAP1 REVERT JUMPDEST PUSH1 0x0 PUSH2 0x205E PUSH1 0x3 PUSH1 0x0 SWAP1 SLOAD SWAP1 PUSH2 0x100 EXP SWAP1 DIV PUSH20 0xFFFFFFFFFFFFFFFFFFFFFFFFFFFFFFFFFFFFFFFF AND PUSH20 0xFFFFFFFFFFFFFFFFFFFFFFFFFFFFFFFFFFFFFFFF AND PUSH4 0x9839EAFD DUP5 PUSH1 0x40 MLOAD DUP3 PUSH4 0xFFFFFFFF AND PUSH1 0xE0 SHL DUP2 MSTORE PUSH1 0x4 ADD PUSH2 0x1F77 SWAP2 SWAP1 PUSH2 0x5A76 JUMP JUMPDEST PUSH1 0x0 PUSH1 0x40 MLOAD DUP1 DUP4 SUB DUP2 DUP7 DUP1 EXTCODESIZE ISZERO DUP1 ISZERO PUSH2 0x1F8F JUMPI PUSH1 0x0 DUP1 REVERT JUMPDEST POP GAS STATICCALL ISZERO DUP1 ISZERO PUSH2 0x1FA3 JUMPI RETURNDATASIZE PUSH1 0x0 DUP1 RETURNDATACOPY RETURNDATASIZE PUSH1 0x0 REVERT JUMPDEST POP POP POP POP PUSH1 0x40 MLOAD RETURNDATASIZE PUSH1 0x0 DUP3 RETURNDATACOPY RETURNDATASIZE PUSH1 0x1F NOT PUSH1 0x1F DUP3 ADD AND DUP3 ADD DUP1 PUSH1 0x40 MSTORE POP DUP2 ADD SWAP1 PUSH2 0x1FCC SWAP2 SWAP1 PUSH2 0x40DF JUMP JUMPDEST PUSH1 0x8 PUSH1 0x0 DUP7 DUP2 MSTORE PUSH1 0x20 ADD SWAP1 DUP2 MSTORE PUSH1 0x20 ADD PUSH1 0x0 KECCAK256 PUSH1 0x7 ADD DUP1 SLOAD DUP1 PUSH1 0x20 MUL PUSH1 0x20 ADD PUSH1 0x40 MLOAD SWAP1 DUP2 ADD PUSH1 0x40 MSTORE DUP1 SWAP3 SWAP2 SWAP1 DUP2 DUP2 MSTORE PUSH1 0x20 ADD DUP3 DUP1 SLOAD DUP1 ISZERO PUSH2 0x2054 JUMPI PUSH1 0x20 MUL DUP3 ADD SWAP2 SWAP1 PUSH1 0x0 MSTORE PUSH1 0x20 PUSH1 0x0 KECCAK256 SWAP1 PUSH1 0x0 SWAP1 JUMPDEST DUP3 DUP3 SWAP1 SLOAD SWAP1 PUSH2 0x100 EXP SWAP1 DIV PUSH2 0xFFFF AND PUSH2 0xFFFF AND DUP2 MSTORE PUSH1 0x20 ADD SWAP1 PUSH1 0x2 ADD SWAP1 PUSH1 0x20 DUP3 PUSH1 0x1 ADD DIV SWAP3 DUP4 ADD SWAP3 PUSH1 0x1 SUB DUP3 MUL SWAP2 POP DUP1 DUP5 GT PUSH2 0x201B JUMPI SWAP1 POP JUMPDEST POP POP POP POP POP PUSH2 0x334C JUMP JUMPDEST SWAP1 POP PUSH1 0x0 PUSH2 0x206C DUP3 DUP6 PUSH2 0x33AE JUMP JUMPDEST SWAP1 POP PUSH2 0x2097 DUP2 PUSH1 0x8 PUSH1 0x0 DUP8 DUP2 MSTORE PUSH1 0x20 ADD SWAP1 DUP2 MSTORE PUSH1 0x20 ADD PUSH1 0x0 KECCAK256 PUSH1 0x2 ADD SLOAD PUSH2 0x3463 SWAP1 SWAP2 SWAP1 PUSH4 0xFFFFFFFF AND JUMP JUMPDEST PUSH1 0x8 PUSH1 0x0 DUP7 DUP2 MSTORE PUSH1 0x20 ADD SWAP1 DUP2 MSTORE PUSH1 0x20 ADD PUSH1 0x0 KECCAK256 PUSH1 0x2 ADD DUP2 SWAP1 SSTORE POP PUSH2 0x20FE CALLER DUP3 PUSH1 0x2 PUSH1 0x0 SWAP1 SLOAD SWAP1 PUSH2 0x100 EXP SWAP1 DIV PUSH20 0xFFFFFFFFFFFFFFFFFFFFFFFFFFFFFFFFFFFFFFFF AND PUSH20 0xFFFFFFFFFFFFFFFFFFFFFFFFFFFFFFFFFFFFFFFF AND PUSH2 0x3508 SWAP1 SWAP3 SWAP2 SWAP1 PUSH4 0xFFFFFFFF AND JUMP JUMPDEST POP POP POP POP JUMP JUMPDEST PUSH1 0x7 PUSH1 0x4 SWAP1 SLOAD SWAP1 PUSH2 0x100 EXP SWAP1 DIV PUSH1 0xFF AND DUP2 JUMP JUMPDEST PUSH1 0x0 DUP1 PUSH1 0x0 SWAP1 SLOAD SWAP1 PUSH2 0x100 EXP SWAP1 DIV PUSH20 0xFFFFFFFFFFFFFFFFFFFFFFFFFFFFFFFFFFFFFFFF AND SWAP1 POP SWAP1 JUMP JUMPDEST PUSH2 0x2148 PUSH2 0x32B0 JUMP JUMPDEST PUSH20 0xFFFFFFFFFFFFFFFFFFFFFFFFFFFFFFFFFFFFFFFF AND PUSH2 0x2166 PUSH2 0x2117 JUMP JUMPDEST PUSH20 0xFFFFFFFFFFFFFFFFFFFFFFFFFFFFFFFFFFFFFFFF AND EQ PUSH2 0x21BC JUMPI PUSH1 0x40 MLOAD PUSH32 0x8C379A000000000000000000000000000000000000000000000000000000000 DUP2 MSTORE PUSH1 0x4 ADD PUSH2 0x21B3 SWAP1 PUSH2 0x58F9 JUMP JUMPDEST PUSH1 0x40 MLOAD DUP1 SWAP2 SUB SWAP1 REVERT JUMPDEST PUSH1 0x0 DUP6 PUSH1 0xFF AND EQ ISZERO DUP1 ISZERO PUSH2 0x21D4 JUMPI POP PUSH1 0x0 DUP5 PUSH1 0xFF AND EQ ISZERO JUMPDEST PUSH2 0x2213 JUMPI PUSH1 0x40 MLOAD PUSH32 0x8C379A000000000000000000000000000000000000000000000000000000000 DUP2 MSTORE PUSH1 0x4 ADD PUSH2 0x220A SWAP1 PUSH2 0x5979 JUMP JUMPDEST PUSH1 0x40 MLOAD DUP1 SWAP2 SUB SWAP1 REVERT JUMPDEST DUP4 PUSH1 0xFF AND DUP6 PUSH1 0xFF AND LT PUSH2 0x225B JUMPI PUSH1 0x40 MLOAD PUSH32 0x8C379A000000000000000000000000000000000000000000000000000000000 DUP2 MSTORE PUSH1 0x4 ADD PUSH2 0x2252 SWAP1 PUSH2 0x5639 JUMP JUMPDEST PUSH1 0x40 MLOAD DUP1 SWAP2 SUB SWAP1 REVERT JUMPDEST DUP2 PUSH1 0xFF AND DUP4 PUSH1 0xFF AND LT DUP1 ISZERO PUSH2 0x2275 JUMPI POP DUP1 PUSH1 0xFF AND DUP3 PUSH1 0xFF AND LT JUMPDEST PUSH2 0x22B4 JUMPI PUSH1 0x40 MLOAD PUSH32 0x8C379A000000000000000000000000000000000000000000000000000000000 DUP2 MSTORE PUSH1 0x4 ADD PUSH2 0x22AB SWAP1 PUSH2 0x5699 JUMP JUMPDEST PUSH1 0x40 MLOAD DUP1 SWAP2 SUB SWAP1 REVERT JUMPDEST DUP5 PUSH1 0x7 PUSH1 0x3 PUSH2 0x100 EXP DUP2 SLOAD DUP2 PUSH1 0xFF MUL NOT AND SWAP1 DUP4 PUSH1 0xFF AND MUL OR SWAP1 SSTORE POP DUP4 PUSH1 0x7 PUSH1 0x4 PUSH2 0x100 EXP DUP2 SLOAD DUP2 PUSH1 0xFF MUL NOT AND SWAP1 DUP4 PUSH1 0xFF AND MUL OR SWAP1 SSTORE POP DUP3 PUSH1 0x7 PUSH1 0x5 PUSH2 0x100 EXP DUP2 SLOAD DUP2 PUSH1 0xFF MUL NOT AND SWAP1 DUP4 PUSH1 0xFF AND MUL OR SWAP1 SSTORE POP DUP2 PUSH1 0x7 PUSH1 0x6 PUSH2 0x100 EXP DUP2 SLOAD DUP2 PUSH1 0xFF MUL NOT AND SWAP1 DUP4 PUSH1 0xFF AND MUL OR SWAP1 SSTORE POP DUP1 PUSH1 0x7 DUP1 PUSH2 0x100 EXP DUP2 SLOAD DUP2 PUSH1 0xFF MUL NOT AND SWAP1 DUP4 PUSH1 0xFF AND MUL OR SWAP1 SSTORE POP PUSH32 0x1618BEB8A3C654575D63A5D2E28C8FC894FED0753514441C68F2E17A40BDDD6 CALLER DUP7 DUP7 DUP7 DUP7 DUP7 PUSH1 0x40 MLOAD PUSH2 0x2373 SWAP7 SWAP6 SWAP5 SWAP4 SWAP3 SWAP2 SWAP1 PUSH2 0x546A JUMP JUMPDEST PUSH1 0x40 MLOAD DUP1 SWAP2 SUB SWAP1 LOG1 POP POP POP POP POP JUMP JUMPDEST PUSH1 0x7 DUP1 SLOAD SWAP1 PUSH2 0x100 EXP SWAP1 DIV PUSH1 0xFF AND DUP2 JUMP JUMPDEST PUSH1 0x7 PUSH1 0x1 SWAP1 SLOAD SWAP1 PUSH2 0x100 EXP SWAP1 DIV PUSH2 0xFFFF AND DUP2 JUMP JUMPDEST PUSH1 0x7 PUSH1 0x5 SWAP1 SLOAD SWAP1 PUSH2 0x100 EXP SWAP1 DIV PUSH1 0xFF AND DUP2 JUMP JUMPDEST PUSH2 0x23D9 CALLER PUSH20 0xFFFFFFFFFFFFFFFFFFFFFFFFFFFFFFFFFFFFFFFF AND PUSH2 0x3339 JUMP JUMPDEST ISZERO PUSH2 0x2419 JUMPI PUSH1 0x40 MLOAD PUSH32 0x8C379A000000000000000000000000000000000000000000000000000000000 DUP2 MSTORE PUSH1 0x4 ADD PUSH2 0x2410 SWAP1 PUSH2 0x5919 JUMP JUMPDEST PUSH1 0x40 MLOAD DUP1 SWAP2 SUB SWAP1 REVERT JUMPDEST ORIGIN PUSH20 0xFFFFFFFFFFFFFFFFFFFFFFFFFFFFFFFFFFFFFFFF AND CALLER PUSH20 0xFFFFFFFFFFFFFFFFFFFFFFFFFFFFFFFFFFFFFFFF AND EQ PUSH2 0x2487 JUMPI PUSH1 0x40 MLOAD PUSH32 0x8C379A000000000000000000000000000000000000000000000000000000000 DUP2 MSTORE PUSH1 0x4 ADD PUSH2 0x247E SWAP1 PUSH2 0x5579 JUMP JUMPDEST PUSH1 0x40 MLOAD DUP1 SWAP2 SUB SWAP1 REVERT JUMPDEST PUSH1 0x8 PUSH1 0x0 DUP6 DUP2 MSTORE PUSH1 0x20 ADD SWAP1 DUP2 MSTORE PUSH1 0x20 ADD PUSH1 0x0 KECCAK256 PUSH1 0x5 ADD SLOAD PUSH2 0x24A6 PUSH2 0xA59 JUMP JUMPDEST LT ISZERO PUSH2 0x24E7 JUMPI PUSH1 0x40 MLOAD PUSH32 0x8C379A000000000000000000000000000000000000000000000000000000000 DUP2 MSTORE PUSH1 0x4 ADD PUSH2 0x24DE SWAP1 PUSH2 0x5719 JUMP JUMPDEST PUSH1 0x40 MLOAD DUP1 SWAP2 SUB SWAP1 REVERT JUMPDEST PUSH1 0x8 PUSH1 0x0 DUP6 DUP2 MSTORE PUSH1 0x20 ADD SWAP1 DUP2 MSTORE PUSH1 0x20 ADD PUSH1 0x0 KECCAK256 PUSH1 0x6 ADD SLOAD PUSH2 0x2506 PUSH2 0xA59 JUMP JUMPDEST LT PUSH2 0x2546 JUMPI PUSH1 0x40 MLOAD PUSH32 0x8C379A000000000000000000000000000000000000000000000000000000000 DUP2 MSTORE PUSH1 0x4 ADD PUSH2 0x253D SWAP1 PUSH2 0x57B9 JUMP JUMPDEST PUSH1 0x40 MLOAD DUP1 SWAP2 SUB SWAP1 REVERT JUMPDEST PUSH1 0x0 PUSH1 0x3 DUP2 GT ISZERO PUSH2 0x2553 JUMPI INVALID JUMPDEST PUSH1 0x8 PUSH1 0x0 DUP7 DUP2 MSTORE PUSH1 0x20 ADD SWAP1 DUP2 MSTORE PUSH1 0x20 ADD PUSH1 0x0 KECCAK256 PUSH1 0x1 ADD PUSH1 0x0 SWAP1 SLOAD SWAP1 PUSH2 0x100 EXP SWAP1 DIV PUSH1 0xFF AND PUSH1 0x3 DUP2 GT ISZERO PUSH2 0x2582 JUMPI INVALID JUMPDEST EQ ISZERO PUSH2 0x25E6 JUMPI PUSH2 0x2590 PUSH2 0xA59 JUMP JUMPDEST PUSH1 0x8 PUSH1 0x0 DUP7 DUP2 MSTORE PUSH1 0x20 ADD SWAP1 DUP2 MSTORE PUSH1 0x20 ADD PUSH1 0x0 KECCAK256 PUSH1 0x5 ADD SLOAD LT PUSH2 0x25E5 JUMPI PUSH1 0x1 PUSH1 0x8 PUSH1 0x0 DUP7 DUP2 MSTORE PUSH1 0x20 ADD SWAP1 DUP2 MSTORE PUSH1 0x20 ADD PUSH1 0x0 KECCAK256 PUSH1 0x1 ADD PUSH1 0x0 PUSH2 0x100 EXP DUP2 SLOAD DUP2 PUSH1 0xFF MUL NOT AND SWAP1 DUP4 PUSH1 0x3 DUP2 GT ISZERO PUSH2 0x25DF JUMPI INVALID JUMPDEST MUL OR SWAP1 SSTORE POP JUMPDEST JUMPDEST PUSH1 0x1 PUSH1 0x3 DUP2 GT ISZERO PUSH2 0x25F3 JUMPI INVALID JUMPDEST PUSH1 0x8 PUSH1 0x0 DUP7 DUP2 MSTORE PUSH1 0x20 ADD SWAP1 DUP2 MSTORE PUSH1 0x20 ADD PUSH1 0x0 KECCAK256 PUSH1 0x1 ADD PUSH1 0x0 SWAP1 SLOAD SWAP1 PUSH2 0x100 EXP SWAP1 DIV PUSH1 0xFF AND PUSH1 0x3 DUP2 GT ISZERO PUSH2 0x2622 JUMPI INVALID JUMPDEST EQ PUSH2 0x2662 JUMPI PUSH1 0x40 MLOAD PUSH32 0x8C379A000000000000000000000000000000000000000000000000000000000 DUP2 MSTORE PUSH1 0x4 ADD PUSH2 0x2659 SWAP1 PUSH2 0x5999 JUMP JUMPDEST PUSH1 0x40 MLOAD DUP1 SWAP2 SUB SWAP1 REVERT JUMPDEST PUSH1 0x32 DUP4 PUSH1 0xFF AND GT ISZERO PUSH2 0x26A9 JUMPI PUSH1 0x40 MLOAD PUSH32 0x8C379A000000000000000000000000000000000000000000000000000000000 DUP2 MSTORE PUSH1 0x4 ADD PUSH2 0x26A0 SWAP1 PUSH2 0x55F9 JUMP JUMPDEST PUSH1 0x40 MLOAD DUP1 SWAP2 SUB SWAP1 REVERT JUMPDEST PUSH1 0x0 PUSH2 0x26D0 PUSH1 0x7 PUSH1 0x0 SWAP1 SLOAD SWAP1 PUSH2 0x100 EXP SWAP1 DIV PUSH1 0xFF AND DUP6 PUSH1 0xFF AND PUSH2 0x358E SWAP1 SWAP2 SWAP1 PUSH4 0xFFFFFFFF AND JUMP JUMPDEST PUSH1 0xFF AND SWAP1 POP DUP1 DUP4 DUP4 SWAP1 POP EQ PUSH2 0x271A JUMPI PUSH1 0x40 MLOAD PUSH32 0x8C379A000000000000000000000000000000000000000000000000000000000 DUP2 MSTORE PUSH1 0x4 ADD PUSH2 0x2711 SWAP1 PUSH2 0x5899 JUMP JUMPDEST PUSH1 0x40 MLOAD DUP1 SWAP2 SUB SWAP1 REVERT JUMPDEST PUSH1 0x0 DUP1 PUSH1 0x0 ADDRESS PUSH20 0xFFFFFFFFFFFFFFFFFFFFFFFFFFFFFFFFFFFFFFFF AND PUSH4 0xDCCDA096 DUP10 DUP10 PUSH1 0x40 MLOAD DUP4 PUSH4 0xFFFFFFFF AND PUSH1 0xE0 SHL DUP2 MSTORE PUSH1 0x4 ADD PUSH2 0x275A SWAP3 SWAP2 SWAP1 PUSH2 0x5B1A JUMP JUMPDEST PUSH1 0x60 PUSH1 0x40 MLOAD DUP1 DUP4 SUB DUP2 DUP7 DUP1 EXTCODESIZE ISZERO DUP1 ISZERO PUSH2 0x2772 JUMPI PUSH1 0x0 DUP1 REVERT JUMPDEST POP GAS STATICCALL ISZERO DUP1 ISZERO PUSH2 0x2786 JUMPI RETURNDATASIZE PUSH1 0x0 DUP1 RETURNDATACOPY RETURNDATASIZE PUSH1 0x0 REVERT JUMPDEST POP POP POP POP PUSH1 0x40 MLOAD RETURNDATASIZE PUSH1 0x1F NOT PUSH1 0x1F DUP3 ADD AND DUP3 ADD DUP1 PUSH1 0x40 MSTORE POP DUP2 ADD SWAP1 PUSH2 0x27AA SWAP2 SWAP1 PUSH2 0x43A3 JUMP JUMPDEST SWAP3 POP SWAP3 POP SWAP3 POP PUSH1 0x2 PUSH1 0x0 SWAP1 SLOAD SWAP1 PUSH2 0x100 EXP SWAP1 DIV PUSH20 0xFFFFFFFFFFFFFFFFFFFFFFFFFFFFFFFFFFFFFFFF AND PUSH20 0xFFFFFFFFFFFFFFFFFFFFFFFFFFFFFFFFFFFFFFFF AND PUSH4 0x23B872DD CALLER ADDRESS DUP5 PUSH1 0x40 MLOAD DUP5 PUSH4 0xFFFFFFFF AND PUSH1 0xE0 SHL DUP2 MSTORE PUSH1 0x4 ADD PUSH2 0x280F SWAP4 SWAP3 SWAP2 SWAP1 PUSH2 0x535C JUMP JUMPDEST PUSH1 0x20 PUSH1 0x40 MLOAD DUP1 DUP4 SUB DUP2 PUSH1 0x0 DUP8 DUP1 EXTCODESIZE ISZERO DUP1 ISZERO PUSH2 0x2829 JUMPI PUSH1 0x0 DUP1 REVERT JUMPDEST POP GAS CALL ISZERO DUP1 ISZERO PUSH2 0x283D JUMPI RETURNDATASIZE PUSH1 0x0 DUP1 RETURNDATACOPY RETURNDATASIZE PUSH1 0x0 REVERT JUMPDEST POP POP POP POP PUSH1 0x40 MLOAD RETURNDATASIZE PUSH1 0x1F NOT PUSH1 0x1F DUP3 ADD AND DUP3 ADD DUP1 PUSH1 0x40 MSTORE POP DUP2 ADD SWAP1 PUSH2 0x2861 SWAP2 SWAP1 PUSH2 0x41F3 JUMP JUMPDEST POP PUSH1 0x60 PUSH1 0x3 PUSH1 0x0 SWAP1 SLOAD SWAP1 PUSH2 0x100 EXP SWAP1 DIV PUSH20 0xFFFFFFFFFFFFFFFFFFFFFFFFFFFFFFFFFFFFFFFF AND PUSH20 0xFFFFFFFFFFFFFFFFFFFFFFFFFFFFFFFFFFFFFFFF AND PUSH4 0x5E3261D0 CALLER DUP12 DUP12 DUP12 DUP12 PUSH1 0x7 PUSH1 0x0 SWAP1 SLOAD SWAP1 PUSH2 0x100 EXP SWAP1 DIV PUSH1 0xFF AND PUSH1 0x40 MLOAD DUP8 PUSH4 0xFFFFFFFF AND PUSH1 0xE0 SHL DUP2 MSTORE PUSH1 0x4 ADD PUSH2 0x28D8 SWAP7 SWAP6 SWAP5 SWAP4 SWAP3 SWAP2 SWAP1 PUSH2 0x53E5 JUMP JUMPDEST PUSH1 0x0 PUSH1 0x40 MLOAD DUP1 DUP4 SUB DUP2 PUSH1 0x0 DUP8 DUP1 EXTCODESIZE ISZERO DUP1 ISZERO PUSH2 0x28F2 JUMPI PUSH1 0x0 DUP1 REVERT JUMPDEST POP GAS CALL ISZERO DUP1 ISZERO PUSH2 0x2906 JUMPI RETURNDATASIZE PUSH1 0x0 DUP1 RETURNDATACOPY RETURNDATASIZE PUSH1 0x0 REVERT JUMPDEST POP POP POP POP PUSH1 0x40 MLOAD RETURNDATASIZE PUSH1 0x0 DUP3 RETURNDATACOPY RETURNDATASIZE PUSH1 0x1F NOT PUSH1 0x1F DUP3 ADD AND DUP3 ADD DUP1 PUSH1 0x40 MSTORE POP DUP2 ADD SWAP1 PUSH2 0x292F SWAP2 SWAP1 PUSH2 0x4120 JUMP JUMPDEST SWAP1 POP CALLER PUSH20 0xFFFFFFFFFFFFFFFFFFFFFFFFFFFFFFFFFFFFFFFF AND PUSH32 0xF3B6BFFCEBBA7579100B0C6D1A161291881AC36E30C7ECED22D0103370E6CAFC DUP3 DUP10 DUP10 DUP9 DUP9 DUP9 PUSH1 0x40 MLOAD PUSH2 0x2981 SWAP7 SWAP6 SWAP5 SWAP4 SWAP3 SWAP2 SWAP1 PUSH2 0x54F4 JUMP JUMPDEST PUSH1 0x40 MLOAD DUP1 SWAP2 SUB SWAP1 LOG2 POP POP POP POP POP POP POP POP POP JUMP JUMPDEST PUSH2 0x299C PUSH2 0x32B0 JUMP JUMPDEST PUSH20 0xFFFFFFFFFFFFFFFFFFFFFFFFFFFFFFFFFFFFFFFF AND PUSH2 0x29BA PUSH2 0x2117 JUMP JUMPDEST PUSH20 0xFFFFFFFFFFFFFFFFFFFFFFFFFFFFFFFFFFFFFFFF AND EQ PUSH2 0x2A10 JUMPI PUSH1 0x40 MLOAD PUSH32 0x8C379A000000000000000000000000000000000000000000000000000000000 DUP2 MSTORE PUSH1 0x4 ADD PUSH2 0x2A07 SWAP1 PUSH2 0x58F9 JUMP JUMPDEST PUSH1 0x40 MLOAD DUP1 SWAP2 SUB SWAP1 REVERT JUMPDEST PUSH1 0x2 PUSH1 0x0 SWAP1 SLOAD SWAP1 PUSH2 0x100 EXP SWAP1 DIV PUSH20 0xFFFFFFFFFFFFFFFFFFFFFFFFFFFFFFFFFFFFFFFF AND PUSH20 0xFFFFFFFFFFFFFFFFFFFFFFFFFFFFFFFFFFFFFFFF AND PUSH4 0xA9059CBB CALLER DUP4 PUSH1 0x40 MLOAD DUP4 PUSH4 0xFFFFFFFF AND PUSH1 0xE0 SHL DUP2 MSTORE PUSH1 0x4 ADD PUSH2 0x2A6D SWAP3 SWAP2 SWAP1 PUSH2 0x53BC JUMP JUMPDEST PUSH1 0x20 PUSH1 0x40 MLOAD DUP1 DUP4 SUB DUP2 PUSH1 0x0 DUP8 DUP1 EXTCODESIZE ISZERO DUP1 ISZERO PUSH2 0x2A87 JUMPI PUSH1 0x0 DUP1 REVERT JUMPDEST POP GAS CALL ISZERO DUP1 ISZERO PUSH2 0x2A9B JUMPI RETURNDATASIZE PUSH1 0x0 DUP1 RETURNDATACOPY RETURNDATASIZE PUSH1 0x0 REVERT JUMPDEST POP POP POP POP PUSH1 0x40 MLOAD RETURNDATASIZE PUSH1 0x1F NOT PUSH1 0x1F DUP3 ADD AND DUP3 ADD DUP1 PUSH1 0x40 MSTORE POP DUP2 ADD SWAP1 PUSH2 0x2ABF SWAP2 SWAP1 PUSH2 0x41F3 JUMP JUMPDEST POP POP JUMP JUMPDEST PUSH2 0x2ACB PUSH2 0x32B0 JUMP JUMPDEST PUSH20 0xFFFFFFFFFFFFFFFFFFFFFFFFFFFFFFFFFFFFFFFF AND PUSH2 0x2AE9 PUSH2 0x2117 JUMP JUMPDEST PUSH20 0xFFFFFFFFFFFFFFFFFFFFFFFFFFFFFFFFFFFFFFFF AND EQ PUSH2 0x2B3F JUMPI PUSH1 0x40 MLOAD PUSH32 0x8C379A000000000000000000000000000000000000000000000000000000000 DUP2 MSTORE PUSH1 0x4 ADD PUSH2 0x2B36 SWAP1 PUSH2 0x58F9 JUMP JUMPDEST PUSH1 0x40 MLOAD DUP1 SWAP2 SUB SWAP1 REVERT JUMPDEST DUP1 PUSH2 0xFFFF AND PUSH1 0x7 PUSH1 0x1 SWAP1 SLOAD SWAP1 PUSH2 0x100 EXP SWAP1 DIV PUSH2 0xFFFF AND PUSH2 0xFFFF AND EQ ISZERO PUSH2 0x2B9A JUMPI PUSH1 0x40 MLOAD PUSH32 0x8C379A000000000000000000000000000000000000000000000000000000000 DUP2 MSTORE PUSH1 0x4 ADD PUSH2 0x2B91 SWAP1 PUSH2 0x5819 JUMP JUMPDEST PUSH1 0x40 MLOAD DUP1 SWAP2 SUB SWAP1 REVERT JUMPDEST PUSH1 0x0 PUSH1 0x7 PUSH1 0x1 SWAP1 SLOAD SWAP1 PUSH2 0x100 EXP SWAP1 DIV PUSH2 0xFFFF AND PUSH2 0xFFFF AND EQ ISZERO PUSH2 0x2BF2 JUMPI PUSH1 0x40 MLOAD PUSH32 0x8C379A000000000000000000000000000000000000000000000000000000000 DUP2 MSTORE PUSH1 0x4 ADD PUSH2 0x2BE9 SWAP1 PUSH2 0x57F9 JUMP JUMPDEST PUSH1 0x40 MLOAD DUP1 SWAP2 SUB SWAP1 REVERT JUMPDEST DUP1 PUSH1 0x7 PUSH1 0x1 PUSH2 0x100 EXP DUP2 SLOAD DUP2 PUSH2 0xFFFF MUL NOT AND SWAP1 DUP4 PUSH2 0xFFFF AND MUL OR SWAP1 SSTORE POP PUSH32 0x2A54F3414068117C88AFC33D8E1DEA5F6330DF95E10EF41731BAEA27AB8A946E CALLER DUP3 PUSH1 0x40 MLOAD PUSH2 0x2C40 SWAP3 SWAP2 SWAP1 PUSH2 0x5393 JUMP JUMPDEST PUSH1 0x40 MLOAD DUP1 SWAP2 SUB SWAP1 LOG1 POP JUMP JUMPDEST PUSH2 0x2C53 PUSH2 0x3BA9 JUMP JUMPDEST PUSH1 0x8 PUSH1 0x0 DUP4 DUP2 MSTORE PUSH1 0x20 ADD SWAP1 DUP2 MSTORE PUSH1 0x20 ADD PUSH1 0x0 KECCAK256 PUSH1 0x40 MLOAD DUP1 PUSH2 0x100 ADD PUSH1 0x40 MSTORE SWAP1 DUP2 PUSH1 0x0 DUP3 ADD SLOAD DUP2 MSTORE PUSH1 0x20 ADD PUSH1 0x1 DUP3 ADD PUSH1 0x0 SWAP1 SLOAD SWAP1 PUSH2 0x100 EXP SWAP1 DIV PUSH1 0xFF AND PUSH1 0x3 DUP2 GT ISZERO PUSH2 0x2C9A JUMPI INVALID JUMPDEST PUSH1 0x3 DUP2 GT ISZERO PUSH2 0x2CA5 JUMPI INVALID JUMPDEST DUP2 MSTORE PUSH1 0x20 ADD PUSH1 0x2 DUP3 ADD SLOAD DUP2 MSTORE PUSH1 0x20 ADD PUSH1 0x3 DUP3 ADD SLOAD DUP2 MSTORE PUSH1 0x20 ADD PUSH1 0x4 DUP3 ADD DUP1 SLOAD DUP1 PUSH1 0x20 MUL PUSH1 0x20 ADD PUSH1 0x40 MLOAD SWAP1 DUP2 ADD PUSH1 0x40 MSTORE DUP1 SWAP3 SWAP2 SWAP1 DUP2 DUP2 MSTORE PUSH1 0x20 ADD DUP3 DUP1 SLOAD DUP1 ISZERO PUSH2 0x2D32 JUMPI PUSH1 0x20 MUL DUP3 ADD SWAP2 SWAP1 PUSH1 0x0 MSTORE PUSH1 0x20 PUSH1 0x0 KECCAK256 SWAP1 PUSH1 0x0 SWAP1 JUMPDEST DUP3 DUP3 SWAP1 SLOAD SWAP1 PUSH2 0x100 EXP SWAP1 DIV PUSH1 0xFF AND PUSH1 0xFF AND DUP2 MSTORE PUSH1 0x20 ADD SWAP1 PUSH1 0x1 ADD SWAP1 PUSH1 0x20 DUP3 PUSH1 0x0 ADD DIV SWAP3 DUP4 ADD SWAP3 PUSH1 0x1 SUB DUP3 MUL SWAP2 POP DUP1 DUP5 GT PUSH2 0x2CFB JUMPI SWAP1 POP JUMPDEST POP POP POP POP POP DUP2 MSTORE PUSH1 0x20 ADD PUSH1 0x5 DUP3 ADD SLOAD DUP2 MSTORE PUSH1 0x20 ADD PUSH1 0x6 DUP3 ADD SLOAD DUP2 MSTORE PUSH1 0x20 ADD PUSH1 0x7 DUP3 ADD DUP1 SLOAD DUP1 PUSH1 0x20 MUL PUSH1 0x20 ADD PUSH1 0x40 MLOAD SWAP1 DUP2 ADD PUSH1 0x40 MSTORE DUP1 SWAP3 SWAP2 SWAP1 DUP2 DUP2 MSTORE PUSH1 0x20 ADD DUP3 DUP1 SLOAD DUP1 ISZERO PUSH2 0x2DC6 JUMPI PUSH1 0x20 MUL DUP3 ADD SWAP2 SWAP1 PUSH1 0x0 MSTORE PUSH1 0x20 PUSH1 0x0 KECCAK256 SWAP1 PUSH1 0x0 SWAP1 JUMPDEST DUP3 DUP3 SWAP1 SLOAD SWAP1 PUSH2 0x100 EXP SWAP1 DIV PUSH2 0xFFFF AND PUSH2 0xFFFF AND DUP2 MSTORE PUSH1 0x20 ADD SWAP1 PUSH1 0x2 ADD SWAP1 PUSH1 0x20 DUP3 PUSH1 0x1 ADD DIV SWAP3 DUP4 ADD SWAP3 PUSH1 0x1 SUB DUP3 MUL SWAP2 POP DUP1 DUP5 GT PUSH2 0x2D8D JUMPI SWAP1 POP JUMPDEST POP POP POP POP POP DUP2 MSTORE POP POP SWAP1 POP SWAP2 SWAP1 POP JUMP JUMPDEST PUSH1 0x0 DUP1 PUSH1 0x0 PUSH2 0x2DE5 DUP6 DUP6 PUSH2 0x360D JUMP JUMPDEST SWAP2 POP ADDRESS PUSH20 0xFFFFFFFFFFFFFFFFFFFFFFFFFFFFFFFFFFFFFFFF AND PUSH4 0x4F7D93DB DUP7 DUP7 PUSH1 0x40 MLOAD DUP4 PUSH4 0xFFFFFFFF AND PUSH1 0xE0 SHL DUP2 MSTORE PUSH1 0x4 ADD PUSH2 0x2E22 SWAP3 SWAP2 SWAP1 PUSH2 0x5ABA JUMP JUMPDEST PUSH1 0x20 PUSH1 0x40 MLOAD DUP1 DUP4 SUB DUP2 DUP7 DUP1 EXTCODESIZE ISZERO DUP1 ISZERO PUSH2 0x2E3A JUMPI PUSH1 0x0 DUP1 REVERT JUMPDEST POP GAS STATICCALL ISZERO DUP1 ISZERO PUSH2 0x2E4E JUMPI RETURNDATASIZE PUSH1 0x0 DUP1 RETURNDATACOPY RETURNDATASIZE PUSH1 0x0 REVERT JUMPDEST POP POP POP POP PUSH1 0x40 MLOAD RETURNDATASIZE PUSH1 0x1F NOT PUSH1 0x1F DUP3 ADD AND DUP3 ADD DUP1 PUSH1 0x40 MSTORE POP DUP2 ADD SWAP1 PUSH2 0x2E72 SWAP2 SWAP1 PUSH2 0x4297 JUMP JUMPDEST SWAP3 POP PUSH2 0x2E87 DUP3 DUP5 PUSH2 0x3463 SWAP1 SWAP2 SWAP1 PUSH4 0xFFFFFFFF AND JUMP JUMPDEST SWAP1 POP SWAP3 POP SWAP3 POP SWAP3 JUMP JUMPDEST PUSH1 0x0 PUSH1 0x7 PUSH1 0x1 SWAP1 SLOAD SWAP1 PUSH2 0x100 EXP SWAP1 DIV PUSH2 0xFFFF AND SWAP1 POP SWAP1 JUMP JUMPDEST PUSH1 0x4 PUSH1 0x0 SWAP1 SLOAD SWAP1 PUSH2 0x100 EXP SWAP1 DIV PUSH20 0xFFFFFFFFFFFFFFFFFFFFFFFFFFFFFFFFFFFFFFFF AND PUSH20 0xFFFFFFFFFFFFFFFFFFFFFFFFFFFFFFFFFFFFFFFF AND CALLER PUSH20 0xFFFFFFFFFFFFFFFFFFFFFFFFFFFFFFFFFFFFFFFF AND EQ PUSH2 0x2F38 JUMPI PUSH1 0x40 MLOAD PUSH32 0x8C379A000000000000000000000000000000000000000000000000000000000 DUP2 MSTORE PUSH1 0x4 ADD PUSH2 0x2F2F SWAP1 PUSH2 0x5599 JUMP JUMPDEST PUSH1 0x40 MLOAD DUP1 SWAP2 SUB SWAP1 REVERT JUMPDEST PUSH1 0x2 PUSH1 0x3 DUP2 GT ISZERO PUSH2 0x2F45 JUMPI INVALID JUMPDEST PUSH1 0x8 PUSH1 0x0 DUP6 DUP2 MSTORE PUSH1 0x20 ADD SWAP1 DUP2 MSTORE PUSH1 0x20 ADD PUSH1 0x0 KECCAK256 PUSH1 0x1 ADD PUSH1 0x0 SWAP1 SLOAD SWAP1 PUSH2 0x100 EXP SWAP1 DIV PUSH1 0xFF AND PUSH1 0x3 DUP2 GT ISZERO PUSH2 0x2F74 JUMPI INVALID JUMPDEST EQ PUSH2 0x2FB4 JUMPI PUSH1 0x40 MLOAD PUSH32 0x8C379A000000000000000000000000000000000000000000000000000000000 DUP2 MSTORE PUSH1 0x4 ADD PUSH2 0x2FAB SWAP1 PUSH2 0x5659 JUMP JUMPDEST PUSH1 0x40 MLOAD DUP1 SWAP2 SUB SWAP1 REVERT JUMPDEST DUP2 PUSH1 0x5 SLOAD EQ ISZERO PUSH2 0x302A JUMPI PUSH1 0x3 PUSH1 0x8 PUSH1 0x0 DUP6 DUP2 MSTORE PUSH1 0x20 ADD SWAP1 DUP2 MSTORE PUSH1 0x20 ADD PUSH1 0x0 KECCAK256 PUSH1 0x1 ADD PUSH1 0x0 PUSH2 0x100 EXP DUP2 SLOAD DUP2 PUSH1 0xFF MUL NOT AND SWAP1 DUP4 PUSH1 0x3 DUP2 GT ISZERO PUSH2 0x2FF1 JUMPI INVALID JUMPDEST MUL OR SWAP1 SSTORE POP PUSH2 0x2FFF DUP2 PUSH2 0x3790 JUMP JUMPDEST PUSH1 0x8 PUSH1 0x0 DUP6 DUP2 MSTORE PUSH1 0x20 ADD SWAP1 DUP2 MSTORE PUSH1 0x20 ADD PUSH1 0x0 KECCAK256 PUSH1 0x7 ADD SWAP1 DUP1 MLOAD SWAP1 PUSH1 0x20 ADD SWAP1 PUSH2 0x3028 SWAP3 SWAP2 SWAP1 PUSH2 0x3CA0 JUMP JUMPDEST POP JUMPDEST PUSH32 0x3728E75294796694D59D2FFCED9C394279BAF7B9EBD2702DB43F5F04BAC67929 DUP4 PUSH1 0x3 PUSH1 0x0 SWAP1 SLOAD SWAP1 PUSH2 0x100 EXP SWAP1 DIV PUSH20 0xFFFFFFFFFFFFFFFFFFFFFFFFFFFFFFFFFFFFFFFF AND PUSH20 0xFFFFFFFFFFFFFFFFFFFFFFFFFFFFFFFFFFFFFFFF AND PUSH4 0xC4E41B22 PUSH1 0x40 MLOAD DUP2 PUSH4 0xFFFFFFFF AND PUSH1 0xE0 SHL DUP2 MSTORE PUSH1 0x4 ADD PUSH1 0x20 PUSH1 0x40 MLOAD DUP1 DUP4 SUB DUP2 DUP7 DUP1 EXTCODESIZE ISZERO DUP1 ISZERO PUSH2 0x30B4 JUMPI PUSH1 0x0 DUP1 REVERT JUMPDEST POP GAS STATICCALL ISZERO DUP1 ISZERO PUSH2 0x30C8 JUMPI RETURNDATASIZE PUSH1 0x0 DUP1 RETURNDATACOPY RETURNDATASIZE PUSH1 0x0 REVERT JUMPDEST POP POP POP POP PUSH1 0x40 MLOAD RETURNDATASIZE PUSH1 0x1F NOT PUSH1 0x1F DUP3 ADD AND DUP3 ADD DUP1 PUSH1 0x40 MSTORE POP DUP2 ADD SWAP1 PUSH2 0x30EC SWAP2 SWAP1 PUSH2 0x4297 JUMP JUMPDEST PUSH1 0x40 MLOAD PUSH2 0x30FA SWAP3 SWAP2 SWAP1 PUSH2 0x5ABA JUMP JUMPDEST PUSH1 0x40 MLOAD DUP1 SWAP2 SUB SWAP1 LOG1 POP POP POP JUMP JUMPDEST PUSH2 0x310F PUSH2 0x32B0 JUMP JUMPDEST PUSH20 0xFFFFFFFFFFFFFFFFFFFFFFFFFFFFFFFFFFFFFFFF AND PUSH2 0x312D PUSH2 0x2117 JUMP JUMPDEST PUSH20 0xFFFFFFFFFFFFFFFFFFFFFFFFFFFFFFFFFFFFFFFF AND EQ PUSH2 0x3183 JUMPI PUSH1 0x40 MLOAD PUSH32 0x8C379A000000000000000000000000000000000000000000000000000000000 DUP2 MSTORE PUSH1 0x4 ADD PUSH2 0x317A SWAP1 PUSH2 0x58F9 JUMP JUMPDEST PUSH1 0x40 MLOAD DUP1 SWAP2 SUB SWAP1 REVERT JUMPDEST PUSH1 0x0 PUSH20 0xFFFFFFFFFFFFFFFFFFFFFFFFFFFFFFFFFFFFFFFF AND DUP2 PUSH20 0xFFFFFFFFFFFFFFFFFFFFFFFFFFFFFFFFFFFFFFFF AND EQ ISZERO PUSH2 0x31F3 JUMPI PUSH1 0x40 MLOAD PUSH32 0x8C379A000000000000000000000000000000000000000000000000000000000 DUP2 MSTORE PUSH1 0x4 ADD PUSH2 0x31EA SWAP1 PUSH2 0x5619 JUMP JUMPDEST PUSH1 0x40 MLOAD DUP1 SWAP2 SUB SWAP1 REVERT JUMPDEST DUP1 PUSH20 0xFFFFFFFFFFFFFFFFFFFFFFFFFFFFFFFFFFFFFFFF AND PUSH1 0x0 DUP1 SLOAD SWAP1 PUSH2 0x100 EXP SWAP1 DIV PUSH20 0xFFFFFFFFFFFFFFFFFFFFFFFFFFFFFFFFFFFFFFFF AND PUSH20 0xFFFFFFFFFFFFFFFFFFFFFFFFFFFFFFFFFFFFFFFF AND PUSH32 0x8BE0079C531659141344CD1FD0A4F28419497F9722A3DAAFE3B4186F6B6457E0 PUSH1 0x40 MLOAD PUSH1 0x40 MLOAD DUP1 SWAP2 SUB SWAP1 LOG3 DUP1 PUSH1 0x0 DUP1 PUSH2 0x100 EXP DUP2 SLOAD DUP2 PUSH20 0xFFFFFFFFFFFFFFFFFFFFFFFFFFFFFFFFFFFFFFFF MUL NOT AND SWAP1 DUP4 PUSH20 0xFFFFFFFFFFFFFFFFFFFFFFFFFFFFFFFFFFFFFFFF AND MUL OR SWAP1 SSTORE POP POP JUMP JUMPDEST PUSH1 0x0 CALLER SWAP1 POP SWAP1 JUMP JUMPDEST PUSH1 0x0 PUSH2 0x32C3 ADDRESS PUSH2 0x3339 JUMP JUMPDEST ISZERO SWAP1 POP SWAP1 JUMP JUMPDEST PUSH1 0x0 DUP1 DUP4 EQ ISZERO PUSH2 0x32DC JUMPI PUSH1 0x0 SWAP1 POP PUSH2 0x3333 JUMP JUMPDEST PUSH1 0x0 DUP3 DUP5 MUL SWAP1 POP DUP3 DUP5 DUP3 DUP2 PUSH2 0x32ED JUMPI INVALID JUMPDEST DIV EQ PUSH2 0x332E JUMPI PUSH1 0x40 MLOAD PUSH32 0x8C379A000000000000000000000000000000000000000000000000000000000 DUP2 MSTORE PUSH1 0x4 ADD PUSH2 0x3325 SWAP1 PUSH2 0x58D9 JUMP JUMPDEST PUSH1 0x40 MLOAD DUP1 SWAP2 SUB SWAP1 REVERT JUMPDEST DUP1 SWAP2 POP POP JUMPDEST SWAP3 SWAP2 POP POP JUMP JUMPDEST PUSH1 0x0 DUP1 DUP3 EXTCODESIZE SWAP1 POP PUSH1 0x0 DUP2 GT SWAP2 POP POP SWAP2 SWAP1 POP JUMP JUMPDEST PUSH1 0x0 DUP1 PUSH1 0x0 SWAP1 POP JUMPDEST DUP3 MLOAD DUP2 LT ISZERO PUSH2 0x33A7 JUMPI DUP3 DUP2 DUP2 MLOAD DUP2 LT PUSH2 0x3369 JUMPI INVALID JUMPDEST PUSH1 0x20 MUL PUSH1 0x20 ADD ADD MLOAD PUSH2 0xFFFF AND DUP5 DUP3 DUP2 MLOAD DUP2 LT PUSH2 0x3381 JUMPI INVALID JUMPDEST PUSH1 0x20 MUL PUSH1 0x20 ADD ADD MLOAD PUSH2 0xFFFF AND EQ ISZERO PUSH2 0x339A JUMPI PUSH1 0x1 DUP3 ADD SWAP2 POP JUMPDEST DUP1 DUP1 PUSH1 0x1 ADD SWAP2 POP POP PUSH2 0x3354 JUMP JUMPDEST POP SWAP3 SWAP2 POP POP JUMP JUMPDEST PUSH1 0x0 DUP1 PUSH1 0x0 SWAP1 POP PUSH1 0x0 DUP5 PUSH1 0xFF AND EQ ISZERO PUSH2 0x33CB JUMPI PUSH1 0x0 SWAP2 POP POP PUSH2 0x345D JUMP JUMPDEST PUSH1 0x0 PUSH1 0x8 PUSH1 0x0 DUP6 DUP2 MSTORE PUSH1 0x20 ADD SWAP1 DUP2 MSTORE PUSH1 0x20 ADD PUSH1 0x0 KECCAK256 PUSH1 0x4 ADD PUSH1 0x1 DUP7 SUB PUSH1 0xFF AND DUP2 SLOAD DUP2 LT PUSH2 0x33F4 JUMPI INVALID JUMPDEST SWAP1 PUSH1 0x0 MSTORE PUSH1 0x20 PUSH1 0x0 KECCAK256 SWAP1 PUSH1 0x20 SWAP2 DUP3 DUP3 DIV ADD SWAP2 SWAP1 MOD SWAP1 SLOAD SWAP1 PUSH2 0x100 EXP SWAP1 DIV PUSH1 0xFF AND PUSH1 0xFF AND SWAP1 POP PUSH2 0x3442 DUP2 PUSH1 0x8 PUSH1 0x0 DUP8 DUP2 MSTORE PUSH1 0x20 ADD SWAP1 DUP2 MSTORE PUSH1 0x20 ADD PUSH1 0x0 KECCAK256 PUSH1 0x2 ADD SLOAD PUSH2 0x32C9 SWAP1 SWAP2 SWAP1 PUSH4 0xFFFFFFFF AND JUMP JUMPDEST SWAP2 POP PUSH2 0x3458 PUSH1 0x64 DUP4 PUSH2 0x38A2 SWAP1 SWAP2 SWAP1 PUSH4 0xFFFFFFFF AND JUMP JUMPDEST SWAP3 POP POP POP JUMPDEST SWAP3 SWAP2 POP POP JUMP JUMPDEST PUSH1 0x0 DUP3 DUP3 GT ISZERO PUSH2 0x34A8 JUMPI PUSH1 0x40 MLOAD PUSH32 0x8C379A000000000000000000000000000000000000000000000000000000000 DUP2 MSTORE PUSH1 0x4 ADD PUSH2 0x349F SWAP1 PUSH2 0x5739 JUMP JUMPDEST PUSH1 0x40 MLOAD DUP1 SWAP2 SUB SWAP1 REVERT JUMPDEST DUP2 DUP4 SUB SWAP1 POP SWAP3 SWAP2 POP POP JUMP JUMPDEST PUSH1 0x0 DUP1 DUP3 DUP5 ADD SWAP1 POP DUP4 DUP2 LT ISZERO PUSH2 0x34FE JUMPI PUSH1 0x40 MLOAD PUSH32 0x8C379A000000000000000000000000000000000000000000000000000000000 DUP2 MSTORE PUSH1 0x4 ADD PUSH2 0x34F5 SWAP1 PUSH2 0x56B9 JUMP JUMPDEST PUSH1 0x40 MLOAD DUP1 SWAP2 SUB SWAP1 REVERT JUMPDEST DUP1 SWAP2 POP POP SWAP3 SWAP2 POP POP JUMP JUMPDEST PUSH2 0x3589 DUP4 PUSH4 0xA9059CBB PUSH1 0xE0 SHL DUP5 DUP5 PUSH1 0x40 MLOAD PUSH1 0x24 ADD PUSH2 0x3527 SWAP3 SWAP2 SWAP1 PUSH2 0x54CB JUMP JUMPDEST PUSH1 0x40 MLOAD PUSH1 0x20 DUP2 DUP4 SUB SUB DUP2 MSTORE SWAP1 PUSH1 0x40 MSTORE SWAP1 PUSH28 0xFFFFFFFFFFFFFFFFFFFFFFFFFFFFFFFFFFFFFFFFFFFFFFFFFFFFFFFF NOT AND PUSH1 0x20 DUP3 ADD DUP1 MLOAD PUSH28 0xFFFFFFFFFFFFFFFFFFFFFFFFFFFFFFFFFFFFFFFFFFFFFFFFFFFFFFFF DUP4 DUP2 DUP4 AND OR DUP4 MSTORE POP POP POP POP PUSH2 0x38F8 JUMP JUMPDEST POP POP POP JUMP JUMPDEST PUSH1 0x0 DUP1 DUP4 PUSH1 0xFF AND EQ ISZERO PUSH2 0x35A4 JUMPI PUSH1 0x0 SWAP1 POP PUSH2 0x3607 JUMP JUMPDEST PUSH1 0x0 DUP3 DUP5 MUL SWAP1 POP DUP3 PUSH1 0xFF AND DUP5 PUSH1 0xFF AND DUP3 PUSH1 0xFF AND DUP2 PUSH2 0x35BE JUMPI INVALID JUMPDEST DIV PUSH1 0xFF AND EQ PUSH2 0x3602 JUMPI PUSH1 0x40 MLOAD PUSH32 0x8C379A000000000000000000000000000000000000000000000000000000000 DUP2 MSTORE PUSH1 0x4 ADD PUSH2 0x35F9 SWAP1 PUSH2 0x58D9 JUMP JUMPDEST PUSH1 0x40 MLOAD DUP1 SWAP2 SUB SWAP1 REVERT JUMPDEST DUP1 SWAP2 POP POP JUMPDEST SWAP3 SWAP2 POP POP JUMP JUMPDEST PUSH1 0x0 DUP1 ADDRESS PUSH20 0xFFFFFFFFFFFFFFFFFFFFFFFFFFFFFFFFFFFFFFFF AND PUSH4 0x4F7D93DB DUP6 DUP6 PUSH1 0x40 MLOAD DUP4 PUSH4 0xFFFFFFFF AND PUSH1 0xE0 SHL DUP2 MSTORE PUSH1 0x4 ADD PUSH2 0x364B SWAP3 SWAP2 SWAP1 PUSH2 0x5ABA JUMP JUMPDEST PUSH1 0x20 PUSH1 0x40 MLOAD DUP1 DUP4 SUB DUP2 DUP7 DUP1 EXTCODESIZE ISZERO DUP1 ISZERO PUSH2 0x3663 JUMPI PUSH1 0x0 DUP1 REVERT JUMPDEST POP GAS STATICCALL ISZERO DUP1 ISZERO PUSH2 0x3677 JUMPI RETURNDATASIZE PUSH1 0x0 DUP1 RETURNDATACOPY RETURNDATASIZE PUSH1 0x0 REVERT JUMPDEST POP POP POP POP PUSH1 0x40 MLOAD RETURNDATASIZE PUSH1 0x1F NOT PUSH1 0x1F DUP3 ADD AND DUP3 ADD DUP1 PUSH1 0x40 MSTORE POP DUP2 ADD SWAP1 PUSH2 0x369B SWAP2 SWAP1 PUSH2 0x4297 JUMP JUMPDEST SWAP1 POP PUSH1 0x7 PUSH1 0x3 SWAP1 SLOAD SWAP1 PUSH2 0x100 EXP SWAP1 DIV PUSH1 0xFF AND PUSH1 0xFF AND DUP4 LT ISZERO PUSH2 0x36F6 JUMPI PUSH2 0x36EF PUSH1 0x64 PUSH2 0x36E1 PUSH1 0x7 PUSH1 0x5 SWAP1 SLOAD SWAP1 PUSH2 0x100 EXP SWAP1 DIV PUSH1 0xFF AND PUSH1 0xFF AND DUP5 PUSH2 0x32C9 SWAP1 SWAP2 SWAP1 PUSH4 0xFFFFFFFF AND JUMP JUMPDEST PUSH2 0x38A2 SWAP1 SWAP2 SWAP1 PUSH4 0xFFFFFFFF AND JUMP JUMPDEST SWAP2 POP PUSH2 0x3789 JUMP JUMPDEST PUSH1 0x7 PUSH1 0x4 SWAP1 SLOAD SWAP1 PUSH2 0x100 EXP SWAP1 DIV PUSH1 0xFF AND PUSH1 0xFF AND DUP4 LT ISZERO PUSH2 0x374F JUMPI PUSH2 0x3748 PUSH1 0x64 PUSH2 0x373A PUSH1 0x7 PUSH1 0x6 SWAP1 SLOAD SWAP1 PUSH2 0x100 EXP SWAP1 DIV PUSH1 0xFF AND PUSH1 0xFF AND DUP5 PUSH2 0x32C9 SWAP1 SWAP2 SWAP1 PUSH4 0xFFFFFFFF AND JUMP JUMPDEST PUSH2 0x38A2 SWAP1 SWAP2 SWAP1 PUSH4 0xFFFFFFFF AND JUMP JUMPDEST SWAP2 POP PUSH2 0x3788 JUMP JUMPDEST PUSH2 0x3785 PUSH1 0x64 PUSH2 0x3777 PUSH1 0x7 DUP1 SLOAD SWAP1 PUSH2 0x100 EXP SWAP1 DIV PUSH1 0xFF AND PUSH1 0xFF AND DUP5 PUSH2 0x32C9 SWAP1 SWAP2 SWAP1 PUSH4 0xFFFFFFFF AND JUMP JUMPDEST PUSH2 0x38A2 SWAP1 SWAP2 SWAP1 PUSH4 0xFFFFFFFF AND JUMP JUMPDEST SWAP2 POP JUMPDEST JUMPDEST POP SWAP3 SWAP2 POP POP JUMP JUMPDEST PUSH1 0x60 DUP1 PUSH1 0x7 PUSH1 0x0 SWAP1 SLOAD SWAP1 PUSH2 0x100 EXP SWAP1 DIV PUSH1 0xFF AND PUSH1 0xFF AND PUSH8 0xFFFFFFFFFFFFFFFF DUP2 GT DUP1 ISZERO PUSH2 0x37BC JUMPI PUSH1 0x0 DUP1 REVERT JUMPDEST POP PUSH1 0x40 MLOAD SWAP1 DUP1 DUP3 MSTORE DUP1 PUSH1 0x20 MUL PUSH1 0x20 ADD DUP3 ADD PUSH1 0x40 MSTORE DUP1 ISZERO PUSH2 0x37EB JUMPI DUP2 PUSH1 0x20 ADD PUSH1 0x20 DUP3 MUL DUP1 CALLDATASIZE DUP4 CALLDATACOPY DUP1 DUP3 ADD SWAP2 POP POP SWAP1 POP JUMPDEST POP SWAP1 POP PUSH1 0x0 JUMPDEST PUSH1 0x7 PUSH1 0x0 SWAP1 SLOAD SWAP1 PUSH2 0x100 EXP SWAP1 DIV PUSH1 0xFF AND PUSH1 0xFF AND DUP2 LT ISZERO PUSH2 0x3898 JUMPI PUSH1 0x0 DUP5 DUP3 PUSH1 0x40 MLOAD PUSH1 0x20 ADD PUSH2 0x3820 SWAP3 SWAP2 SWAP1 PUSH2 0x5315 JUMP JUMPDEST PUSH1 0x40 MLOAD PUSH1 0x20 DUP2 DUP4 SUB SUB DUP2 MSTORE SWAP1 PUSH1 0x40 MSTORE DUP1 MLOAD SWAP1 PUSH1 0x20 ADD KECCAK256 SWAP1 POP PUSH1 0x0 DUP2 PUSH1 0x0 SHR SWAP1 POP PUSH2 0x3867 PUSH1 0x7 PUSH1 0x1 SWAP1 SLOAD SWAP1 PUSH2 0x100 EXP SWAP1 DIV PUSH2 0xFFFF AND PUSH2 0xFFFF AND DUP3 PUSH2 0x39BF SWAP1 SWAP2 SWAP1 PUSH4 0xFFFFFFFF AND JUMP JUMPDEST DUP5 DUP5 DUP2 MLOAD DUP2 LT PUSH2 0x3873 JUMPI INVALID JUMPDEST PUSH1 0x20 MUL PUSH1 0x20 ADD ADD SWAP1 PUSH2 0xFFFF AND SWAP1 DUP2 PUSH2 0xFFFF AND DUP2 MSTORE POP POP POP POP DUP1 DUP1 PUSH1 0x1 ADD SWAP2 POP POP PUSH2 0x37F1 JUMP JUMPDEST POP DUP1 SWAP2 POP POP SWAP2 SWAP1 POP JUMP JUMPDEST PUSH1 0x0 DUP1 DUP3 GT PUSH2 0x38E6 JUMPI PUSH1 0x40 MLOAD PUSH32 0x8C379A000000000000000000000000000000000000000000000000000000000 DUP2 MSTORE PUSH1 0x4 ADD PUSH2 0x38DD SWAP1 PUSH2 0x5799 JUMP JUMPDEST PUSH1 0x40 MLOAD DUP1 SWAP2 SUB SWAP1 REVERT JUMPDEST DUP2 DUP4 DUP2 PUSH2 0x38EF JUMPI INVALID JUMPDEST DIV SWAP1 POP SWAP3 SWAP2 POP POP JUMP JUMPDEST PUSH1 0x60 PUSH2 0x395A DUP3 PUSH1 0x40 MLOAD DUP1 PUSH1 0x40 ADD PUSH1 0x40 MSTORE DUP1 PUSH1 0x20 DUP2 MSTORE PUSH1 0x20 ADD PUSH32 0x5361666545524332303A206C6F772D6C6576656C2063616C6C206661696C6564 DUP2 MSTORE POP DUP6 PUSH20 0xFFFFFFFFFFFFFFFFFFFFFFFFFFFFFFFFFFFFFFFF AND PUSH2 0x3A15 SWAP1 SWAP3 SWAP2 SWAP1 PUSH4 0xFFFFFFFF AND JUMP JUMPDEST SWAP1 POP PUSH1 0x0 DUP2 MLOAD GT ISZERO PUSH2 0x39BA JUMPI DUP1 DUP1 PUSH1 0x20 ADD SWAP1 MLOAD DUP2 ADD SWAP1 PUSH2 0x397A SWAP2 SWAP1 PUSH2 0x41F3 JUMP JUMPDEST PUSH2 0x39B9 JUMPI PUSH1 0x40 MLOAD PUSH32 0x8C379A000000000000000000000000000000000000000000000000000000000 DUP2 MSTORE PUSH1 0x4 ADD PUSH2 0x39B0 SWAP1 PUSH2 0x59D9 JUMP JUMPDEST PUSH1 0x40 MLOAD DUP1 SWAP2 SUB SWAP1 REVERT JUMPDEST JUMPDEST POP POP POP JUMP JUMPDEST PUSH1 0x0 DUP1 DUP3 GT PUSH2 0x3A03 JUMPI PUSH1 0x40 MLOAD PUSH32 0x8C379A000000000000000000000000000000000000000000000000000000000 DUP2 MSTORE PUSH1 0x4 ADD PUSH2 0x39FA SWAP1 PUSH2 0x5859 JUMP JUMPDEST PUSH1 0x40 MLOAD DUP1 SWAP2 SUB SWAP1 REVERT JUMPDEST DUP2 DUP4 DUP2 PUSH2 0x3A0C JUMPI INVALID JUMPDEST MOD SWAP1 POP SWAP3 SWAP2 POP POP JUMP JUMPDEST PUSH1 0x60 PUSH2 0x3A24 DUP5 DUP5 PUSH1 0x0 DUP6 PUSH2 0x3A2D JUMP JUMPDEST SWAP1 POP SWAP4 SWAP3 POP POP POP JUMP JUMPDEST PUSH1 0x60 DUP3 SELFBALANCE LT ISZERO PUSH2 0x3A72 JUMPI PUSH1 0x40 MLOAD PUSH32 0x8C379A000000000000000000000000000000000000000000000000000000000 DUP2 MSTORE PUSH1 0x4 ADD PUSH2 0x3A69 SWAP1 PUSH2 0x5759 JUMP JUMPDEST PUSH1 0x40 MLOAD DUP1 SWAP2 SUB SWAP1 REVERT JUMPDEST PUSH2 0x3A7B DUP6 PUSH2 0x3339 JUMP JUMPDEST PUSH2 0x3ABA JUMPI PUSH1 0x40 MLOAD PUSH32 0x8C379A000000000000000000000000000000000000000000000000000000000 DUP2 MSTORE PUSH1 0x4 ADD PUSH2 0x3AB1 SWAP1 PUSH2 0x5959 JUMP JUMPDEST PUSH1 0x40 MLOAD DUP1 SWAP2 SUB SWAP1 REVERT JUMPDEST PUSH1 0x0 PUSH1 0x60 DUP7 PUSH20 0xFFFFFFFFFFFFFFFFFFFFFFFFFFFFFFFFFFFFFFFF AND DUP6 DUP8 PUSH1 0x40 MLOAD PUSH2 0x3AE4 SWAP2 SWAP1 PUSH2 0x52FE JUMP JUMPDEST PUSH1 0x0 PUSH1 0x40 MLOAD DUP1 DUP4 SUB DUP2 DUP6 DUP8 GAS CALL SWAP3 POP POP POP RETURNDATASIZE DUP1 PUSH1 0x0 DUP2 EQ PUSH2 0x3B21 JUMPI PUSH1 0x40 MLOAD SWAP2 POP PUSH1 0x1F NOT PUSH1 0x3F RETURNDATASIZE ADD AND DUP3 ADD PUSH1 0x40 MSTORE RETURNDATASIZE DUP3 MSTORE RETURNDATASIZE PUSH1 0x0 PUSH1 0x20 DUP5 ADD RETURNDATACOPY PUSH2 0x3B26 JUMP JUMPDEST PUSH1 0x60 SWAP2 POP JUMPDEST POP SWAP2 POP SWAP2 POP PUSH2 0x3B36 DUP3 DUP3 DUP7 PUSH2 0x3B42 JUMP JUMPDEST SWAP3 POP POP POP SWAP5 SWAP4 POP POP POP POP JUMP JUMPDEST PUSH1 0x60 DUP4 ISZERO PUSH2 0x3B52 JUMPI DUP3 SWAP1 POP PUSH2 0x3BA2 JUMP JUMPDEST PUSH1 0x0 DUP4 MLOAD GT ISZERO PUSH2 0x3B65 JUMPI DUP3 MLOAD DUP1 DUP5 PUSH1 0x20 ADD REVERT JUMPDEST DUP2 PUSH1 0x40 MLOAD PUSH32 0x8C379A000000000000000000000000000000000000000000000000000000000 DUP2 MSTORE PUSH1 0x4 ADD PUSH2 0x3B99 SWAP2 SWAP1 PUSH2 0x5557 JUMP JUMPDEST PUSH1 0x40 MLOAD DUP1 SWAP2 SUB SWAP1 REVERT JUMPDEST SWAP4 SWAP3 POP POP POP JUMP JUMPDEST PUSH1 0x40 MLOAD DUP1 PUSH2 0x100 ADD PUSH1 0x40 MSTORE DUP1 PUSH1 0x0 DUP2 MSTORE PUSH1 0x20 ADD PUSH1 0x0 PUSH1 0x3 DUP2 GT ISZERO PUSH2 0x3BC9 JUMPI INVALID JUMPDEST DUP2 MSTORE PUSH1 0x20 ADD PUSH1 0x0 DUP2 MSTORE PUSH1 0x20 ADD PUSH1 0x0 DUP2 MSTORE PUSH1 0x20 ADD PUSH1 0x60 DUP2 MSTORE PUSH1 0x20 ADD PUSH1 0x0 DUP2 MSTORE PUSH1 0x20 ADD PUSH1 0x0 DUP2 MSTORE PUSH1 0x20 ADD PUSH1 0x60 DUP2 MSTORE POP SWAP1 JUMP JUMPDEST DUP3 DUP1 SLOAD DUP3 DUP3 SSTORE SWAP1 PUSH1 0x0 MSTORE PUSH1 0x20 PUSH1 0x0 KECCAK256 SWAP1 PUSH1 0x1F ADD PUSH1 0x20 SWAP1 DIV DUP2 ADD SWAP3 DUP3 ISZERO PUSH2 0x3C8F JUMPI SWAP2 PUSH1 0x20 MUL DUP3 ADD PUSH1 0x0 JUMPDEST DUP4 DUP3 GT ISZERO PUSH2 0x3C60 JUMPI DUP4 MLOAD DUP4 DUP3 PUSH2 0x100 EXP DUP2 SLOAD DUP2 PUSH1 0xFF MUL NOT AND SWAP1 DUP4 PUSH1 0xFF AND MUL OR SWAP1 SSTORE POP SWAP3 PUSH1 0x20 ADD SWAP3 PUSH1 0x1 ADD PUSH1 0x20 DUP2 PUSH1 0x0 ADD DIV SWAP3 DUP4 ADD SWAP3 PUSH1 0x1 SUB MUL PUSH2 0x3C22 JUMP JUMPDEST DUP1 ISZERO PUSH2 0x3C8D JUMPI DUP3 DUP2 PUSH2 0x100 EXP DUP2 SLOAD SWAP1 PUSH1 0xFF MUL NOT AND SWAP1 SSTORE PUSH1 0x1 ADD PUSH1 0x20 DUP2 PUSH1 0x0 ADD DIV SWAP3 DUP4 ADD SWAP3 PUSH1 0x1 SUB MUL PUSH2 0x3C60 JUMP JUMPDEST POP JUMPDEST POP SWAP1 POP PUSH2 0x3C9C SWAP2 SWAP1 PUSH2 0x3D4A JUMP JUMPDEST POP SWAP1 JUMP JUMPDEST DUP3 DUP1 SLOAD DUP3 DUP3 SSTORE SWAP1 PUSH1 0x0 MSTORE PUSH1 0x20 PUSH1 0x0 KECCAK256 SWAP1 PUSH1 0xF ADD PUSH1 0x10 SWAP1 DIV DUP2 ADD SWAP3 DUP3 ISZERO PUSH2 0x3D39 JUMPI SWAP2 PUSH1 0x20 MUL DUP3 ADD PUSH1 0x0 JUMPDEST DUP4 DUP3 GT ISZERO PUSH2 0x3D09 JUMPI DUP4 MLOAD DUP4 DUP3 PUSH2 0x100 EXP DUP2 SLOAD DUP2 PUSH2 0xFFFF MUL NOT AND SWAP1 DUP4 PUSH2 0xFFFF AND MUL OR SWAP1 SSTORE POP SWAP3 PUSH1 0x20 ADD SWAP3 PUSH1 0x2 ADD PUSH1 0x20 DUP2 PUSH1 0x1 ADD DIV SWAP3 DUP4 ADD SWAP3 PUSH1 0x1 SUB MUL PUSH2 0x3CC9 JUMP JUMPDEST DUP1 ISZERO PUSH2 0x3D37 JUMPI DUP3 DUP2 PUSH2 0x100 EXP DUP2 SLOAD SWAP1 PUSH2 0xFFFF MUL NOT AND SWAP1 SSTORE PUSH1 0x2 ADD PUSH1 0x20 DUP2 PUSH1 0x1 ADD DIV SWAP3 DUP4 ADD SWAP3 PUSH1 0x1 SUB MUL PUSH2 0x3D09 JUMP JUMPDEST POP JUMPDEST POP SWAP1 POP PUSH2 0x3D46 SWAP2 SWAP1 PUSH2 0x3D72 JUMP JUMPDEST POP SWAP1 JUMP JUMPDEST JUMPDEST DUP1 DUP3 GT ISZERO PUSH2 0x3D6E JUMPI PUSH1 0x0 DUP2 DUP2 PUSH2 0x100 EXP DUP2 SLOAD SWAP1 PUSH1 0xFF MUL NOT AND SWAP1 SSTORE POP PUSH1 0x1 ADD PUSH2 0x3D4B JUMP JUMPDEST POP SWAP1 JUMP JUMPDEST JUMPDEST DUP1 DUP3 GT ISZERO PUSH2 0x3D97 JUMPI PUSH1 0x0 DUP2 DUP2 PUSH2 0x100 EXP DUP2 SLOAD SWAP1 PUSH2 0xFFFF MUL NOT AND SWAP1 SSTORE POP PUSH1 0x1 ADD PUSH2 0x3D73 JUMP JUMPDEST POP SWAP1 JUMP JUMPDEST PUSH1 0x0 DUP2 CALLDATALOAD SWAP1 POP PUSH2 0x3DAA DUP2 PUSH2 0x5E2C JUMP JUMPDEST SWAP3 SWAP2 POP POP JUMP JUMPDEST PUSH1 0x0 DUP2 MLOAD SWAP1 POP PUSH2 0x3DBF DUP2 PUSH2 0x5E2C JUMP JUMPDEST SWAP3 SWAP2 POP POP JUMP JUMPDEST PUSH1 0x0 DUP1 DUP4 PUSH1 0x1F DUP5 ADD SLT PUSH2 0x3DD7 JUMPI PUSH1 0x0 DUP1 REVERT JUMPDEST DUP3 CALLDATALOAD SWAP1 POP PUSH8 0xFFFFFFFFFFFFFFFF DUP2 GT ISZERO PUSH2 0x3DF0 JUMPI PUSH1 0x0 DUP1 REVERT JUMPDEST PUSH1 0x20 DUP4 ADD SWAP2 POP DUP4 PUSH1 0x20 DUP3 MUL DUP4 ADD GT ISZERO PUSH2 0x3E08 JUMPI PUSH1 0x0 DUP1 REVERT JUMPDEST SWAP3 POP SWAP3 SWAP1 POP JUMP JUMPDEST PUSH1 0x0 DUP3 PUSH1 0x1F DUP4 ADD SLT PUSH2 0x3E20 JUMPI PUSH1 0x0 DUP1 REVERT JUMPDEST DUP2 MLOAD PUSH2 0x3E33 PUSH2 0x3E2E DUP3 PUSH2 0x5B8B JUMP JUMPDEST PUSH2 0x5B5E JUMP JUMPDEST SWAP2 POP DUP2 DUP2 DUP4 MSTORE PUSH1 0x20 DUP5 ADD SWAP4 POP PUSH1 0x20 DUP2 ADD SWAP1 POP DUP4 DUP6 PUSH1 0x20 DUP5 MUL DUP3 ADD GT ISZERO PUSH2 0x3E58 JUMPI PUSH1 0x0 DUP1 REVERT JUMPDEST PUSH1 0x0 JUMPDEST DUP4 DUP2 LT ISZERO PUSH2 0x3E88 JUMPI DUP2 PUSH2 0x3E6E DUP9 DUP3 PUSH2 0x3FFD JUMP JUMPDEST DUP5 MSTORE PUSH1 0x20 DUP5 ADD SWAP4 POP PUSH1 0x20 DUP4 ADD SWAP3 POP POP PUSH1 0x1 DUP2 ADD SWAP1 POP PUSH2 0x3E5B JUMP JUMPDEST POP POP POP POP SWAP3 SWAP2 POP POP JUMP JUMPDEST PUSH1 0x0 DUP1 DUP4 PUSH1 0x1F DUP5 ADD SLT PUSH2 0x3EA4 JUMPI PUSH1 0x0 DUP1 REVERT JUMPDEST DUP3 CALLDATALOAD SWAP1 POP PUSH8 0xFFFFFFFFFFFFFFFF DUP2 GT ISZERO PUSH2 0x3EBD JUMPI PUSH1 0x0 DUP1 REVERT JUMPDEST PUSH1 0x20 DUP4 ADD SWAP2 POP DUP4 PUSH1 0x20 DUP3 MUL DUP4 ADD GT ISZERO PUSH2 0x3ED5 JUMPI PUSH1 0x0 DUP1 REVERT JUMPDEST SWAP3 POP SWAP3 SWAP1 POP JUMP JUMPDEST PUSH1 0x0 DUP3 PUSH1 0x1F DUP4 ADD SLT PUSH2 0x3EED JUMPI PUSH1 0x0 DUP1 REVERT JUMPDEST DUP2 MLOAD PUSH2 0x3F00 PUSH2 0x3EFB DUP3 PUSH2 0x5BB3 JUMP JUMPDEST PUSH2 0x5B5E JUMP JUMPDEST SWAP2 POP DUP2 DUP2 DUP4 MSTORE PUSH1 0x20 DUP5 ADD SWAP4 POP PUSH1 0x20 DUP2 ADD SWAP1 POP DUP4 DUP6 PUSH1 0x20 DUP5 MUL DUP3 ADD GT ISZERO PUSH2 0x3F25 JUMPI PUSH1 0x0 DUP1 REVERT JUMPDEST PUSH1 0x0 JUMPDEST DUP4 DUP2 LT ISZERO PUSH2 0x3F55 JUMPI DUP2 PUSH2 0x3F3B DUP9 DUP3 PUSH2 0x4027 JUMP JUMPDEST DUP5 MSTORE PUSH1 0x20 DUP5 ADD SWAP4 POP PUSH1 0x20 DUP4 ADD SWAP3 POP POP PUSH1 0x1 DUP2 ADD SWAP1 POP PUSH2 0x3F28 JUMP JUMPDEST POP POP POP POP SWAP3 SWAP2 POP POP JUMP JUMPDEST PUSH1 0x0 DUP1 DUP4 PUSH1 0x1F DUP5 ADD SLT PUSH2 0x3F71 JUMPI PUSH1 0x0 DUP1 REVERT JUMPDEST DUP3 CALLDATALOAD SWAP1 POP PUSH8 0xFFFFFFFFFFFFFFFF DUP2 GT ISZERO PUSH2 0x3F8A JUMPI PUSH1 0x0 DUP1 REVERT JUMPDEST PUSH1 0x20 DUP4 ADD SWAP2 POP DUP4 PUSH1 0x20 DUP3 MUL DUP4 ADD GT ISZERO PUSH2 0x3FA2 JUMPI PUSH1 0x0 DUP1 REVERT JUMPDEST SWAP3 POP SWAP3 SWAP1 POP JUMP JUMPDEST PUSH1 0x0 DUP2 MLOAD SWAP1 POP PUSH2 0x3FB8 DUP2 PUSH2 0x5E43 JUMP JUMPDEST SWAP3 SWAP2 POP POP JUMP JUMPDEST PUSH1 0x0 DUP2 CALLDATALOAD SWAP1 POP PUSH2 0x3FCD DUP2 PUSH2 0x5E5A JUMP JUMPDEST SWAP3 SWAP2 POP POP JUMP JUMPDEST PUSH1 0x0 DUP2 MLOAD SWAP1 POP PUSH2 0x3FE2 DUP2 PUSH2 0x5E5A JUMP JUMPDEST SWAP3 SWAP2 POP POP JUMP JUMPDEST PUSH1 0x0 DUP2 CALLDATALOAD SWAP1 POP PUSH2 0x3FF7 DUP2 PUSH2 0x5E71 JUMP JUMPDEST SWAP3 SWAP2 POP POP JUMP JUMPDEST PUSH1 0x0 DUP2 MLOAD SWAP1 POP PUSH2 0x400C DUP2 PUSH2 0x5E71 JUMP JUMPDEST SWAP3 SWAP2 POP POP JUMP JUMPDEST PUSH1 0x0 DUP2 CALLDATALOAD SWAP1 POP PUSH2 0x4021 DUP2 PUSH2 0x5E88 JUMP JUMPDEST SWAP3 SWAP2 POP POP JUMP JUMPDEST PUSH1 0x0 DUP2 MLOAD SWAP1 POP PUSH2 0x4036 DUP2 PUSH2 0x5E88 JUMP JUMPDEST SWAP3 SWAP2 POP POP JUMP JUMPDEST PUSH1 0x0 DUP2 CALLDATALOAD SWAP1 POP PUSH2 0x404B DUP2 PUSH2 0x5E9F JUMP JUMPDEST SWAP3 SWAP2 POP POP JUMP JUMPDEST PUSH1 0x0 PUSH1 0x20 DUP3 DUP5 SUB SLT ISZERO PUSH2 0x4063 JUMPI PUSH1 0x0 DUP1 REVERT JUMPDEST PUSH1 0x0 PUSH2 0x4071 DUP5 DUP3 DUP6 ADD PUSH2 0x3D9B JUMP JUMPDEST SWAP2 POP POP SWAP3 SWAP2 POP POP JUMP JUMPDEST PUSH1 0x0 PUSH1 0x20 DUP3 DUP5 SUB SLT ISZERO PUSH2 0x408C JUMPI PUSH1 0x0 DUP1 REVERT JUMPDEST PUSH1 0x0 PUSH2 0x409A DUP5 DUP3 DUP6 ADD PUSH2 0x3DB0 JUMP JUMPDEST SWAP2 POP POP SWAP3 SWAP2 POP POP JUMP JUMPDEST PUSH1 0x0 DUP1 PUSH1 0x40 DUP4 DUP6 SUB SLT ISZERO PUSH2 0x40B6 JUMPI PUSH1 0x0 DUP1 REVERT JUMPDEST PUSH1 0x0 PUSH2 0x40C4 DUP6 DUP3 DUP7 ADD PUSH2 0x3D9B JUMP JUMPDEST SWAP3 POP POP PUSH1 0x20 PUSH2 0x40D5 DUP6 DUP3 DUP7 ADD PUSH2 0x3D9B JUMP JUMPDEST SWAP2 POP POP SWAP3 POP SWAP3 SWAP1 POP JUMP JUMPDEST PUSH1 0x0 PUSH1 0x20 DUP3 DUP5 SUB SLT ISZERO PUSH2 0x40F1 JUMPI PUSH1 0x0 DUP1 REVERT JUMPDEST PUSH1 0x0 DUP3 ADD MLOAD PUSH8 0xFFFFFFFFFFFFFFFF DUP2 GT ISZERO PUSH2 0x410B JUMPI PUSH1 0x0 DUP1 REVERT JUMPDEST PUSH2 0x4117 DUP5 DUP3 DUP6 ADD PUSH2 0x3E0F JUMP JUMPDEST SWAP2 POP POP SWAP3 SWAP2 POP POP JUMP JUMPDEST PUSH1 0x0 PUSH1 0x20 DUP3 DUP5 SUB SLT ISZERO PUSH2 0x4132 JUMPI PUSH1 0x0 DUP1 REVERT JUMPDEST PUSH1 0x0 DUP3 ADD MLOAD PUSH8 0xFFFFFFFFFFFFFFFF DUP2 GT ISZERO PUSH2 0x414C JUMPI PUSH1 0x0 DUP1 REVERT JUMPDEST PUSH2 0x4158 DUP5 DUP3 DUP6 ADD PUSH2 0x3EDC JUMP JUMPDEST SWAP2 POP POP SWAP3 SWAP2 POP POP JUMP JUMPDEST PUSH1 0x0 DUP1 PUSH1 0x0 DUP1 PUSH1 0x0 DUP1 PUSH1 0xA0 DUP8 DUP10 SUB SLT ISZERO PUSH2 0x417A JUMPI PUSH1 0x0 DUP1 REVERT JUMPDEST PUSH1 0x0 DUP8 ADD CALLDATALOAD PUSH8 0xFFFFFFFFFFFFFFFF DUP2 GT ISZERO PUSH2 0x4194 JUMPI PUSH1 0x0 DUP1 REVERT JUMPDEST PUSH2 0x41A0 DUP10 DUP3 DUP11 ADD PUSH2 0x3F5F JUMP JUMPDEST SWAP7 POP SWAP7 POP POP PUSH1 0x20 PUSH2 0x41B3 DUP10 DUP3 DUP11 ADD PUSH2 0x4012 JUMP JUMPDEST SWAP5 POP POP PUSH1 0x40 PUSH2 0x41C4 DUP10 DUP3 DUP11 ADD PUSH2 0x4012 JUMP JUMPDEST SWAP4 POP POP PUSH1 0x60 PUSH2 0x41D5 DUP10 DUP3 DUP11 ADD PUSH2 0x4012 JUMP JUMPDEST SWAP3 POP POP PUSH1 0x80 PUSH2 0x41E6 DUP10 DUP3 DUP11 ADD PUSH2 0x4012 JUMP JUMPDEST SWAP2 POP POP SWAP3 SWAP6 POP SWAP3 SWAP6 POP SWAP3 SWAP6 JUMP JUMPDEST PUSH1 0x0 PUSH1 0x20 DUP3 DUP5 SUB SLT ISZERO PUSH2 0x4205 JUMPI PUSH1 0x0 DUP1 REVERT JUMPDEST PUSH1 0x0 PUSH2 0x4213 DUP5 DUP3 DUP6 ADD PUSH2 0x3FA9 JUMP JUMPDEST SWAP2 POP POP SWAP3 SWAP2 POP POP JUMP JUMPDEST PUSH1 0x0 PUSH1 0x20 DUP3 DUP5 SUB SLT ISZERO PUSH2 0x422E JUMPI PUSH1 0x0 DUP1 REVERT JUMPDEST PUSH1 0x0 PUSH2 0x423C DUP5 DUP3 DUP6 ADD PUSH2 0x3FD3 JUMP JUMPDEST SWAP2 POP POP SWAP3 SWAP2 POP POP JUMP JUMPDEST PUSH1 0x0 PUSH1 0x20 DUP3 DUP5 SUB SLT ISZERO PUSH2 0x4257 JUMPI PUSH1 0x0 DUP1 REVERT JUMPDEST PUSH1 0x0 PUSH2 0x4265 DUP5 DUP3 DUP6 ADD PUSH2 0x3FE8 JUMP JUMPDEST SWAP2 POP POP SWAP3 SWAP2 POP POP JUMP JUMPDEST PUSH1 0x0 PUSH1 0x20 DUP3 DUP5 SUB SLT ISZERO PUSH2 0x4280 JUMPI PUSH1 0x0 DUP1 REVERT JUMPDEST PUSH1 0x0 PUSH2 0x428E DUP5 DUP3 DUP6 ADD PUSH2 0x4012 JUMP JUMPDEST SWAP2 POP POP SWAP3 SWAP2 POP POP JUMP JUMPDEST PUSH1 0x0 PUSH1 0x20 DUP3 DUP5 SUB SLT ISZERO PUSH2 0x42A9 JUMPI PUSH1 0x0 DUP1 REVERT JUMPDEST PUSH1 0x0 PUSH2 0x42B7 DUP5 DUP3 DUP6 ADD PUSH2 0x4027 JUMP JUMPDEST SWAP2 POP POP SWAP3 SWAP2 POP POP JUMP JUMPDEST PUSH1 0x0 DUP1 PUSH1 0x0 PUSH1 0x40 DUP5 DUP7 SUB SLT ISZERO PUSH2 0x42D5 JUMPI PUSH1 0x0 DUP1 REVERT JUMPDEST PUSH1 0x0 PUSH2 0x42E3 DUP7 DUP3 DUP8 ADD PUSH2 0x4012 JUMP JUMPDEST SWAP4 POP POP PUSH1 0x20 DUP5 ADD CALLDATALOAD PUSH8 0xFFFFFFFFFFFFFFFF DUP2 GT ISZERO PUSH2 0x4300 JUMPI PUSH1 0x0 DUP1 REVERT JUMPDEST PUSH2 0x430C DUP7 DUP3 DUP8 ADD PUSH2 0x3E92 JUMP JUMPDEST SWAP3 POP SWAP3 POP POP SWAP3 POP SWAP3 POP SWAP3 JUMP JUMPDEST PUSH1 0x0 DUP1 PUSH1 0x0 PUSH1 0x60 DUP5 DUP7 SUB SLT ISZERO PUSH2 0x432D JUMPI PUSH1 0x0 DUP1 REVERT JUMPDEST PUSH1 0x0 PUSH2 0x433B DUP7 DUP3 DUP8 ADD PUSH2 0x4012 JUMP JUMPDEST SWAP4 POP POP PUSH1 0x20 PUSH2 0x434C DUP7 DUP3 DUP8 ADD PUSH2 0x3FBE JUMP JUMPDEST SWAP3 POP POP PUSH1 0x40 PUSH2 0x435D DUP7 DUP3 DUP8 ADD PUSH2 0x4012 JUMP JUMPDEST SWAP2 POP POP SWAP3 POP SWAP3 POP SWAP3 JUMP JUMPDEST PUSH1 0x0 DUP1 PUSH1 0x40 DUP4 DUP6 SUB SLT ISZERO PUSH2 0x437A JUMPI PUSH1 0x0 DUP1 REVERT JUMPDEST PUSH1 0x0 PUSH2 0x4388 DUP6 DUP3 DUP7 ADD PUSH2 0x4012 JUMP JUMPDEST SWAP3 POP POP PUSH1 0x20 PUSH2 0x4399 DUP6 DUP3 DUP7 ADD PUSH2 0x4012 JUMP JUMPDEST SWAP2 POP POP SWAP3 POP SWAP3 SWAP1 POP JUMP JUMPDEST PUSH1 0x0 DUP1 PUSH1 0x0 PUSH1 0x60 DUP5 DUP7 SUB SLT ISZERO PUSH2 0x43B8 JUMPI PUSH1 0x0 DUP1 REVERT JUMPDEST PUSH1 0x0 PUSH2 0x43C6 DUP7 DUP3 DUP8 ADD PUSH2 0x4027 JUMP JUMPDEST SWAP4 POP POP PUSH1 0x20 PUSH2 0x43D7 DUP7 DUP3 DUP8 ADD PUSH2 0x4027 JUMP JUMPDEST SWAP3 POP POP PUSH1 0x40 PUSH2 0x43E8 DUP7 DUP3 DUP8 ADD PUSH2 0x4027 JUMP JUMPDEST SWAP2 POP POP SWAP3 POP SWAP3 POP SWAP3 JUMP JUMPDEST PUSH1 0x0 DUP1 PUSH1 0x0 DUP1 PUSH1 0x60 DUP6 DUP8 SUB SLT ISZERO PUSH2 0x4408 JUMPI PUSH1 0x0 DUP1 REVERT JUMPDEST PUSH1 0x0 PUSH2 0x4416 DUP8 DUP3 DUP9 ADD PUSH2 0x4012 JUMP JUMPDEST SWAP5 POP POP PUSH1 0x20 PUSH2 0x4427 DUP8 DUP3 DUP9 ADD PUSH2 0x403C JUMP JUMPDEST SWAP4 POP POP PUSH1 0x40 DUP6 ADD CALLDATALOAD PUSH8 0xFFFFFFFFFFFFFFFF DUP2 GT ISZERO PUSH2 0x4444 JUMPI PUSH1 0x0 DUP1 REVERT JUMPDEST PUSH2 0x4450 DUP8 DUP3 DUP9 ADD PUSH2 0x3DC5 JUMP JUMPDEST SWAP3 POP SWAP3 POP POP SWAP3 SWAP6 SWAP2 SWAP5 POP SWAP3 POP JUMP JUMPDEST PUSH1 0x0 PUSH1 0x20 DUP3 DUP5 SUB SLT ISZERO PUSH2 0x4470 JUMPI PUSH1 0x0 DUP1 REVERT JUMPDEST PUSH1 0x0 PUSH2 0x447E DUP5 DUP3 DUP6 ADD PUSH2 0x403C JUMP JUMPDEST SWAP2 POP POP SWAP3 SWAP2 POP POP JUMP JUMPDEST PUSH1 0x0 DUP1 PUSH1 0x0 DUP1 PUSH1 0x0 PUSH1 0xA0 DUP7 DUP9 SUB SLT ISZERO PUSH2 0x449F JUMPI PUSH1 0x0 DUP1 REVERT JUMPDEST PUSH1 0x0 PUSH2 0x44AD DUP9 DUP3 DUP10 ADD PUSH2 0x403C JUMP JUMPDEST SWAP6 POP POP PUSH1 0x20 PUSH2 0x44BE DUP9 DUP3 DUP10 ADD PUSH2 0x403C JUMP JUMPDEST SWAP5 POP POP PUSH1 0x40 PUSH2 0x44CF DUP9 DUP3 DUP10 ADD PUSH2 0x403C JUMP JUMPDEST SWAP4 POP POP PUSH1 0x60 PUSH2 0x44E0 DUP9 DUP3 DUP10 ADD PUSH2 0x403C JUMP JUMPDEST SWAP3 POP POP PUSH1 0x80 PUSH2 0x44F1 DUP9 DUP3 DUP10 ADD PUSH2 0x403C JUMP JUMPDEST SWAP2 POP POP SWAP3 SWAP6 POP SWAP3 SWAP6 SWAP1 SWAP4 POP JUMP JUMPDEST PUSH1 0x0 PUSH2 0x450A DUP4 DUP4 PUSH2 0x527E JUMP JUMPDEST PUSH1 0x20 DUP4 ADD SWAP1 POP SWAP3 SWAP2 POP POP JUMP JUMPDEST PUSH1 0x0 PUSH2 0x4522 DUP4 DUP4 PUSH2 0x529C JUMP JUMPDEST PUSH1 0x20 DUP4 ADD SWAP1 POP SWAP3 SWAP2 POP POP JUMP JUMPDEST PUSH1 0x0 PUSH2 0x453A DUP4 DUP4 PUSH2 0x52E0 JUMP JUMPDEST PUSH1 0x20 DUP4 ADD SWAP1 POP SWAP3 SWAP2 POP POP JUMP JUMPDEST PUSH2 0x454F DUP2 PUSH2 0x5D77 JUMP JUMPDEST DUP3 MSTORE POP POP JUMP JUMPDEST PUSH2 0x455E DUP2 PUSH2 0x5CF7 JUMP JUMPDEST DUP3 MSTORE POP POP JUMP JUMPDEST PUSH1 0x0 PUSH2 0x4570 DUP4 DUP6 PUSH2 0x5C91 JUMP JUMPDEST SWAP4 POP PUSH2 0x457B DUP3 PUSH2 0x5BDB JUMP JUMPDEST DUP1 PUSH1 0x0 JUMPDEST DUP6 DUP2 LT ISZERO PUSH2 0x45B4 JUMPI PUSH2 0x4591 DUP3 DUP5 PUSH2 0x5CE0 JUMP JUMPDEST PUSH2 0x459B DUP9 DUP3 PUSH2 0x44FE JUMP JUMPDEST SWAP8 POP PUSH2 0x45A6 DUP4 PUSH2 0x5C4C JUMP JUMPDEST SWAP3 POP POP PUSH1 0x1 DUP2 ADD SWAP1 POP PUSH2 0x457F JUMP JUMPDEST POP DUP6 SWAP3 POP POP POP SWAP4 SWAP3 POP POP POP JUMP JUMPDEST PUSH1 0x0 PUSH2 0x45CC DUP3 PUSH2 0x5C15 JUMP JUMPDEST PUSH2 0x45D6 DUP2 DUP6 PUSH2 0x5C80 JUMP JUMPDEST SWAP4 POP PUSH2 0x45E1 DUP4 PUSH2 0x5BE5 JUMP JUMPDEST DUP1 PUSH1 0x0 JUMPDEST DUP4 DUP2 LT ISZERO PUSH2 0x4612 JUMPI DUP2 MLOAD PUSH2 0x45F9 DUP9 DUP3 PUSH2 0x44FE JUMP JUMPDEST SWAP8 POP PUSH2 0x4604 DUP4 PUSH2 0x5C59 JUMP JUMPDEST SWAP3 POP POP PUSH1 0x1 DUP2 ADD SWAP1 POP PUSH2 0x45E5 JUMP JUMPDEST POP DUP6 SWAP4 POP POP POP POP SWAP3 SWAP2 POP POP JUMP JUMPDEST PUSH1 0x0 PUSH2 0x462A DUP3 PUSH2 0x5C20 JUMP JUMPDEST PUSH2 0x4634 DUP2 DUP6 PUSH2 0x5CA2 JUMP JUMPDEST SWAP4 POP PUSH2 0x463F DUP4 PUSH2 0x5BF5 JUMP JUMPDEST DUP1 PUSH1 0x0 JUMPDEST DUP4 DUP2 LT ISZERO PUSH2 0x4670 JUMPI DUP2 MLOAD PUSH2 0x4657 DUP9 DUP3 PUSH2 0x4516 JUMP JUMPDEST SWAP8 POP PUSH2 0x4662 DUP4 PUSH2 0x5C66 JUMP JUMPDEST SWAP3 POP POP PUSH1 0x1 DUP2 ADD SWAP1 POP PUSH2 0x4643 JUMP JUMPDEST POP DUP6 SWAP4 POP POP POP POP SWAP3 SWAP2 POP POP JUMP JUMPDEST PUSH1 0x0 PUSH2 0x4688 DUP3 PUSH2 0x5C2B JUMP JUMPDEST PUSH2 0x4692 DUP2 DUP6 PUSH2 0x5CB3 JUMP JUMPDEST SWAP4 POP PUSH2 0x469D DUP4 PUSH2 0x5C05 JUMP JUMPDEST DUP1 PUSH1 0x0 JUMPDEST DUP4 DUP2 LT ISZERO PUSH2 0x46CE JUMPI DUP2 MLOAD PUSH2 0x46B5 DUP9 DUP3 PUSH2 0x452E JUMP JUMPDEST SWAP8 POP PUSH2 0x46C0 DUP4 PUSH2 0x5C73 JUMP JUMPDEST SWAP3 POP POP PUSH1 0x1 DUP2 ADD SWAP1 POP PUSH2 0x46A1 JUMP JUMPDEST POP DUP6 SWAP4 POP POP POP POP SWAP3 SWAP2 POP POP JUMP JUMPDEST PUSH2 0x46E4 DUP2 PUSH2 0x5D15 JUMP JUMPDEST DUP3 MSTORE POP POP JUMP JUMPDEST PUSH1 0x0 PUSH2 0x46F5 DUP3 PUSH2 0x5C36 JUMP JUMPDEST PUSH2 0x46FF DUP2 DUP6 PUSH2 0x5CC4 JUMP JUMPDEST SWAP4 POP PUSH2 0x470F DUP2 DUP6 PUSH1 0x20 DUP7 ADD PUSH2 0x5DD1 JUMP JUMPDEST DUP1 DUP5 ADD SWAP2 POP POP SWAP3 SWAP2 POP POP JUMP JUMPDEST PUSH2 0x4724 DUP2 PUSH2 0x5D89 JUMP JUMPDEST DUP3 MSTORE POP POP JUMP JUMPDEST PUSH1 0x0 PUSH2 0x4735 DUP3 PUSH2 0x5C41 JUMP JUMPDEST PUSH2 0x473F DUP2 DUP6 PUSH2 0x5CCF JUMP JUMPDEST SWAP4 POP PUSH2 0x474F DUP2 DUP6 PUSH1 0x20 DUP7 ADD PUSH2 0x5DD1 JUMP JUMPDEST PUSH2 0x4758 DUP2 PUSH2 0x5E0E JUMP JUMPDEST DUP5 ADD SWAP2 POP POP SWAP3 SWAP2 POP POP JUMP JUMPDEST PUSH1 0x0 PUSH2 0x4770 PUSH1 0x1A DUP4 PUSH2 0x5CCF JUMP JUMPDEST SWAP2 POP PUSH32 0x70726F787920636F6E7472616374206E6F7420616C6C6F776564000000000000 PUSH1 0x0 DUP4 ADD MSTORE PUSH1 0x20 DUP3 ADD SWAP1 POP SWAP2 SWAP1 POP JUMP JUMPDEST PUSH1 0x0 PUSH2 0x47B0 PUSH1 0x15 DUP4 PUSH2 0x5CCF JUMP JUMPDEST SWAP2 POP PUSH32 0x4F6E6C792072616E646F6D2067656E657261746F720000000000000000000000 PUSH1 0x0 DUP4 ADD MSTORE PUSH1 0x20 DUP3 ADD SWAP1 POP SWAP2 SWAP1 POP JUMP JUMPDEST PUSH1 0x0 PUSH2 0x47F0 PUSH1 0x19 DUP4 PUSH2 0x5CCF JUMP JUMPDEST SWAP2 POP PUSH32 0x5072697A65206F7220636F73742063616E6E6F74206265203000000000000000 PUSH1 0x0 DUP4 ADD MSTORE PUSH1 0x20 DUP3 ADD SWAP1 POP SWAP2 SWAP1 POP JUMP JUMPDEST PUSH1 0x0 PUSH2 0x4830 PUSH1 0x14 DUP4 PUSH2 0x5CCF JUMP JUMPDEST SWAP2 POP PUSH32 0x496E76616C696420646973747269627574696F6E000000000000000000000000 PUSH1 0x0 DUP4 ADD MSTORE PUSH1 0x20 DUP3 ADD SWAP1 POP SWAP2 SWAP1 POP JUMP JUMPDEST PUSH1 0x0 PUSH2 0x4870 PUSH1 0x14 DUP4 PUSH2 0x5CCF JUMP JUMPDEST SWAP2 POP PUSH32 0x4261746368206D696E7420746F6F206C61726765000000000000000000000000 PUSH1 0x0 DUP4 ADD MSTORE PUSH1 0x20 DUP3 ADD SWAP1 POP SWAP2 SWAP1 POP JUMP JUMPDEST PUSH1 0x0 PUSH2 0x48B0 PUSH1 0x26 DUP4 PUSH2 0x5CCF JUMP JUMPDEST SWAP2 POP PUSH32 0x4F776E61626C653A206E6577206F776E657220697320746865207A65726F2061 PUSH1 0x0 DUP4 ADD MSTORE PUSH32 0x6464726573730000000000000000000000000000000000000000000000000000 PUSH1 0x20 DUP4 ADD MSTORE PUSH1 0x40 DUP3 ADD SWAP1 POP SWAP2 SWAP1 POP JUMP JUMPDEST PUSH1 0x0 PUSH2 0x4916 PUSH1 0x1A DUP4 PUSH2 0x5CCF JUMP JUMPDEST SWAP2 POP PUSH32 0x4275636B6574206F6E65206D75737420626520736D616C6C6572000000000000 PUSH1 0x0 DUP4 ADD MSTORE PUSH1 0x20 DUP3 ADD SWAP1 POP SWAP2 SWAP1 POP JUMP JUMPDEST PUSH1 0x0 PUSH2 0x4956 PUSH1 0x12 DUP4 PUSH2 0x5CCF JUMP JUMPDEST SWAP2 POP PUSH32 0x44726177206E756D626572732066697273740000000000000000000000000000 PUSH1 0x0 DUP4 ADD MSTORE PUSH1 0x20 DUP3 ADD SWAP1 POP SWAP2 SWAP1 POP JUMP JUMPDEST PUSH1 0x0 PUSH2 0x4996 PUSH1 0x16 DUP4 PUSH2 0x5CCF JUMP JUMPDEST SWAP2 POP PUSH32 0x576169742074696C6C20656E6420746F20636C61696D00000000000000000000 PUSH1 0x0 DUP4 ADD MSTORE PUSH1 0x20 DUP3 ADD SWAP1 POP SWAP2 SWAP1 POP JUMP JUMPDEST PUSH1 0x0 PUSH2 0x49D6 PUSH1 0x17 DUP4 PUSH2 0x5CCF JUMP JUMPDEST SWAP2 POP PUSH32 0x446973636F756E7473206D75737420696E637265617365000000000000000000 PUSH1 0x0 DUP4 ADD MSTORE PUSH1 0x20 DUP3 ADD SWAP1 POP SWAP2 SWAP1 POP JUMP JUMPDEST PUSH1 0x0 PUSH2 0x4A16 PUSH1 0x1B DUP4 PUSH2 0x5CCF JUMP JUMPDEST SWAP2 POP PUSH32 0x536166654D6174683A206164646974696F6E206F766572666C6F770000000000 PUSH1 0x0 DUP4 ADD MSTORE PUSH1 0x20 DUP3 ADD SWAP1 POP SWAP2 SWAP1 POP JUMP JUMPDEST PUSH1 0x0 PUSH2 0x4A56 PUSH1 0x18 DUP4 PUSH2 0x5CCF JUMP JUMPDEST SWAP2 POP PUSH32 0x4C6F74746572792073697A652063616E6E6F7420626520300000000000000000 PUSH1 0x0 DUP4 ADD MSTORE PUSH1 0x20 DUP3 ADD SWAP1 POP SWAP2 SWAP1 POP JUMP JUMPDEST PUSH1 0x0 PUSH2 0x4A96 PUSH1 0x1A DUP4 PUSH2 0x5CCF JUMP JUMPDEST SWAP2 POP PUSH32 0x4E756D6265727320666F72207469636B657420696E76616C6964000000000000 PUSH1 0x0 DUP4 ADD MSTORE PUSH1 0x20 DUP3 ADD SWAP1 POP SWAP2 SWAP1 POP JUMP JUMPDEST PUSH1 0x0 PUSH2 0x4AD6 PUSH1 0x1B DUP4 PUSH2 0x5CCF JUMP JUMPDEST SWAP2 POP PUSH32 0x496E76616C69642074696D6520666F72206D696E743A73746172740000000000 PUSH1 0x0 DUP4 ADD MSTORE PUSH1 0x20 DUP3 ADD SWAP1 POP SWAP2 SWAP1 POP JUMP JUMPDEST PUSH1 0x0 PUSH2 0x4B16 PUSH1 0x1E DUP4 PUSH2 0x5CCF JUMP JUMPDEST SWAP2 POP PUSH32 0x536166654D6174683A207375627472616374696F6E206F766572666C6F770000 PUSH1 0x0 DUP4 ADD MSTORE PUSH1 0x20 DUP3 ADD SWAP1 POP SWAP2 SWAP1 POP JUMP JUMPDEST PUSH1 0x0 PUSH2 0x4B56 PUSH1 0x26 DUP4 PUSH2 0x5CCF JUMP JUMPDEST SWAP2 POP PUSH32 0x416464726573733A20696E73756666696369656E742062616C616E636520666F PUSH1 0x0 DUP4 ADD MSTORE PUSH32 0x722063616C6C0000000000000000000000000000000000000000000000000000 PUSH1 0x20 DUP4 ADD MSTORE PUSH1 0x40 DUP3 ADD SWAP1 POP SWAP2 SWAP1 POP JUMP JUMPDEST PUSH1 0x0 PUSH2 0x4BBC PUSH1 0x20 DUP4 PUSH2 0x5CCF JUMP JUMPDEST SWAP2 POP PUSH32 0x4C6F747465727920537461746520696E636F727265637420666F722064726177 PUSH1 0x0 DUP4 ADD MSTORE PUSH1 0x20 DUP3 ADD SWAP1 POP SWAP2 SWAP1 POP JUMP JUMPDEST PUSH1 0x0 PUSH2 0x4BFC PUSH1 0x1A DUP4 PUSH2 0x5CCF JUMP JUMPDEST SWAP2 POP PUSH32 0x536166654D6174683A206469766973696F6E206279207A65726F000000000000 PUSH1 0x0 DUP4 ADD MSTORE PUSH1 0x20 DUP3 ADD SWAP1 POP SWAP2 SWAP1 POP JUMP JUMPDEST PUSH1 0x0 PUSH2 0x4C3C PUSH1 0x19 DUP4 PUSH2 0x5CCF JUMP JUMPDEST SWAP2 POP PUSH32 0x496E76616C69642074696D6520666F72206D696E743A656E6400000000000000 PUSH1 0x0 DUP4 ADD MSTORE PUSH1 0x20 DUP3 ADD SWAP1 POP SWAP2 SWAP1 POP JUMP JUMPDEST PUSH1 0x0 PUSH2 0x4C7C PUSH1 0x15 DUP4 PUSH2 0x5CCF JUMP JUMPDEST SWAP2 POP PUSH32 0x426174636820636C61696D20746F6F206C617267650000000000000000000000 PUSH1 0x0 DUP4 ADD MSTORE PUSH1 0x20 DUP3 ADD SWAP1 POP SWAP2 SWAP1 POP JUMP JUMPDEST PUSH1 0x0 PUSH2 0x4CBC PUSH1 0x15 DUP4 PUSH2 0x5CCF JUMP JUMPDEST SWAP2 POP PUSH32 0x4D61782072616E67652063616E6E6F7420626520300000000000000000000000 PUSH1 0x0 DUP4 ADD MSTORE PUSH1 0x20 DUP3 ADD SWAP1 POP SWAP2 SWAP1 POP JUMP JUMPDEST PUSH1 0x0 PUSH2 0x4CFC PUSH1 0x1A DUP4 PUSH2 0x5CCF JUMP JUMPDEST SWAP2 POP PUSH32 0x43616E6E6F742073657420746F2063757272656E742073697A65000000000000 PUSH1 0x0 DUP4 ADD MSTORE PUSH1 0x20 DUP3 ADD SWAP1 POP SWAP2 SWAP1 POP JUMP JUMPDEST PUSH1 0x0 PUSH2 0x4D3C PUSH1 0x18 DUP4 PUSH2 0x5CCF JUMP JUMPDEST SWAP2 POP PUSH32 0x4F6E6C7920746865206F776E65722063616E20636C61696D0000000000000000 PUSH1 0x0 DUP4 ADD MSTORE PUSH1 0x20 DUP3 ADD SWAP1 POP SWAP2 SWAP1 POP JUMP JUMPDEST PUSH1 0x0 PUSH2 0x4D7C PUSH1 0x18 DUP4 PUSH2 0x5CCF JUMP JUMPDEST SWAP2 POP PUSH32 0x536166654D6174683A206D6F64756C6F206279207A65726F0000000000000000 PUSH1 0x0 DUP4 ADD MSTORE PUSH1 0x20 DUP3 ADD SWAP1 POP SWAP2 SWAP1 POP JUMP JUMPDEST PUSH1 0x0 PUSH2 0x4DBC PUSH1 0x2E DUP4 PUSH2 0x5CCF JUMP JUMPDEST SWAP2 POP PUSH32 0x496E697469616C697A61626C653A20636F6E747261637420697320616C726561 PUSH1 0x0 DUP4 ADD MSTORE PUSH32 0x647920696E697469616C697A6564000000000000000000000000000000000000 PUSH1 0x20 DUP4 ADD MSTORE PUSH1 0x40 DUP3 ADD SWAP1 POP SWAP2 SWAP1 POP JUMP JUMPDEST PUSH1 0x0 PUSH2 0x4E22 PUSH1 0x16 DUP4 PUSH2 0x5CCF JUMP JUMPDEST SWAP2 POP PUSH32 0x496E76616C69642063686F73656E206E756D6265727300000000000000000000 PUSH1 0x0 DUP4 ADD MSTORE PUSH1 0x20 DUP3 ADD SWAP1 POP SWAP2 SWAP1 POP JUMP JUMPDEST PUSH1 0x0 PUSH2 0x4E62 PUSH1 0x1D DUP4 PUSH2 0x5CCF JUMP JUMPDEST SWAP2 POP PUSH32 0x436F6E7472616374732063616E6E6F7420626520302061646472657373000000 PUSH1 0x0 DUP4 ADD MSTORE PUSH1 0x20 DUP3 ADD SWAP1 POP SWAP2 SWAP1 POP JUMP JUMPDEST PUSH1 0x0 PUSH2 0x4EA2 PUSH1 0x21 DUP4 PUSH2 0x5CCF JUMP JUMPDEST SWAP2 POP PUSH32 0x536166654D6174683A206D756C7469706C69636174696F6E206F766572666C6F PUSH1 0x0 DUP4 ADD MSTORE PUSH32 0x7700000000000000000000000000000000000000000000000000000000000000 PUSH1 0x20 DUP4 ADD MSTORE PUSH1 0x40 DUP3 ADD SWAP1 POP SWAP2 SWAP1 POP JUMP JUMPDEST PUSH1 0x0 PUSH2 0x4F08 PUSH1 0x20 DUP4 PUSH2 0x5CCF JUMP JUMPDEST SWAP2 POP PUSH32 0x4F776E61626C653A2063616C6C6572206973206E6F7420746865206F776E6572 PUSH1 0x0 DUP4 ADD MSTORE PUSH1 0x20 DUP3 ADD SWAP1 POP SWAP2 SWAP1 POP JUMP JUMPDEST PUSH1 0x0 PUSH2 0x4F48 PUSH1 0x14 DUP4 PUSH2 0x5CCF JUMP JUMPDEST SWAP2 POP PUSH32 0x636F6E7472616374206E6F7420616C6C6F776564000000000000000000000000 PUSH1 0x0 DUP4 ADD MSTORE PUSH1 0x20 DUP3 ADD SWAP1 POP SWAP2 SWAP1 POP JUMP JUMPDEST PUSH1 0x0 PUSH2 0x4F88 PUSH1 0x29 DUP4 PUSH2 0x5CCF JUMP JUMPDEST SWAP2 POP PUSH32 0x43616E6E6F74207365742077696E6E696E67206E756D6265727320647572696E PUSH1 0x0 DUP4 ADD MSTORE PUSH32 0x67206C6F74746572790000000000000000000000000000000000000000000000 PUSH1 0x20 DUP4 ADD MSTORE PUSH1 0x40 DUP3 ADD SWAP1 POP SWAP2 SWAP1 POP JUMP JUMPDEST PUSH1 0x0 PUSH2 0x4FEE PUSH1 0x1D DUP4 PUSH2 0x5CCF JUMP JUMPDEST SWAP2 POP PUSH32 0x416464726573733A2063616C6C20746F206E6F6E2D636F6E7472616374000000 PUSH1 0x0 DUP4 ADD MSTORE PUSH1 0x20 DUP3 ADD SWAP1 POP SWAP2 SWAP1 POP JUMP JUMPDEST PUSH1 0x0 PUSH2 0x502E PUSH1 0x18 DUP4 PUSH2 0x5CCF JUMP JUMPDEST SWAP2 POP PUSH32 0x4275636B65742072616E67652063616E6E6F7420626520300000000000000000 PUSH1 0x0 DUP4 ADD MSTORE PUSH1 0x20 DUP3 ADD SWAP1 POP SWAP2 SWAP1 POP JUMP JUMPDEST PUSH1 0x0 PUSH2 0x506E PUSH1 0x1D DUP4 PUSH2 0x5CCF JUMP JUMPDEST SWAP2 POP PUSH32 0x4C6F7474657279206E6F7420696E20737461746520666F72206D696E74000000 PUSH1 0x0 DUP4 ADD MSTORE PUSH1 0x20 DUP3 ADD SWAP1 POP SWAP2 SWAP1 POP JUMP JUMPDEST PUSH1 0x0 PUSH2 0x50AE PUSH1 0x1E DUP4 PUSH2 0x5CCF JUMP JUMPDEST SWAP2 POP PUSH32 0x54696D657374616D707320666F72206C6F747465727920696E76616C69640000 PUSH1 0x0 DUP4 ADD MSTORE PUSH1 0x20 DUP3 ADD SWAP1 POP SWAP2 SWAP1 POP JUMP JUMPDEST PUSH1 0x0 PUSH2 0x50EE PUSH1 0x2A DUP4 PUSH2 0x5CCF JUMP JUMPDEST SWAP2 POP PUSH32 0x5361666545524332303A204552433230206F7065726174696F6E20646964206E PUSH1 0x0 DUP4 ADD MSTORE PUSH32 0x6F74207375636365656400000000000000000000000000000000000000000000 PUSH1 0x20 DUP4 ADD MSTORE PUSH1 0x40 DUP3 ADD SWAP1 POP SWAP2 SWAP1 POP JUMP JUMPDEST PUSH1 0x0 PUSH2 0x5154 PUSH1 0x1E DUP4 PUSH2 0x5CCF JUMP JUMPDEST SWAP2 POP PUSH32 0x57696E6E696E67204E756D62657273206E6F742063686F73656E207965740000 PUSH1 0x0 DUP4 ADD MSTORE PUSH1 0x20 DUP3 ADD SWAP1 POP SWAP2 SWAP1 POP JUMP JUMPDEST PUSH1 0x0 PUSH2 0x5194 PUSH1 0x1E DUP4 PUSH2 0x5CCF JUMP JUMPDEST SWAP2 POP PUSH32 0x5072697A6520646973747269627574696F6E206973206E6F7420313030250000 PUSH1 0x0 DUP4 ADD MSTORE PUSH1 0x20 DUP3 ADD SWAP1 POP SWAP2 SWAP1 POP JUMP JUMPDEST PUSH1 0x0 PUSH2 0x100 DUP4 ADD PUSH1 0x0 DUP4 ADD MLOAD PUSH2 0x51E0 PUSH1 0x0 DUP7 ADD DUP3 PUSH2 0x529C JUMP JUMPDEST POP PUSH1 0x20 DUP4 ADD MLOAD PUSH2 0x51F3 PUSH1 0x20 DUP7 ADD DUP3 PUSH2 0x471B JUMP JUMPDEST POP PUSH1 0x40 DUP4 ADD MLOAD PUSH2 0x5206 PUSH1 0x40 DUP7 ADD DUP3 PUSH2 0x529C JUMP JUMPDEST POP PUSH1 0x60 DUP4 ADD MLOAD PUSH2 0x5219 PUSH1 0x60 DUP7 ADD DUP3 PUSH2 0x529C JUMP JUMPDEST POP PUSH1 0x80 DUP4 ADD MLOAD DUP5 DUP3 SUB PUSH1 0x80 DUP7 ADD MSTORE PUSH2 0x5231 DUP3 DUP3 PUSH2 0x467D JUMP JUMPDEST SWAP2 POP POP PUSH1 0xA0 DUP4 ADD MLOAD PUSH2 0x5246 PUSH1 0xA0 DUP7 ADD DUP3 PUSH2 0x529C JUMP JUMPDEST POP PUSH1 0xC0 DUP4 ADD MLOAD PUSH2 0x5259 PUSH1 0xC0 DUP7 ADD DUP3 PUSH2 0x529C JUMP JUMPDEST POP PUSH1 0xE0 DUP4 ADD MLOAD DUP5 DUP3 SUB PUSH1 0xE0 DUP7 ADD MSTORE PUSH2 0x5271 DUP3 DUP3 PUSH2 0x45C1 JUMP JUMPDEST SWAP2 POP POP DUP1 SWAP2 POP POP SWAP3 SWAP2 POP POP JUMP JUMPDEST PUSH2 0x5287 DUP2 PUSH2 0x5D32 JUMP JUMPDEST DUP3 MSTORE POP POP JUMP JUMPDEST PUSH2 0x5296 DUP2 PUSH2 0x5D32 JUMP JUMPDEST DUP3 MSTORE POP POP JUMP JUMPDEST PUSH2 0x52A5 DUP2 PUSH2 0x5D60 JUMP JUMPDEST DUP3 MSTORE POP POP JUMP JUMPDEST PUSH2 0x52B4 DUP2 PUSH2 0x5D60 JUMP JUMPDEST DUP3 MSTORE POP POP JUMP JUMPDEST PUSH2 0x52CB PUSH2 0x52C6 DUP3 PUSH2 0x5D60 JUMP JUMPDEST PUSH2 0x5E04 JUMP JUMPDEST DUP3 MSTORE POP POP JUMP JUMPDEST PUSH2 0x52DA DUP2 PUSH2 0x5DBF JUMP JUMPDEST DUP3 MSTORE POP POP JUMP JUMPDEST PUSH2 0x52E9 DUP2 PUSH2 0x5D6A JUMP JUMPDEST DUP3 MSTORE POP POP JUMP JUMPDEST PUSH2 0x52F8 DUP2 PUSH2 0x5D6A JUMP JUMPDEST DUP3 MSTORE POP POP JUMP JUMPDEST PUSH1 0x0 PUSH2 0x530A DUP3 DUP5 PUSH2 0x46EA JUMP JUMPDEST SWAP2 POP DUP2 SWAP1 POP SWAP3 SWAP2 POP POP JUMP JUMPDEST PUSH1 0x0 PUSH2 0x5321 DUP3 DUP6 PUSH2 0x52BA JUMP JUMPDEST PUSH1 0x20 DUP3 ADD SWAP2 POP PUSH2 0x5331 DUP3 DUP5 PUSH2 0x52BA JUMP JUMPDEST PUSH1 0x20 DUP3 ADD SWAP2 POP DUP2 SWAP1 POP SWAP4 SWAP3 POP POP POP JUMP JUMPDEST PUSH1 0x0 PUSH1 0x20 DUP3 ADD SWAP1 POP PUSH2 0x5356 PUSH1 0x0 DUP4 ADD DUP5 PUSH2 0x4555 JUMP JUMPDEST SWAP3 SWAP2 POP POP JUMP JUMPDEST PUSH1 0x0 PUSH1 0x60 DUP3 ADD SWAP1 POP PUSH2 0x5371 PUSH1 0x0 DUP4 ADD DUP7 PUSH2 0x4546 JUMP JUMPDEST PUSH2 0x537E PUSH1 0x20 DUP4 ADD DUP6 PUSH2 0x4555 JUMP JUMPDEST PUSH2 0x538B PUSH1 0x40 DUP4 ADD DUP5 PUSH2 0x52AB JUMP JUMPDEST SWAP5 SWAP4 POP POP POP POP JUMP JUMPDEST PUSH1 0x0 PUSH1 0x40 DUP3 ADD SWAP1 POP PUSH2 0x53A8 PUSH1 0x0 DUP4 ADD DUP6 PUSH2 0x4546 JUMP JUMPDEST PUSH2 0x53B5 PUSH1 0x20 DUP4 ADD DUP5 PUSH2 0x528D JUMP JUMPDEST SWAP4 SWAP3 POP POP POP JUMP JUMPDEST PUSH1 0x0 PUSH1 0x40 DUP3 ADD SWAP1 POP PUSH2 0x53D1 PUSH1 0x0 DUP4 ADD DUP6 PUSH2 0x4546 JUMP JUMPDEST PUSH2 0x53DE PUSH1 0x20 DUP4 ADD DUP5 PUSH2 0x52AB JUMP JUMPDEST SWAP4 SWAP3 POP POP POP JUMP JUMPDEST PUSH1 0x0 PUSH1 0xA0 DUP3 ADD SWAP1 POP PUSH2 0x53FA PUSH1 0x0 DUP4 ADD DUP10 PUSH2 0x4546 JUMP JUMPDEST PUSH2 0x5407 PUSH1 0x20 DUP4 ADD DUP9 PUSH2 0x52AB JUMP JUMPDEST PUSH2 0x5414 PUSH1 0x40 DUP4 ADD DUP8 PUSH2 0x52EF JUMP JUMPDEST DUP2 DUP2 SUB PUSH1 0x60 DUP4 ADD MSTORE PUSH2 0x5427 DUP2 DUP6 DUP8 PUSH2 0x4564 JUMP JUMPDEST SWAP1 POP PUSH2 0x5436 PUSH1 0x80 DUP4 ADD DUP5 PUSH2 0x52EF JUMP JUMPDEST SWAP8 SWAP7 POP POP POP POP POP POP POP JUMP JUMPDEST PUSH1 0x0 PUSH1 0x40 DUP3 ADD SWAP1 POP PUSH2 0x5456 PUSH1 0x0 DUP4 ADD DUP6 PUSH2 0x4546 JUMP JUMPDEST PUSH2 0x5463 PUSH1 0x20 DUP4 ADD DUP5 PUSH2 0x52EF JUMP JUMPDEST SWAP4 SWAP3 POP POP POP JUMP JUMPDEST PUSH1 0x0 PUSH1 0xC0 DUP3 ADD SWAP1 POP PUSH2 0x547F PUSH1 0x0 DUP4 ADD DUP10 PUSH2 0x4546 JUMP JUMPDEST PUSH2 0x548C PUSH1 0x20 DUP4 ADD DUP9 PUSH2 0x52EF JUMP JUMPDEST PUSH2 0x5499 PUSH1 0x40 DUP4 ADD DUP8 PUSH2 0x52EF JUMP JUMPDEST PUSH2 0x54A6 PUSH1 0x60 DUP4 ADD DUP7 PUSH2 0x52EF JUMP JUMPDEST PUSH2 0x54B3 PUSH1 0x80 DUP4 ADD DUP6 PUSH2 0x52EF JUMP JUMPDEST PUSH2 0x54C0 PUSH1 0xA0 DUP4 ADD DUP5 PUSH2 0x52EF JUMP JUMPDEST SWAP8 SWAP7 POP POP POP POP POP POP POP JUMP JUMPDEST PUSH1 0x0 PUSH1 0x40 DUP3 ADD SWAP1 POP PUSH2 0x54E0 PUSH1 0x0 DUP4 ADD DUP6 PUSH2 0x4555 JUMP JUMPDEST PUSH2 0x54ED PUSH1 0x20 DUP4 ADD DUP5 PUSH2 0x52AB JUMP JUMPDEST SWAP4 SWAP3 POP POP POP JUMP JUMPDEST PUSH1 0x0 PUSH1 0xA0 DUP3 ADD SWAP1 POP DUP2 DUP2 SUB PUSH1 0x0 DUP4 ADD MSTORE PUSH2 0x550E DUP2 DUP10 PUSH2 0x461F JUMP JUMPDEST SWAP1 POP DUP2 DUP2 SUB PUSH1 0x20 DUP4 ADD MSTORE PUSH2 0x5523 DUP2 DUP8 DUP10 PUSH2 0x4564 JUMP JUMPDEST SWAP1 POP PUSH2 0x5532 PUSH1 0x40 DUP4 ADD DUP7 PUSH2 0x52AB JUMP JUMPDEST PUSH2 0x553F PUSH1 0x60 DUP4 ADD DUP6 PUSH2 0x52AB JUMP JUMPDEST PUSH2 0x554C PUSH1 0x80 DUP4 ADD DUP5 PUSH2 0x52AB JUMP JUMPDEST SWAP8 SWAP7 POP POP POP POP POP POP POP JUMP JUMPDEST PUSH1 0x0 PUSH1 0x20 DUP3 ADD SWAP1 POP DUP2 DUP2 SUB PUSH1 0x0 DUP4 ADD MSTORE PUSH2 0x5571 DUP2 DUP5 PUSH2 0x472A JUMP JUMPDEST SWAP1 POP SWAP3 SWAP2 POP POP JUMP JUMPDEST PUSH1 0x0 PUSH1 0x20 DUP3 ADD SWAP1 POP DUP2 DUP2 SUB PUSH1 0x0 DUP4 ADD MSTORE PUSH2 0x5592 DUP2 PUSH2 0x4763 JUMP JUMPDEST SWAP1 POP SWAP2 SWAP1 POP JUMP JUMPDEST PUSH1 0x0 PUSH1 0x20 DUP3 ADD SWAP1 POP DUP2 DUP2 SUB PUSH1 0x0 DUP4 ADD MSTORE PUSH2 0x55B2 DUP2 PUSH2 0x47A3 JUMP JUMPDEST SWAP1 POP SWAP2 SWAP1 POP JUMP JUMPDEST PUSH1 0x0 PUSH1 0x20 DUP3 ADD SWAP1 POP DUP2 DUP2 SUB PUSH1 0x0 DUP4 ADD MSTORE PUSH2 0x55D2 DUP2 PUSH2 0x47E3 JUMP JUMPDEST SWAP1 POP SWAP2 SWAP1 POP JUMP JUMPDEST PUSH1 0x0 PUSH1 0x20 DUP3 ADD SWAP1 POP DUP2 DUP2 SUB PUSH1 0x0 DUP4 ADD MSTORE PUSH2 0x55F2 DUP2 PUSH2 0x4823 JUMP JUMPDEST SWAP1 POP SWAP2 SWAP1 POP JUMP JUMPDEST PUSH1 0x0 PUSH1 0x20 DUP3 ADD SWAP1 POP DUP2 DUP2 SUB PUSH1 0x0 DUP4 ADD MSTORE PUSH2 0x5612 DUP2 PUSH2 0x4863 JUMP JUMPDEST SWAP1 POP SWAP2 SWAP1 POP JUMP JUMPDEST PUSH1 0x0 PUSH1 0x20 DUP3 ADD SWAP1 POP DUP2 DUP2 SUB PUSH1 0x0 DUP4 ADD MSTORE PUSH2 0x5632 DUP2 PUSH2 0x48A3 JUMP JUMPDEST SWAP1 POP SWAP2 SWAP1 POP JUMP JUMPDEST PUSH1 0x0 PUSH1 0x20 DUP3 ADD SWAP1 POP DUP2 DUP2 SUB PUSH1 0x0 DUP4 ADD MSTORE PUSH2 0x5652 DUP2 PUSH2 0x4909 JUMP JUMPDEST SWAP1 POP SWAP2 SWAP1 POP JUMP JUMPDEST PUSH1 0x0 PUSH1 0x20 DUP3 ADD SWAP1 POP DUP2 DUP2 SUB PUSH1 0x0 DUP4 ADD MSTORE PUSH2 0x5672 DUP2 PUSH2 0x4949 JUMP JUMPDEST SWAP1 POP SWAP2 SWAP1 POP JUMP JUMPDEST PUSH1 0x0 PUSH1 0x20 DUP3 ADD SWAP1 POP DUP2 DUP2 SUB PUSH1 0x0 DUP4 ADD MSTORE PUSH2 0x5692 DUP2 PUSH2 0x4989 JUMP JUMPDEST SWAP1 POP SWAP2 SWAP1 POP JUMP JUMPDEST PUSH1 0x0 PUSH1 0x20 DUP3 ADD SWAP1 POP DUP2 DUP2 SUB PUSH1 0x0 DUP4 ADD MSTORE PUSH2 0x56B2 DUP2 PUSH2 0x49C9 JUMP JUMPDEST SWAP1 POP SWAP2 SWAP1 POP JUMP JUMPDEST PUSH1 0x0 PUSH1 0x20 DUP3 ADD SWAP1 POP DUP2 DUP2 SUB PUSH1 0x0 DUP4 ADD MSTORE PUSH2 0x56D2 DUP2 PUSH2 0x4A09 JUMP JUMPDEST SWAP1 POP SWAP2 SWAP1 POP JUMP JUMPDEST PUSH1 0x0 PUSH1 0x20 DUP3 ADD SWAP1 POP DUP2 DUP2 SUB PUSH1 0x0 DUP4 ADD MSTORE PUSH2 0x56F2 DUP2 PUSH2 0x4A49 JUMP JUMPDEST SWAP1 POP SWAP2 SWAP1 POP JUMP JUMPDEST PUSH1 0x0 PUSH1 0x20 DUP3 ADD SWAP1 POP DUP2 DUP2 SUB PUSH1 0x0 DUP4 ADD MSTORE PUSH2 0x5712 DUP2 PUSH2 0x4A89 JUMP JUMPDEST SWAP1 POP SWAP2 SWAP1 POP JUMP JUMPDEST PUSH1 0x0 PUSH1 0x20 DUP3 ADD SWAP1 POP DUP2 DUP2 SUB PUSH1 0x0 DUP4 ADD MSTORE PUSH2 0x5732 DUP2 PUSH2 0x4AC9 JUMP JUMPDEST SWAP1 POP SWAP2 SWAP1 POP JUMP JUMPDEST PUSH1 0x0 PUSH1 0x20 DUP3 ADD SWAP1 POP DUP2 DUP2 SUB PUSH1 0x0 DUP4 ADD MSTORE PUSH2 0x5752 DUP2 PUSH2 0x4B09 JUMP JUMPDEST SWAP1 POP SWAP2 SWAP1 POP JUMP JUMPDEST PUSH1 0x0 PUSH1 0x20 DUP3 ADD SWAP1 POP DUP2 DUP2 SUB PUSH1 0x0 DUP4 ADD MSTORE PUSH2 0x5772 DUP2 PUSH2 0x4B49 JUMP JUMPDEST SWAP1 POP SWAP2 SWAP1 POP JUMP JUMPDEST PUSH1 0x0 PUSH1 0x20 DUP3 ADD SWAP1 POP DUP2 DUP2 SUB PUSH1 0x0 DUP4 ADD MSTORE PUSH2 0x5792 DUP2 PUSH2 0x4BAF JUMP JUMPDEST SWAP1 POP SWAP2 SWAP1 POP JUMP JUMPDEST PUSH1 0x0 PUSH1 0x20 DUP3 ADD SWAP1 POP DUP2 DUP2 SUB PUSH1 0x0 DUP4 ADD MSTORE PUSH2 0x57B2 DUP2 PUSH2 0x4BEF JUMP JUMPDEST SWAP1 POP SWAP2 SWAP1 POP JUMP JUMPDEST PUSH1 0x0 PUSH1 0x20 DUP3 ADD SWAP1 POP DUP2 DUP2 SUB PUSH1 0x0 DUP4 ADD MSTORE PUSH2 0x57D2 DUP2 PUSH2 0x4C2F JUMP JUMPDEST SWAP1 POP SWAP2 SWAP1 POP JUMP JUMPDEST PUSH1 0x0 PUSH1 0x20 DUP3 ADD SWAP1 POP DUP2 DUP2 SUB PUSH1 0x0 DUP4 ADD MSTORE PUSH2 0x57F2 DUP2 PUSH2 0x4C6F JUMP JUMPDEST SWAP1 POP SWAP2 SWAP1 POP JUMP JUMPDEST PUSH1 0x0 PUSH1 0x20 DUP3 ADD SWAP1 POP DUP2 DUP2 SUB PUSH1 0x0 DUP4 ADD MSTORE PUSH2 0x5812 DUP2 PUSH2 0x4CAF JUMP JUMPDEST SWAP1 POP SWAP2 SWAP1 POP JUMP JUMPDEST PUSH1 0x0 PUSH1 0x20 DUP3 ADD SWAP1 POP DUP2 DUP2 SUB PUSH1 0x0 DUP4 ADD MSTORE PUSH2 0x5832 DUP2 PUSH2 0x4CEF JUMP JUMPDEST SWAP1 POP SWAP2 SWAP1 POP JUMP JUMPDEST PUSH1 0x0 PUSH1 0x20 DUP3 ADD SWAP1 POP DUP2 DUP2 SUB PUSH1 0x0 DUP4 ADD MSTORE PUSH2 0x5852 DUP2 PUSH2 0x4D2F JUMP JUMPDEST SWAP1 POP SWAP2 SWAP1 POP JUMP JUMPDEST PUSH1 0x0 PUSH1 0x20 DUP3 ADD SWAP1 POP DUP2 DUP2 SUB PUSH1 0x0 DUP4 ADD MSTORE PUSH2 0x5872 DUP2 PUSH2 0x4D6F JUMP JUMPDEST SWAP1 POP SWAP2 SWAP1 POP JUMP JUMPDEST PUSH1 0x0 PUSH1 0x20 DUP3 ADD SWAP1 POP DUP2 DUP2 SUB PUSH1 0x0 DUP4 ADD MSTORE PUSH2 0x5892 DUP2 PUSH2 0x4DAF JUMP JUMPDEST SWAP1 POP SWAP2 SWAP1 POP JUMP JUMPDEST PUSH1 0x0 PUSH1 0x20 DUP3 ADD SWAP1 POP DUP2 DUP2 SUB PUSH1 0x0 DUP4 ADD MSTORE PUSH2 0x58B2 DUP2 PUSH2 0x4E15 JUMP JUMPDEST SWAP1 POP SWAP2 SWAP1 POP JUMP JUMPDEST PUSH1 0x0 PUSH1 0x20 DUP3 ADD SWAP1 POP DUP2 DUP2 SUB PUSH1 0x0 DUP4 ADD MSTORE PUSH2 0x58D2 DUP2 PUSH2 0x4E55 JUMP JUMPDEST SWAP1 POP SWAP2 SWAP1 POP JUMP JUMPDEST PUSH1 0x0 PUSH1 0x20 DUP3 ADD SWAP1 POP DUP2 DUP2 SUB PUSH1 0x0 DUP4 ADD MSTORE PUSH2 0x58F2 DUP2 PUSH2 0x4E95 JUMP JUMPDEST SWAP1 POP SWAP2 SWAP1 POP JUMP JUMPDEST PUSH1 0x0 PUSH1 0x20 DUP3 ADD SWAP1 POP DUP2 DUP2 SUB PUSH1 0x0 DUP4 ADD MSTORE PUSH2 0x5912 DUP2 PUSH2 0x4EFB JUMP JUMPDEST SWAP1 POP SWAP2 SWAP1 POP JUMP JUMPDEST PUSH1 0x0 PUSH1 0x20 DUP3 ADD SWAP1 POP DUP2 DUP2 SUB PUSH1 0x0 DUP4 ADD MSTORE PUSH2 0x5932 DUP2 PUSH2 0x4F3B JUMP JUMPDEST SWAP1 POP SWAP2 SWAP1 POP JUMP JUMPDEST PUSH1 0x0 PUSH1 0x20 DUP3 ADD SWAP1 POP DUP2 DUP2 SUB PUSH1 0x0 DUP4 ADD MSTORE PUSH2 0x5952 DUP2 PUSH2 0x4F7B JUMP JUMPDEST SWAP1 POP SWAP2 SWAP1 POP JUMP JUMPDEST PUSH1 0x0 PUSH1 0x20 DUP3 ADD SWAP1 POP DUP2 DUP2 SUB PUSH1 0x0 DUP4 ADD MSTORE PUSH2 0x5972 DUP2 PUSH2 0x4FE1 JUMP JUMPDEST SWAP1 POP SWAP2 SWAP1 POP JUMP JUMPDEST PUSH1 0x0 PUSH1 0x20 DUP3 ADD SWAP1 POP DUP2 DUP2 SUB PUSH1 0x0 DUP4 ADD MSTORE PUSH2 0x5992 DUP2 PUSH2 0x5021 JUMP JUMPDEST SWAP1 POP SWAP2 SWAP1 POP JUMP JUMPDEST PUSH1 0x0 PUSH1 0x20 DUP3 ADD SWAP1 POP DUP2 DUP2 SUB PUSH1 0x0 DUP4 ADD MSTORE PUSH2 0x59B2 DUP2 PUSH2 0x5061 JUMP JUMPDEST SWAP1 POP SWAP2 SWAP1 POP JUMP JUMPDEST PUSH1 0x0 PUSH1 0x20 DUP3 ADD SWAP1 POP DUP2 DUP2 SUB PUSH1 0x0 DUP4 ADD MSTORE PUSH2 0x59D2 DUP2 PUSH2 0x50A1 JUMP JUMPDEST SWAP1 POP SWAP2 SWAP1 POP JUMP JUMPDEST PUSH1 0x0 PUSH1 0x20 DUP3 ADD SWAP1 POP DUP2 DUP2 SUB PUSH1 0x0 DUP4 ADD MSTORE PUSH2 0x59F2 DUP2 PUSH2 0x50E1 JUMP JUMPDEST SWAP1 POP SWAP2 SWAP1 POP JUMP JUMPDEST PUSH1 0x0 PUSH1 0x20 DUP3 ADD SWAP1 POP DUP2 DUP2 SUB PUSH1 0x0 DUP4 ADD MSTORE PUSH2 0x5A12 DUP2 PUSH2 0x5147 JUMP JUMPDEST SWAP1 POP SWAP2 SWAP1 POP JUMP JUMPDEST PUSH1 0x0 PUSH1 0x20 DUP3 ADD SWAP1 POP DUP2 DUP2 SUB PUSH1 0x0 DUP4 ADD MSTORE PUSH2 0x5A32 DUP2 PUSH2 0x5187 JUMP JUMPDEST SWAP1 POP SWAP2 SWAP1 POP JUMP JUMPDEST PUSH1 0x0 PUSH1 0x20 DUP3 ADD SWAP1 POP DUP2 DUP2 SUB PUSH1 0x0 DUP4 ADD MSTORE PUSH2 0x5A53 DUP2 DUP5 PUSH2 0x51C7 JUMP JUMPDEST SWAP1 POP SWAP3 SWAP2 POP POP JUMP JUMPDEST PUSH1 0x0 PUSH1 0x20 DUP3 ADD SWAP1 POP PUSH2 0x5A70 PUSH1 0x0 DUP4 ADD DUP5 PUSH2 0x528D JUMP JUMPDEST SWAP3 SWAP2 POP POP JUMP JUMPDEST PUSH1 0x0 PUSH1 0x20 DUP3 ADD SWAP1 POP PUSH2 0x5A8B PUSH1 0x0 DUP4 ADD DUP5 PUSH2 0x52AB JUMP JUMPDEST SWAP3 SWAP2 POP POP JUMP JUMPDEST PUSH1 0x0 PUSH1 0x40 DUP3 ADD SWAP1 POP PUSH2 0x5AA6 PUSH1 0x0 DUP4 ADD DUP6 PUSH2 0x52AB JUMP JUMPDEST PUSH2 0x5AB3 PUSH1 0x20 DUP4 ADD DUP5 PUSH2 0x46DB JUMP JUMPDEST SWAP4 SWAP3 POP POP POP JUMP JUMPDEST PUSH1 0x0 PUSH1 0x40 DUP3 ADD SWAP1 POP PUSH2 0x5ACF PUSH1 0x0 DUP4 ADD DUP6 PUSH2 0x52AB JUMP JUMPDEST PUSH2 0x5ADC PUSH1 0x20 DUP4 ADD DUP5 PUSH2 0x52AB JUMP JUMPDEST SWAP4 SWAP3 POP POP POP JUMP JUMPDEST PUSH1 0x0 PUSH1 0x60 DUP3 ADD SWAP1 POP PUSH2 0x5AF8 PUSH1 0x0 DUP4 ADD DUP7 PUSH2 0x52AB JUMP JUMPDEST PUSH2 0x5B05 PUSH1 0x20 DUP4 ADD DUP6 PUSH2 0x52AB JUMP JUMPDEST PUSH2 0x5B12 PUSH1 0x40 DUP4 ADD DUP5 PUSH2 0x52AB JUMP JUMPDEST SWAP5 SWAP4 POP POP POP POP JUMP JUMPDEST PUSH1 0x0 PUSH1 0x40 DUP3 ADD SWAP1 POP PUSH2 0x5B2F PUSH1 0x0 DUP4 ADD DUP6 PUSH2 0x52AB JUMP JUMPDEST PUSH2 0x5B3C PUSH1 0x20 DUP4 ADD DUP5 PUSH2 0x52D1 JUMP JUMPDEST SWAP4 SWAP3 POP POP POP JUMP JUMPDEST PUSH1 0x0 PUSH1 0x20 DUP3 ADD SWAP1 POP PUSH2 0x5B58 PUSH1 0x0 DUP4 ADD DUP5 PUSH2 0x52EF JUMP JUMPDEST SWAP3 SWAP2 POP POP JUMP JUMPDEST PUSH1 0x0 PUSH1 0x40 MLOAD SWAP1 POP DUP2 DUP2 ADD DUP2 DUP2 LT PUSH8 0xFFFFFFFFFFFFFFFF DUP3 GT OR ISZERO PUSH2 0x5B81 JUMPI PUSH1 0x0 DUP1 REVERT JUMPDEST DUP1 PUSH1 0x40 MSTORE POP SWAP2 SWAP1 POP JUMP JUMPDEST PUSH1 0x0 PUSH8 0xFFFFFFFFFFFFFFFF DUP3 GT ISZERO PUSH2 0x5BA2 JUMPI PUSH1 0x0 DUP1 REVERT JUMPDEST PUSH1 0x20 DUP3 MUL SWAP1 POP PUSH1 0x20 DUP2 ADD SWAP1 POP SWAP2 SWAP1 POP JUMP JUMPDEST PUSH1 0x0 PUSH8 0xFFFFFFFFFFFFFFFF DUP3 GT ISZERO PUSH2 0x5BCA JUMPI PUSH1 0x0 DUP1 REVERT JUMPDEST PUSH1 0x20 DUP3 MUL SWAP1 POP PUSH1 0x20 DUP2 ADD SWAP1 POP SWAP2 SWAP1 POP JUMP JUMPDEST PUSH1 0x0 DUP2 SWAP1 POP SWAP2 SWAP1 POP JUMP JUMPDEST PUSH1 0x0 DUP2 SWAP1 POP PUSH1 0x20 DUP3 ADD SWAP1 POP SWAP2 SWAP1 POP JUMP JUMPDEST PUSH1 0x0 DUP2 SWAP1 POP PUSH1 0x20 DUP3 ADD SWAP1 POP SWAP2 SWAP1 POP JUMP JUMPDEST PUSH1 0x0 DUP2 SWAP1 POP PUSH1 0x20 DUP3 ADD SWAP1 POP SWAP2 SWAP1 POP JUMP JUMPDEST PUSH1 0x0 DUP2 MLOAD SWAP1 POP SWAP2 SWAP1 POP JUMP JUMPDEST PUSH1 0x0 DUP2 MLOAD SWAP1 POP SWAP2 SWAP1 POP JUMP JUMPDEST PUSH1 0x0 DUP2 MLOAD SWAP1 POP SWAP2 SWAP1 POP JUMP JUMPDEST PUSH1 0x0 DUP2 MLOAD SWAP1 POP SWAP2 SWAP1 POP JUMP JUMPDEST PUSH1 0x0 DUP2 MLOAD SWAP1 POP SWAP2 SWAP1 POP JUMP JUMPDEST PUSH1 0x0 PUSH1 0x20 DUP3 ADD SWAP1 POP SWAP2 SWAP1 POP JUMP JUMPDEST PUSH1 0x0 PUSH1 0x20 DUP3 ADD SWAP1 POP SWAP2 SWAP1 POP JUMP JUMPDEST PUSH1 0x0 PUSH1 0x20 DUP3 ADD SWAP1 POP SWAP2 SWAP1 POP JUMP JUMPDEST PUSH1 0x0 PUSH1 0x20 DUP3 ADD SWAP1 POP SWAP2 SWAP1 POP JUMP JUMPDEST PUSH1 0x0 DUP3 DUP3 MSTORE PUSH1 0x20 DUP3 ADD SWAP1 POP SWAP3 SWAP2 POP POP JUMP JUMPDEST PUSH1 0x0 DUP3 DUP3 MSTORE PUSH1 0x20 DUP3 ADD SWAP1 POP SWAP3 SWAP2 POP POP JUMP JUMPDEST PUSH1 0x0 DUP3 DUP3 MSTORE PUSH1 0x20 DUP3 ADD SWAP1 POP SWAP3 SWAP2 POP POP JUMP JUMPDEST PUSH1 0x0 DUP3 DUP3 MSTORE PUSH1 0x20 DUP3 ADD SWAP1 POP SWAP3 SWAP2 POP POP JUMP JUMPDEST PUSH1 0x0 DUP2 SWAP1 POP SWAP3 SWAP2 POP POP JUMP JUMPDEST PUSH1 0x0 DUP3 DUP3 MSTORE PUSH1 0x20 DUP3 ADD SWAP1 POP SWAP3 SWAP2 POP POP JUMP JUMPDEST PUSH1 0x0 PUSH2 0x5CEF PUSH1 0x20 DUP5 ADD DUP5 PUSH2 0x3FE8 JUMP JUMPDEST SWAP1 POP SWAP3 SWAP2 POP POP JUMP JUMPDEST PUSH1 0x0 PUSH2 0x5D02 DUP3 PUSH2 0x5D40 JUMP JUMPDEST SWAP1 POP SWAP2 SWAP1 POP JUMP JUMPDEST PUSH1 0x0 DUP2 ISZERO ISZERO SWAP1 POP SWAP2 SWAP1 POP JUMP JUMPDEST PUSH1 0x0 DUP2 SWAP1 POP SWAP2 SWAP1 POP JUMP JUMPDEST PUSH1 0x0 DUP2 SWAP1 POP PUSH2 0x5D2D DUP3 PUSH2 0x5E1F JUMP JUMPDEST SWAP2 SWAP1 POP JUMP JUMPDEST PUSH1 0x0 PUSH2 0xFFFF DUP3 AND SWAP1 POP SWAP2 SWAP1 POP JUMP JUMPDEST PUSH1 0x0 PUSH20 0xFFFFFFFFFFFFFFFFFFFFFFFFFFFFFFFFFFFFFFFF DUP3 AND SWAP1 POP SWAP2 SWAP1 POP JUMP JUMPDEST PUSH1 0x0 DUP2 SWAP1 POP SWAP2 SWAP1 POP JUMP JUMPDEST PUSH1 0x0 PUSH1 0xFF DUP3 AND SWAP1 POP SWAP2 SWAP1 POP JUMP JUMPDEST PUSH1 0x0 PUSH2 0x5D82 DUP3 PUSH2 0x5D9B JUMP JUMPDEST SWAP1 POP SWAP2 SWAP1 POP JUMP JUMPDEST PUSH1 0x0 PUSH2 0x5D94 DUP3 PUSH2 0x5D1F JUMP JUMPDEST SWAP1 POP SWAP2 SWAP1 POP JUMP JUMPDEST PUSH1 0x0 PUSH2 0x5DA6 DUP3 PUSH2 0x5DAD JUMP JUMPDEST SWAP1 POP SWAP2 SWAP1 POP JUMP JUMPDEST PUSH1 0x0 PUSH2 0x5DB8 DUP3 PUSH2 0x5D40 JUMP JUMPDEST SWAP1 POP SWAP2 SWAP1 POP JUMP JUMPDEST PUSH1 0x0 PUSH2 0x5DCA DUP3 PUSH2 0x5D6A JUMP JUMPDEST SWAP1 POP SWAP2 SWAP1 POP JUMP JUMPDEST PUSH1 0x0 JUMPDEST DUP4 DUP2 LT ISZERO PUSH2 0x5DEF JUMPI DUP1 DUP3 ADD MLOAD DUP2 DUP5 ADD MSTORE PUSH1 0x20 DUP2 ADD SWAP1 POP PUSH2 0x5DD4 JUMP JUMPDEST DUP4 DUP2 GT ISZERO PUSH2 0x5DFE JUMPI PUSH1 0x0 DUP5 DUP5 ADD MSTORE JUMPDEST POP POP POP POP JUMP JUMPDEST PUSH1 0x0 DUP2 SWAP1 POP SWAP2 SWAP1 POP JUMP JUMPDEST PUSH1 0x0 PUSH1 0x1F NOT PUSH1 0x1F DUP4 ADD AND SWAP1 POP SWAP2 SWAP1 POP JUMP JUMPDEST PUSH1 0x4 DUP2 LT PUSH2 0x5E29 JUMPI INVALID JUMPDEST POP JUMP JUMPDEST PUSH2 0x5E35 DUP2 PUSH2 0x5CF7 JUMP JUMPDEST DUP2 EQ PUSH2 0x5E40 JUMPI PUSH1 0x0 DUP1 REVERT JUMPDEST POP JUMP JUMPDEST PUSH2 0x5E4C DUP2 PUSH2 0x5D09 JUMP JUMPDEST DUP2 EQ PUSH2 0x5E57 JUMPI PUSH1 0x0 DUP1 REVERT JUMPDEST POP JUMP JUMPDEST PUSH2 0x5E63 DUP2 PUSH2 0x5D15 JUMP JUMPDEST DUP2 EQ PUSH2 0x5E6E JUMPI PUSH1 0x0 DUP1 REVERT JUMPDEST POP JUMP JUMPDEST PUSH2 0x5E7A DUP2 PUSH2 0x5D32 JUMP JUMPDEST DUP2 EQ PUSH2 0x5E85 JUMPI PUSH1 0x0 DUP1 REVERT JUMPDEST POP JUMP JUMPDEST PUSH2 0x5E91 DUP2 PUSH2 0x5D60 JUMP JUMPDEST DUP2 EQ PUSH2 0x5E9C JUMPI PUSH1 0x0 DUP1 REVERT JUMPDEST POP JUMP JUMPDEST PUSH2 0x5EA8 DUP2 PUSH2 0x5D6A JUMP JUMPDEST DUP2 EQ PUSH2 0x5EB3 JUMPI PUSH1 0x0 DUP1 REVERT JUMPDEST POP JUMP INVALID LOG2 PUSH5 0x6970667358 0x22 SLT KECCAK256 MSIZE SWAP10 0xEF DUP16 0xED JUMPDEST 0xAD SWAP9 ADDMOD 0xE1 0xC9 0xEE CREATE2 0xBF DUP7 DUP11 PUSH15 0x4C3C2477CFF551DC9618ED8F5B7713 PUSH5 0x736F6C6343 STOP MOD 0xC STOP CALLER "
        },
        "methodIdentifiers": {
          "batchBuyLottoTicket(uint256,uint8,uint16[])": "c8cfd902",
          "batchClaimRewards(uint256,uint256[])": "76674b8f",
          "bucketOneMax_()": "350d9251",
          "bucketTwoMax_()": "8be852b1",
          "claimReward(uint256,uint256)": "86bb8f37",
          "costToBuyTickets(uint256,uint256)": "4f7d93db",
          "costToBuyTicketsWithDiscount(uint256,uint256)": "dccda096",
          "createNewLotto(uint8[],uint256,uint256,uint256,uint256)": "8324f7c5",
          "discountForBucketOne_()": "add5edf0",
          "discountForBucketThree_()": "9c216602",
          "discountForBucketTwo_()": "3c309fe7",
          "drawWinningNumbers(uint256,uint256)": "0dabc1d4",
          "getBasicLottoInfo(uint256)": "da476755",
          "getCurrentTime()": "29cb924d",
          "getMaxRange()": "e59bbab5",
          "initialize(address,address)": "485cc955",
          "maxValidRange_()": "a624aa1b",
          "numbersDrawn(uint256,bytes32,uint256)": "e97fc162",
          "owner()": "8da5cb5b",
          "renounceOwnership()": "715018a6",
          "setCurrentTime(uint256)": "22f8e566",
          "sizeOfLottery_()": "075dc415",
          "timerAddress()": "1c39c38d",
          "transferOwnership(address)": "f2fde38b",
          "updateBuckets(uint8,uint8,uint8,uint8,uint8)": "91a28cdd",
          "updateMaxRange(uint16)": "d062b57c",
          "updateSizeOfLottery(uint8)": "0773aa46",
          "withdrawBound(uint256)": "ced5a63f"
        }
      }
    }
  }
}