{
  "_format": "hh-sol-artifact-1",
  "contractName": "Lottery",
  "sourceName": "contracts/Lottery.sol",
  "abi": [
    {
      "inputs": [
        {
          "internalType": "address",
          "name": "_bound",
          "type": "address"
        },
        {
          "internalType": "address",
          "name": "_timer",
          "type": "address"
        },
        {
          "internalType": "uint8",
          "name": "_sizeOfLotteryNumbers",
          "type": "uint8"
        },
        {
          "internalType": "uint16",
          "name": "_maxValidNumberRange",
          "type": "uint16"
        },
        {
          "internalType": "uint8",
          "name": "_bucketOneMaxNumber",
          "type": "uint8"
        },
        {
          "internalType": "uint8",
          "name": "_bucketTwoMaxNumber",
          "type": "uint8"
        },
        {
          "internalType": "uint8",
          "name": "_discountForBucketOne",
          "type": "uint8"
        },
        {
          "internalType": "uint8",
          "name": "_discountForBucketTwo",
          "type": "uint8"
        },
        {
          "internalType": "uint8",
          "name": "_discountForBucketThree",
          "type": "uint8"
        }
      ],
      "stateMutability": "nonpayable",
      "type": "constructor"
    },
    {
      "anonymous": false,
      "inputs": [
        {
          "indexed": false,
          "internalType": "uint256",
          "name": "lotteryId",
          "type": "uint256"
        },
        {
          "indexed": false,
          "internalType": "uint256",
          "name": "ticketSupply",
          "type": "uint256"
        }
      ],
      "name": "LotteryClose",
      "type": "event"
    },
    {
      "anonymous": false,
      "inputs": [
        {
          "indexed": false,
          "internalType": "uint256",
          "name": "lotteryId",
          "type": "uint256"
        },
        {
          "indexed": false,
          "internalType": "uint256",
          "name": "ticketSupply",
          "type": "uint256"
        }
      ],
      "name": "LotteryOpen",
      "type": "event"
    },
    {
      "anonymous": false,
      "inputs": [
        {
          "indexed": true,
          "internalType": "address",
          "name": "minter",
          "type": "address"
        },
        {
          "indexed": false,
          "internalType": "uint256[]",
          "name": "ticketIDs",
          "type": "uint256[]"
        },
        {
          "indexed": false,
          "internalType": "uint16[]",
          "name": "numbers",
          "type": "uint16[]"
        },
        {
          "indexed": false,
          "internalType": "uint256",
          "name": "totalCost",
          "type": "uint256"
        },
        {
          "indexed": false,
          "internalType": "uint256",
          "name": "discount",
          "type": "uint256"
        },
        {
          "indexed": false,
          "internalType": "uint256",
          "name": "pricePaid",
          "type": "uint256"
        }
      ],
      "name": "NewBatchMint",
      "type": "event"
    },
    {
      "anonymous": false,
      "inputs": [
        {
          "indexed": true,
          "internalType": "address",
          "name": "previousOwner",
          "type": "address"
        },
        {
          "indexed": true,
          "internalType": "address",
          "name": "newOwner",
          "type": "address"
        }
      ],
      "name": "OwnershipTransferred",
      "type": "event"
    },
    {
      "anonymous": false,
      "inputs": [
        {
          "indexed": false,
          "internalType": "uint256",
          "name": "lotteryId",
          "type": "uint256"
        },
        {
          "indexed": false,
          "internalType": "bytes32",
          "name": "requestId",
          "type": "bytes32"
        }
      ],
      "name": "RequestNumbers",
      "type": "event"
    },
    {
      "anonymous": false,
      "inputs": [
        {
          "indexed": false,
          "internalType": "address",
          "name": "admin",
          "type": "address"
        },
        {
          "indexed": false,
          "internalType": "uint8",
          "name": "bucketOneMax",
          "type": "uint8"
        },
        {
          "indexed": false,
          "internalType": "uint8",
          "name": "bucketTwoMax",
          "type": "uint8"
        },
        {
          "indexed": false,
          "internalType": "uint8",
          "name": "discountForBucketOne",
          "type": "uint8"
        },
        {
          "indexed": false,
          "internalType": "uint8",
          "name": "discountForBucketTwo",
          "type": "uint8"
        },
        {
          "indexed": false,
          "internalType": "uint8",
          "name": "discountForBucketThree",
          "type": "uint8"
        }
      ],
      "name": "UpdatedBuckets",
      "type": "event"
    },
    {
      "anonymous": false,
      "inputs": [
        {
          "indexed": false,
          "internalType": "address",
          "name": "admin",
          "type": "address"
        },
        {
          "indexed": false,
          "internalType": "uint16",
          "name": "newMaxRange",
          "type": "uint16"
        }
      ],
      "name": "UpdatedMaxRange",
      "type": "event"
    },
    {
      "anonymous": false,
      "inputs": [
        {
          "indexed": false,
          "internalType": "address",
          "name": "admin",
          "type": "address"
        },
        {
          "indexed": false,
          "internalType": "uint8",
          "name": "newLotterySize",
          "type": "uint8"
        }
      ],
      "name": "UpdatedSizeOfLottery",
      "type": "event"
    },
    {
      "inputs": [
        {
          "internalType": "uint256",
          "name": "_lotteryId",
          "type": "uint256"
        },
        {
          "internalType": "uint8",
          "name": "_numberOfTickets",
          "type": "uint8"
        },
        {
          "internalType": "uint16[]",
          "name": "_chosenNumbersForEachTicket",
          "type": "uint16[]"
        }
      ],
      "name": "batchBuyLottoTicket",
      "outputs": [],
      "stateMutability": "nonpayable",
      "type": "function"
    },
    {
      "inputs": [
        {
          "internalType": "uint256",
          "name": "_lotteryId",
          "type": "uint256"
        },
        {
          "internalType": "uint256[]",
          "name": "_tokeIds",
          "type": "uint256[]"
        }
      ],
      "name": "batchClaimRewards",
      "outputs": [],
      "stateMutability": "nonpayable",
      "type": "function"
    },
    {
      "inputs": [],
      "name": "bucketOneMax_",
      "outputs": [
        {
          "internalType": "uint8",
          "name": "",
          "type": "uint8"
        }
      ],
      "stateMutability": "view",
      "type": "function"
    },
    {
      "inputs": [],
      "name": "bucketTwoMax_",
      "outputs": [
        {
          "internalType": "uint8",
          "name": "",
          "type": "uint8"
        }
      ],
      "stateMutability": "view",
      "type": "function"
    },
    {
      "inputs": [
        {
          "internalType": "uint256",
          "name": "_lotteryId",
          "type": "uint256"
        },
        {
          "internalType": "uint256",
          "name": "_tokenId",
          "type": "uint256"
        }
      ],
      "name": "claimReward",
      "outputs": [],
      "stateMutability": "nonpayable",
      "type": "function"
    },
    {
      "inputs": [
        {
          "internalType": "uint256",
          "name": "_lotteryId",
          "type": "uint256"
        },
        {
          "internalType": "uint256",
          "name": "_numberOfTickets",
          "type": "uint256"
        }
      ],
      "name": "costToBuyTickets",
      "outputs": [
        {
          "internalType": "uint256",
          "name": "totalCost",
          "type": "uint256"
        }
      ],
      "stateMutability": "view",
      "type": "function"
    },
    {
      "inputs": [
        {
          "internalType": "uint256",
          "name": "_lotteryId",
          "type": "uint256"
        },
        {
          "internalType": "uint256",
          "name": "_numberOfTickets",
          "type": "uint256"
        }
      ],
      "name": "costToBuyTicketsWithDiscount",
      "outputs": [
        {
          "internalType": "uint256",
          "name": "cost",
          "type": "uint256"
        },
        {
          "internalType": "uint256",
          "name": "discount",
          "type": "uint256"
        },
        {
          "internalType": "uint256",
          "name": "costWithDiscount",
          "type": "uint256"
        }
      ],
      "stateMutability": "view",
      "type": "function"
    },
    {
      "inputs": [
        {
          "internalType": "uint8[]",
          "name": "_prizeDistribution",
          "type": "uint8[]"
        },
        {
          "internalType": "uint256",
          "name": "_prizePoolInBound",
          "type": "uint256"
        },
        {
          "internalType": "uint256",
          "name": "_costPerTicket",
          "type": "uint256"
        },
        {
          "internalType": "uint256",
          "name": "_startingTimestamp",
          "type": "uint256"
        },
        {
          "internalType": "uint256",
          "name": "_closingTimestamp",
          "type": "uint256"
        }
      ],
      "name": "createNewLotto",
      "outputs": [
        {
          "internalType": "uint256",
          "name": "lotteryId",
          "type": "uint256"
        }
      ],
      "stateMutability": "nonpayable",
      "type": "function"
    },
    {
      "inputs": [],
      "name": "discountForBucketOne_",
      "outputs": [
        {
          "internalType": "uint8",
          "name": "",
          "type": "uint8"
        }
      ],
      "stateMutability": "view",
      "type": "function"
    },
    {
      "inputs": [],
      "name": "discountForBucketThree_",
      "outputs": [
        {
          "internalType": "uint8",
          "name": "",
          "type": "uint8"
        }
      ],
      "stateMutability": "view",
      "type": "function"
    },
    {
      "inputs": [],
      "name": "discountForBucketTwo_",
      "outputs": [
        {
          "internalType": "uint8",
          "name": "",
          "type": "uint8"
        }
      ],
      "stateMutability": "view",
      "type": "function"
    },
    {
      "inputs": [
        {
          "internalType": "uint256",
          "name": "_lotteryId",
          "type": "uint256"
        },
        {
          "internalType": "uint256",
          "name": "_seed",
          "type": "uint256"
        }
      ],
      "name": "drawWinningNumbers",
      "outputs": [],
      "stateMutability": "nonpayable",
      "type": "function"
    },
    {
      "inputs": [
        {
          "internalType": "uint256",
          "name": "_lotteryId",
          "type": "uint256"
        }
      ],
      "name": "getBasicLottoInfo",
      "outputs": [
        {
          "components": [
            {
              "internalType": "uint256",
              "name": "lotteryID",
              "type": "uint256"
            },
            {
              "internalType": "enum Lottery.Status",
              "name": "lotteryStatus",
              "type": "uint8"
            },
            {
              "internalType": "uint256",
              "name": "prizePoolInBound",
              "type": "uint256"
            },
            {
              "internalType": "uint256",
              "name": "costPerTicket",
              "type": "uint256"
            },
            {
              "internalType": "uint8[]",
              "name": "prizeDistribution",
              "type": "uint8[]"
            },
            {
              "internalType": "uint256",
              "name": "startingTimestamp",
              "type": "uint256"
            },
            {
              "internalType": "uint256",
              "name": "closingTimestamp",
              "type": "uint256"
            },
            {
              "internalType": "uint16[]",
              "name": "winningNumbers",
              "type": "uint16[]"
            }
          ],
          "internalType": "struct Lottery.LottoInfo",
          "name": "",
          "type": "tuple"
        }
      ],
      "stateMutability": "view",
      "type": "function"
    },
    {
      "inputs": [],
      "name": "getCurrentTime",
      "outputs": [
        {
          "internalType": "uint256",
          "name": "",
          "type": "uint256"
        }
      ],
      "stateMutability": "view",
      "type": "function"
    },
    {
      "inputs": [],
      "name": "getMaxRange",
      "outputs": [
        {
          "internalType": "uint16",
          "name": "",
          "type": "uint16"
        }
      ],
      "stateMutability": "view",
      "type": "function"
    },
    {
      "inputs": [
        {
          "internalType": "address",
          "name": "_lotteryNFT",
          "type": "address"
        },
        {
          "internalType": "address",
          "name": "_IRandomNumberGenerator",
          "type": "address"
        }
      ],
      "name": "initialize",
      "outputs": [],
      "stateMutability": "nonpayable",
      "type": "function"
    },
    {
      "inputs": [],
      "name": "maxValidRange_",
      "outputs": [
        {
          "internalType": "uint16",
          "name": "",
          "type": "uint16"
        }
      ],
      "stateMutability": "view",
      "type": "function"
    },
    {
      "inputs": [
        {
          "internalType": "uint256",
          "name": "_lotteryId",
          "type": "uint256"
        },
        {
          "internalType": "bytes32",
          "name": "_requestId",
          "type": "bytes32"
        },
        {
          "internalType": "uint256",
          "name": "_randomNumber",
          "type": "uint256"
        }
      ],
      "name": "numbersDrawn",
      "outputs": [],
      "stateMutability": "nonpayable",
      "type": "function"
    },
    {
      "inputs": [],
      "name": "owner",
      "outputs": [
        {
          "internalType": "address",
          "name": "",
          "type": "address"
        }
      ],
      "stateMutability": "view",
      "type": "function"
    },
    {
      "inputs": [],
      "name": "renounceOwnership",
      "outputs": [],
      "stateMutability": "nonpayable",
      "type": "function"
    },
    {
      "inputs": [
        {
          "internalType": "uint256",
          "name": "time",
          "type": "uint256"
        }
      ],
      "name": "setCurrentTime",
      "outputs": [],
      "stateMutability": "nonpayable",
      "type": "function"
    },
    {
      "inputs": [],
      "name": "sizeOfLottery_",
      "outputs": [
        {
          "internalType": "uint8",
          "name": "",
          "type": "uint8"
        }
      ],
      "stateMutability": "view",
      "type": "function"
    },
    {
      "inputs": [],
      "name": "timerAddress",
      "outputs": [
        {
          "internalType": "address",
          "name": "",
          "type": "address"
        }
      ],
      "stateMutability": "view",
      "type": "function"
    },
    {
      "inputs": [
        {
          "internalType": "address",
          "name": "newOwner",
          "type": "address"
        }
      ],
      "name": "transferOwnership",
      "outputs": [],
      "stateMutability": "nonpayable",
      "type": "function"
    },
    {
      "inputs": [
        {
          "internalType": "uint8",
          "name": "_bucketOneMax",
          "type": "uint8"
        },
        {
          "internalType": "uint8",
          "name": "_bucketTwoMax",
          "type": "uint8"
        },
        {
          "internalType": "uint8",
          "name": "_discountForBucketOne",
          "type": "uint8"
        },
        {
          "internalType": "uint8",
          "name": "_discountForBucketTwo",
          "type": "uint8"
        },
        {
          "internalType": "uint8",
          "name": "_discountForBucketThree",
          "type": "uint8"
        }
      ],
      "name": "updateBuckets",
      "outputs": [],
      "stateMutability": "nonpayable",
      "type": "function"
    },
    {
      "inputs": [
        {
          "internalType": "uint16",
          "name": "_newMaxRange",
          "type": "uint16"
        }
      ],
      "name": "updateMaxRange",
      "outputs": [],
      "stateMutability": "nonpayable",
      "type": "function"
    },
    {
      "inputs": [
        {
          "internalType": "uint8",
          "name": "_newSize",
          "type": "uint8"
        }
      ],
      "name": "updateSizeOfLottery",
      "outputs": [],
      "stateMutability": "nonpayable",
      "type": "function"
    },
    {
      "inputs": [
        {
          "internalType": "uint256",
          "name": "_amount",
          "type": "uint256"
        }
      ],
      "name": "withdrawBound",
      "outputs": [],
      "stateMutability": "nonpayable",
      "type": "function"
    }
  ],
  "bytecode": "0x60806040523480156200001157600080fd5b50604051620066ce380380620066ce833981810160405281019062000037919062000457565b8760006200004a6200040a60201b60201c565b9050806000806101000a81548173ffffffffffffffffffffffffffffffffffffffff021916908373ffffffffffffffffffffffffffffffffffffffff1602179055508073ffffffffffffffffffffffffffffffffffffffff16600073ffffffffffffffffffffffffffffffffffffffff167f8be0079c531659141344cd1fd0a4f28419497f9722a3daafe3b4186f6b6457e060405160405180910390a35080600160006101000a81548173ffffffffffffffffffffffffffffffffffffffff021916908373ffffffffffffffffffffffffffffffffffffffff1602179055505060008560ff161415801562000143575060008460ff1614155b62000185576040517f08c379a00000000000000000000000000000000000000000000000000000000081526004016200017c90620006e0565b60405180910390fd5b8360ff168560ff1610620001d0576040517f08c379a0000000000000000000000000000000000000000000000000000000008152600401620001c7906200067a565b60405180910390fd5b8160ff168360ff16108015620001eb57508060ff168260ff16105b6200022d576040517f08c379a000000000000000000000000000000000000000000000000000000000815260040162000224906200069c565b60405180910390fd5b600073ffffffffffffffffffffffffffffffffffffffff168973ffffffffffffffffffffffffffffffffffffffff161415620002a0576040517f08c379a00000000000000000000000000000000000000000000000000000000081526004016200029790620006be565b60405180910390fd5b60008760ff1614158015620002ba575060008661ffff1614155b620002fc576040517f08c379a0000000000000000000000000000000000000000000000000000000008152600401620002f39062000702565b60405180910390fd5b88600260006101000a81548173ffffffffffffffffffffffffffffffffffffffff021916908373ffffffffffffffffffffffffffffffffffffffff16021790555086600760006101000a81548160ff021916908360ff16021790555085600760016101000a81548161ffff021916908361ffff16021790555084600760036101000a81548160ff021916908360ff16021790555083600760046101000a81548160ff021916908360ff16021790555082600760056101000a81548160ff021916908360ff16021790555081600760066101000a81548160ff021916908360ff160217905550806007806101000a81548160ff021916908360ff160217905550505050505050505050620007d2565b600033905090565b600081519050620004238162000784565b92915050565b6000815190506200043a816200079e565b92915050565b6000815190506200045181620007b8565b92915050565b60008060008060008060008060006101208a8c0312156200047757600080fd5b6000620004878c828d0162000412565b99505060206200049a8c828d0162000412565b9850506040620004ad8c828d0162000440565b9750506060620004c08c828d0162000429565b9650506080620004d38c828d0162000440565b95505060a0620004e68c828d0162000440565b94505060c0620004f98c828d0162000440565b93505060e06200050c8c828d0162000440565b925050610100620005208c828d0162000440565b9150509295985092959850929598565b60006200053f601a8362000724565b91507f4275636b6574206f6e65206d75737420626520736d616c6c65720000000000006000830152602082019050919050565b60006200058160178362000724565b91507f446973636f756e7473206d75737420696e6372656173650000000000000000006000830152602082019050919050565b6000620005c3601d8362000724565b91507f436f6e7472616374732063616e6e6f74206265203020616464726573730000006000830152602082019050919050565b60006200060560188362000724565b91507f4275636b65742072616e67652063616e6e6f74206265203000000000000000006000830152602082019050919050565b60006200064760198362000724565b91507f4c6f74746572792073657475702063616e6e6f742062652030000000000000006000830152602082019050919050565b60006020820190508181036000830152620006958162000530565b9050919050565b60006020820190508181036000830152620006b78162000572565b9050919050565b60006020820190508181036000830152620006d981620005b4565b9050919050565b60006020820190508181036000830152620006fb81620005f6565b9050919050565b600060208201905081810360008301526200071d8162000638565b9050919050565b600082825260208201905092915050565b6000620007428262000757565b9050919050565b600061ffff82169050919050565b600073ffffffffffffffffffffffffffffffffffffffff82169050919050565b600060ff82169050919050565b6200078f8162000735565b81146200079b57600080fd5b50565b620007a98162000749565b8114620007b557600080fd5b50565b620007c38162000777565b8114620007cf57600080fd5b50565b615eec80620007e26000396000f3fe608060405234801561001057600080fd5b50600436106101c45760003560e01c80638be852b1116100f9578063ced5a63f11610097578063dccda09611610071578063dccda096146104a7578063e59bbab5146104d9578063e97fc162146104f7578063f2fde38b14610513576101c4565b8063ced5a63f1461043f578063d062b57c1461045b578063da47675514610477576101c4565b80639c216602116100d35780639c216602146103c9578063a624aa1b146103e7578063add5edf014610405578063c8cfd90214610423576101c4565b80638be852b1146103715780638da5cb5b1461038f57806391a28cdd146103ad576101c4565b80633c309fe711610166578063715018a611610140578063715018a6146102ff57806376674b8f146103095780638324f7c51461032557806386bb8f3714610355576101c4565b80633c309fe714610295578063485cc955146102b35780634f7d93db146102cf576101c4565b80631c39c38d116101a25780631c39c38d1461021f57806322f8e5661461023d57806329cb924d14610259578063350d925114610277576101c4565b8063075dc415146101c95780630773aa46146101e75780630dabc1d414610203575b600080fd5b6101d161052f565b6040516101de9190615b43565b60405180910390f35b61020160048036038101906101fc919061445e565b610542565b005b61021d60048036038101906102189190614367565b6106c3565b005b610227610947565b6040516102349190615341565b60405180910390f35b6102576004803603810190610252919061426e565b61096d565b005b610261610a59565b60405161026e9190615a76565b60405180910390f35b61027f610b5e565b60405161028c9190615b43565b60405180910390f35b61029d610b71565b6040516102aa9190615b43565b60405180910390f35b6102cd60048036038101906102c891906140a3565b610b84565b005b6102e960048036038101906102e49190614367565b610e18565b6040516102f69190615a76565b60405180910390f35b610307610e50565b005b610323600480360381019061031e91906142c0565b610f8a565b005b61033f600480360381019061033a9190614161565b61169e565b60405161034c9190615a76565b60405180910390f35b61036f600480360381019061036a9190614367565b611b69565b005b610379612104565b6040516103869190615b43565b60405180910390f35b610397612117565b6040516103a49190615341565b60405180910390f35b6103c760048036038101906103c29190614487565b612140565b005b6103d1612382565b6040516103de9190615b43565b60405180910390f35b6103ef612393565b6040516103fc9190615a5b565b60405180910390f35b61040d6123a7565b60405161041a9190615b43565b60405180910390f35b61043d600480360381019061043891906143f2565b6123ba565b005b6104596004803603810190610454919061426e565b612994565b005b61047560048036038101906104709190614245565b612ac3565b005b610491600480360381019061048c919061426e565b612c4b565b60405161049e9190615a39565b60405180910390f35b6104c160048036038101906104bc9190614367565b612dd6565b6040516104d093929190615ae3565b60405180910390f35b6104e1612e90565b6040516104ee9190615a5b565b60405180910390f35b610511600480360381019061050c9190614318565b612ea8565b005b61052d60048036038101906105289190614051565b613107565b005b600760009054906101000a900460ff1681565b61054a6132b0565b73ffffffffffffffffffffffffffffffffffffffff16610568612117565b73ffffffffffffffffffffffffffffffffffffffff16146105be576040517f08c379a00000000000000000000000000000000000000000000000000000000081526004016105b5906158f9565b60405180910390fd5b8060ff16600760009054906101000a900460ff1660ff161415610616576040517f08c379a000000000000000000000000000000000000000000000000000000000815260040161060d90615819565b60405180910390fd5b6000600760009054906101000a900460ff1660ff16141561066c576040517f08c379a0000000000000000000000000000000000000000000000000000000008152600401610663906156d9565b60405180910390fd5b80600760006101000a81548160ff021916908360ff1602179055507f390ce0ae29f1f6d8a7be889544606cb23b660dd44710ecbe1408aaed6356eba333826040516106b8929190615441565b60405180910390a150565b6106cb6132b0565b73ffffffffffffffffffffffffffffffffffffffff166106e9612117565b73ffffffffffffffffffffffffffffffffffffffff161461073f576040517f08c379a0000000000000000000000000000000000000000000000000000000008152600401610736906158f9565b60405180910390fd5b610747610a59565b6008600084815260200190815260200160002060060154111561079f576040517f08c379a000000000000000000000000000000000000000000000000000000000815260040161079690615939565b60405180910390fd5b600160038111156107ac57fe5b6008600084815260200190815260200160002060010160009054906101000a900460ff1660038111156107db57fe5b1461081b576040517f08c379a000000000000000000000000000000000000000000000000000000000815260040161081290615779565b60405180910390fd5b60026008600084815260200190815260200160002060010160006101000a81548160ff0219169083600381111561084e57fe5b0217905550600460009054906101000a900473ffffffffffffffffffffffffffffffffffffffff1673ffffffffffffffffffffffffffffffffffffffff16636e68fc0a83836040518363ffffffff1660e01b81526004016108b0929190615aba565b602060405180830381600087803b1580156108ca57600080fd5b505af11580156108de573d6000803e3d6000fd5b505050506040513d601f19601f82011682018060405250810190610902919061421c565b6005819055507ff8cdf8355a0f31bbad8998a631f5a75dcb3e475a010b34a111ed105fe88e751a8260055460405161093b929190615a91565b60405180910390a15050565b600160009054906101000a900473ffffffffffffffffffffffffffffffffffffffff1681565b600073ffffffffffffffffffffffffffffffffffffffff16600160009054906101000a900473ffffffffffffffffffffffffffffffffffffffff1673ffffffffffffffffffffffffffffffffffffffff1614156109c957600080fd5b600160009054906101000a900473ffffffffffffffffffffffffffffffffffffffff1673ffffffffffffffffffffffffffffffffffffffff166322f8e566826040518263ffffffff1660e01b8152600401610a249190615a76565b600060405180830381600087803b158015610a3e57600080fd5b505af1158015610a52573d6000803e3d6000fd5b5050505050565b60008073ffffffffffffffffffffffffffffffffffffffff16600160009054906101000a900473ffffffffffffffffffffffffffffffffffffffff1673ffffffffffffffffffffffffffffffffffffffff1614610b5757600160009054906101000a900473ffffffffffffffffffffffffffffffffffffffff1673ffffffffffffffffffffffffffffffffffffffff166329cb924d6040518163ffffffff1660e01b815260040160206040518083038186803b158015610b1857600080fd5b505afa158015610b2c573d6000803e3d6000fd5b505050506040513d601f19601f82011682018060405250810190610b509190614297565b9050610b5b565b4290505b90565b600760039054906101000a900460ff1681565b600760069054906101000a900460ff1681565b600060159054906101000a900460ff1680610ba35750610ba26132b8565b5b80610bbb5750600060149054906101000a900460ff16155b610bfa576040517f08c379a0000000000000000000000000000000000000000000000000000000008152600401610bf190615879565b60405180910390fd5b60008060159054906101000a900460ff161590508015610c4b576001600060156101000a81548160ff0219169083151502179055506001600060146101000a81548160ff0219169083151502179055505b610c536132b0565b73ffffffffffffffffffffffffffffffffffffffff16610c71612117565b73ffffffffffffffffffffffffffffffffffffffff1614610cc7576040517f08c379a0000000000000000000000000000000000000000000000000000000008152600401610cbe906158f9565b60405180910390fd5b600073ffffffffffffffffffffffffffffffffffffffff168373ffffffffffffffffffffffffffffffffffffffff1614158015610d315750600073ffffffffffffffffffffffffffffffffffffffff168273ffffffffffffffffffffffffffffffffffffffff1614155b610d70576040517f08c379a0000000000000000000000000000000000000000000000000000000008152600401610d67906158b9565b60405180910390fd5b82600360006101000a81548173ffffffffffffffffffffffffffffffffffffffff021916908373ffffffffffffffffffffffffffffffffffffffff16021790555081600460006101000a81548173ffffffffffffffffffffffffffffffffffffffff021916908373ffffffffffffffffffffffffffffffffffffffff1602179055508015610e135760008060156101000a81548160ff0219169083151502179055505b505050565b60008060086000858152602001908152602001600020600301549050610e4783826132c990919063ffffffff16565b91505092915050565b610e586132b0565b73ffffffffffffffffffffffffffffffffffffffff16610e76612117565b73ffffffffffffffffffffffffffffffffffffffff1614610ecc576040517f08c379a0000000000000000000000000000000000000000000000000000000008152600401610ec3906158f9565b60405180910390fd5b600073ffffffffffffffffffffffffffffffffffffffff1660008054906101000a900473ffffffffffffffffffffffffffffffffffffffff1673ffffffffffffffffffffffffffffffffffffffff167f8be0079c531659141344cd1fd0a4f28419497f9722a3daafe3b4186f6b6457e060405160405180910390a360008060006101000a81548173ffffffffffffffffffffffffffffffffffffffff021916908373ffffffffffffffffffffffffffffffffffffffff160217905550565b610fa93373ffffffffffffffffffffffffffffffffffffffff16613339565b15610fe9576040517f08c379a0000000000000000000000000000000000000000000000000000000008152600401610fe090615919565b60405180910390fd5b3273ffffffffffffffffffffffffffffffffffffffff163373ffffffffffffffffffffffffffffffffffffffff1614611057576040517f08c379a000000000000000000000000000000000000000000000000000000000815260040161104e90615579565b60405180910390fd5b603282829050111561109e576040517f08c379a0000000000000000000000000000000000000000000000000000000008152600401611095906157d9565b60405180910390fd5b6110a6610a59565b600860008581526020019081526020016000206006015411156110fe576040517f08c379a00000000000000000000000000000000000000000000000000000000081526004016110f590615679565b60405180910390fd5b60038081111561110a57fe5b6008600085815260200190815260200160002060010160009054906101000a900460ff16600381111561113957fe5b14611179576040517f08c379a0000000000000000000000000000000000000000000000000000000008152600401611170906159f9565b60405180910390fd5b6000805b8383905081101561164a573373ffffffffffffffffffffffffffffffffffffffff16600360009054906101000a900473ffffffffffffffffffffffffffffffffffffffff1673ffffffffffffffffffffffffffffffffffffffff16639d7553678686858181106111e957fe5b905060200201356040518263ffffffff1660e01b815260040161120c9190615a76565b60206040518083038186803b15801561122457600080fd5b505afa158015611238573d6000803e3d6000fd5b505050506040513d601f19601f8201168201806040525081019061125c919061407a565b73ffffffffffffffffffffffffffffffffffffffff16146112b2576040517f08c379a00000000000000000000000000000000000000000000000000000000081526004016112a990615839565b60405180910390fd5b600360009054906101000a900473ffffffffffffffffffffffffffffffffffffffff1673ffffffffffffffffffffffffffffffffffffffff16639191a7ea8585848181106112fc57fe5b905060200201356040518263ffffffff1660e01b815260040161131f9190615a76565b60206040518083038186803b15801561133757600080fd5b505afa15801561134b573d6000803e3d6000fd5b505050506040513d601f19601f8201168201806040525081019061136f91906141f3565b156113795761163d565b600360009054906101000a900473ffffffffffffffffffffffffffffffffffffffff1673ffffffffffffffffffffffffffffffffffffffff1663ed06a7408585848181106113c357fe5b90506020020135876040518363ffffffff1660e01b81526004016113e8929190615aba565b602060405180830381600087803b15801561140257600080fd5b505af1158015611416573d6000803e3d6000fd5b505050506040513d601f19601f8201168201806040525081019061143a91906141f3565b611479576040517f08c379a0000000000000000000000000000000000000000000000000000000008152600401611470906156f9565b60405180910390fd5b60006115d2600360009054906101000a900473ffffffffffffffffffffffffffffffffffffffff1673ffffffffffffffffffffffffffffffffffffffff16639839eafd8787868181106114c857fe5b905060200201356040518263ffffffff1660e01b81526004016114eb9190615a76565b60006040518083038186803b15801561150357600080fd5b505afa158015611517573d6000803e3d6000fd5b505050506040513d6000823e3d601f19601f8201168201806040525081019061154091906140df565b600860008981526020019081526020016000206007018054806020026020016040519081016040528092919081815260200182805480156115c857602002820191906000526020600020906000905b82829054906101000a900461ffff1661ffff168152602001906002019060208260010104928301926001038202915080841161158f5790505b505050505061334c565b905060006115e082886133ae565b905061160b81600860008a81526020019081526020016000206002015461346390919063ffffffff16565b600860008981526020019081526020016000206002018190555061163881856134b390919063ffffffff16565b935050505b808060010191505061117d565b506116983382600260009054906101000a900473ffffffffffffffffffffffffffffffffffffffff1673ffffffffffffffffffffffffffffffffffffffff166135089092919063ffffffff16565b50505050565b60006116a86132b0565b73ffffffffffffffffffffffffffffffffffffffff166116c6612117565b73ffffffffffffffffffffffffffffffffffffffff161461171c576040517f08c379a0000000000000000000000000000000000000000000000000000000008152600401611713906158f9565b60405180910390fd5b600760009054906101000a900460ff1660ff168787905014611773576040517f08c379a000000000000000000000000000000000000000000000000000000000815260040161176a906155d9565b60405180910390fd5b6000805b888890508110156117c7576117b889898381811061179157fe5b90506020020160208101906117a6919061445e565b60ff16836134b390919063ffffffff16565b91508080600101915050611777565b506064811461180b576040517f08c379a000000000000000000000000000000000000000000000000000000000815260040161180290615a19565b60405180910390fd5b6000861415801561181d575060008514155b61185c576040517f08c379a0000000000000000000000000000000000000000000000000000000008152600401611853906155b9565b60405180910390fd5b6000841415801561186c57508284105b6118ab576040517f08c379a00000000000000000000000000000000000000000000000000000000081526004016118a2906159b9565b60405180910390fd5b6118c160016006546134b390919063ffffffff16565b60068190555060065491506060600760009054906101000a900460ff1660ff1667ffffffffffffffff811180156118f757600080fd5b506040519080825280602002602001820160405280156119265781602001602082028036833780820191505090505b5090506000611933610a59565b86106119425760019050611947565b600090505b61194f613ba9565b60405180610100016040528086815260200183600381111561196d57fe5b81526020018a81526020018981526020018c8c80806020026020016040519081016040528093929190818152602001838360200280828437600081840152601f19601f82011690508083019250505050505050815260200188815260200187815260200184815250905080600860008781526020019081526020016000206000820151816000015560208201518160010160006101000a81548160ff02191690836003811115611a1957fe5b021790555060408201518160020155606082015181600301556080820151816004019080519060200190611a4e929190613bf9565b5060a0820151816005015560c0820151816006015560e0820151816007019080519060200190611a7f929190613ca0565b509050507fce7176db4e5b6d07ad0f0ecf9523a01d98aa268b888a199592cb5b1e40615c4685600360009054906101000a900473ffffffffffffffffffffffffffffffffffffffff1673ffffffffffffffffffffffffffffffffffffffff1663c4e41b226040518163ffffffff1660e01b815260040160206040518083038186803b158015611b0d57600080fd5b505afa158015611b21573d6000803e3d6000fd5b505050506040513d601f19601f82011682018060405250810190611b459190614297565b604051611b53929190615aba565b60405180910390a1505050509695505050505050565b611b883373ffffffffffffffffffffffffffffffffffffffff16613339565b15611bc8576040517f08c379a0000000000000000000000000000000000000000000000000000000008152600401611bbf90615919565b60405180910390fd5b3273ffffffffffffffffffffffffffffffffffffffff163373ffffffffffffffffffffffffffffffffffffffff1614611c36576040517f08c379a0000000000000000000000000000000000000000000000000000000008152600401611c2d90615579565b60405180910390fd5b611c3e610a59565b60086000848152602001908152602001600020600601541115611c96576040517f08c379a0000000000000000000000000000000000000000000000000000000008152600401611c8d90615679565b60405180910390fd5b600380811115611ca257fe5b6008600084815260200190815260200160002060010160009054906101000a900460ff166003811115611cd157fe5b14611d11576040517f08c379a0000000000000000000000000000000000000000000000000000000008152600401611d08906159f9565b60405180910390fd5b3373ffffffffffffffffffffffffffffffffffffffff16600360009054906101000a900473ffffffffffffffffffffffffffffffffffffffff1673ffffffffffffffffffffffffffffffffffffffff16639d755367836040518263ffffffff1660e01b8152600401611d839190615a76565b60206040518083038186803b158015611d9b57600080fd5b505afa158015611daf573d6000803e3d6000fd5b505050506040513d601f19601f82011682018060405250810190611dd3919061407a565b73ffffffffffffffffffffffffffffffffffffffff1614611e29576040517f08c379a0000000000000000000000000000000000000000000000000000000008152600401611e2090615839565b60405180910390fd5b600360009054906101000a900473ffffffffffffffffffffffffffffffffffffffff1673ffffffffffffffffffffffffffffffffffffffff1663ed06a74082846040518363ffffffff1660e01b8152600401611e86929190615aba565b602060405180830381600087803b158015611ea057600080fd5b505af1158015611eb4573d6000803e3d6000fd5b505050506040513d601f19601f82011682018060405250810190611ed891906141f3565b611f17576040517f08c379a0000000000000000000000000000000000000000000000000000000008152600401611f0e906156f9565b60405180910390fd5b600061205e600360009054906101000a900473ffffffffffffffffffffffffffffffffffffffff1673ffffffffffffffffffffffffffffffffffffffff16639839eafd846040518263ffffffff1660e01b8152600401611f779190615a76565b60006040518083038186803b158015611f8f57600080fd5b505afa158015611fa3573d6000803e3d6000fd5b505050506040513d6000823e3d601f19601f82011682018060405250810190611fcc91906140df565b6008600086815260200190815260200160002060070180548060200260200160405190810160405280929190818152602001828054801561205457602002820191906000526020600020906000905b82829054906101000a900461ffff1661ffff168152602001906002019060208260010104928301926001038202915080841161201b5790505b505050505061334c565b9050600061206c82856133ae565b905061209781600860008781526020019081526020016000206002015461346390919063ffffffff16565b60086000868152602001908152602001600020600201819055506120fe3382600260009054906101000a900473ffffffffffffffffffffffffffffffffffffffff1673ffffffffffffffffffffffffffffffffffffffff166135089092919063ffffffff16565b50505050565b600760049054906101000a900460ff1681565b60008060009054906101000a900473ffffffffffffffffffffffffffffffffffffffff16905090565b6121486132b0565b73ffffffffffffffffffffffffffffffffffffffff16612166612117565b73ffffffffffffffffffffffffffffffffffffffff16146121bc576040517f08c379a00000000000000000000000000000000000000000000000000000000081526004016121b3906158f9565b60405180910390fd5b60008560ff16141580156121d4575060008460ff1614155b612213576040517f08c379a000000000000000000000000000000000000000000000000000000000815260040161220a90615979565b60405180910390fd5b8360ff168560ff161061225b576040517f08c379a000000000000000000000000000000000000000000000000000000000815260040161225290615639565b60405180910390fd5b8160ff168360ff1610801561227557508060ff168260ff16105b6122b4576040517f08c379a00000000000000000000000000000000000000000000000000000000081526004016122ab90615699565b60405180910390fd5b84600760036101000a81548160ff021916908360ff16021790555083600760046101000a81548160ff021916908360ff16021790555082600760056101000a81548160ff021916908360ff16021790555081600760066101000a81548160ff021916908360ff160217905550806007806101000a81548160ff021916908360ff1602179055507f01618beb8a3c654575d63a5d2e28c8fc894fed0753514441c68f2e17a40bddd63386868686866040516123739695949392919061546a565b60405180910390a15050505050565b60078054906101000a900460ff1681565b600760019054906101000a900461ffff1681565b600760059054906101000a900460ff1681565b6123d93373ffffffffffffffffffffffffffffffffffffffff16613339565b15612419576040517f08c379a000000000000000000000000000000000000000000000000000000000815260040161241090615919565b60405180910390fd5b3273ffffffffffffffffffffffffffffffffffffffff163373ffffffffffffffffffffffffffffffffffffffff1614612487576040517f08c379a000000000000000000000000000000000000000000000000000000000815260040161247e90615579565b60405180910390fd5b60086000858152602001908152602001600020600501546124a6610a59565b10156124e7576040517f08c379a00000000000000000000000000000000000000000000000000000000081526004016124de90615719565b60405180910390fd5b6008600085815260200190815260200160002060060154612506610a59565b10612546576040517f08c379a000000000000000000000000000000000000000000000000000000000815260040161253d906157b9565b60405180910390fd5b6000600381111561255357fe5b6008600086815260200190815260200160002060010160009054906101000a900460ff16600381111561258257fe5b14156125e657612590610a59565b6008600086815260200190815260200160002060050154106125e55760016008600086815260200190815260200160002060010160006101000a81548160ff021916908360038111156125df57fe5b02179055505b5b600160038111156125f357fe5b6008600086815260200190815260200160002060010160009054906101000a900460ff16600381111561262257fe5b14612662576040517f08c379a000000000000000000000000000000000000000000000000000000000815260040161265990615999565b60405180910390fd5b60328360ff1611156126a9576040517f08c379a00000000000000000000000000000000000000000000000000000000081526004016126a0906155f9565b60405180910390fd5b60006126d0600760009054906101000a900460ff168560ff1661358e90919063ffffffff16565b60ff16905080838390501461271a576040517f08c379a000000000000000000000000000000000000000000000000000000000815260040161271190615899565b60405180910390fd5b60008060003073ffffffffffffffffffffffffffffffffffffffff1663dccda09689896040518363ffffffff1660e01b815260040161275a929190615b1a565b60606040518083038186803b15801561277257600080fd5b505afa158015612786573d6000803e3d6000fd5b505050506040513d601f19601f820116820180604052508101906127aa91906143a3565b925092509250600260009054906101000a900473ffffffffffffffffffffffffffffffffffffffff1673ffffffffffffffffffffffffffffffffffffffff166323b872dd3330846040518463ffffffff1660e01b815260040161280f9392919061535c565b602060405180830381600087803b15801561282957600080fd5b505af115801561283d573d6000803e3d6000fd5b505050506040513d601f19601f8201168201806040525081019061286191906141f3565b506060600360009054906101000a900473ffffffffffffffffffffffffffffffffffffffff1673ffffffffffffffffffffffffffffffffffffffff16635e3261d0338b8b8b8b600760009054906101000a900460ff166040518763ffffffff1660e01b81526004016128d8969594939291906153e5565b600060405180830381600087803b1580156128f257600080fd5b505af1158015612906573d6000803e3d6000fd5b505050506040513d6000823e3d601f19601f8201168201806040525081019061292f9190614120565b90503373ffffffffffffffffffffffffffffffffffffffff167ff3b6bffcebba7579100b0c6d1a161291881ac36e30c7eced22d0103370e6cafc828989888888604051612981969594939291906154f4565b60405180910390a2505050505050505050565b61299c6132b0565b73ffffffffffffffffffffffffffffffffffffffff166129ba612117565b73ffffffffffffffffffffffffffffffffffffffff1614612a10576040517f08c379a0000000000000000000000000000000000000000000000000000000008152600401612a07906158f9565b60405180910390fd5b600260009054906101000a900473ffffffffffffffffffffffffffffffffffffffff1673ffffffffffffffffffffffffffffffffffffffff1663a9059cbb33836040518363ffffffff1660e01b8152600401612a6d9291906153bc565b602060405180830381600087803b158015612a8757600080fd5b505af1158015612a9b573d6000803e3d6000fd5b505050506040513d601f19601f82011682018060405250810190612abf91906141f3565b5050565b612acb6132b0565b73ffffffffffffffffffffffffffffffffffffffff16612ae9612117565b73ffffffffffffffffffffffffffffffffffffffff1614612b3f576040517f08c379a0000000000000000000000000000000000000000000000000000000008152600401612b36906158f9565b60405180910390fd5b8061ffff16600760019054906101000a900461ffff1661ffff161415612b9a576040517f08c379a0000000000000000000000000000000000000000000000000000000008152600401612b9190615819565b60405180910390fd5b6000600760019054906101000a900461ffff1661ffff161415612bf2576040517f08c379a0000000000000000000000000000000000000000000000000000000008152600401612be9906157f9565b60405180910390fd5b80600760016101000a81548161ffff021916908361ffff1602179055507f2a54f3414068117c88afc33d8e1dea5f6330df95e10ef41731baea27ab8a946e3382604051612c40929190615393565b60405180910390a150565b612c53613ba9565b6008600083815260200190815260200160002060405180610100016040529081600082015481526020016001820160009054906101000a900460ff166003811115612c9a57fe5b6003811115612ca557fe5b8152602001600282015481526020016003820154815260200160048201805480602002602001604051908101604052809291908181526020018280548015612d3257602002820191906000526020600020906000905b82829054906101000a900460ff1660ff1681526020019060010190602082600001049283019260010382029150808411612cfb5790505b50505050508152602001600582015481526020016006820154815260200160078201805480602002602001604051908101604052809291908181526020018280548015612dc657602002820191906000526020600020906000905b82829054906101000a900461ffff1661ffff1681526020019060020190602082600101049283019260010382029150808411612d8d5790505b5050505050815250509050919050565b6000806000612de5858561360d565b91503073ffffffffffffffffffffffffffffffffffffffff16634f7d93db86866040518363ffffffff1660e01b8152600401612e22929190615aba565b60206040518083038186803b158015612e3a57600080fd5b505afa158015612e4e573d6000803e3d6000fd5b505050506040513d601f19601f82011682018060405250810190612e729190614297565b9250612e87828461346390919063ffffffff16565b90509250925092565b6000600760019054906101000a900461ffff16905090565b600460009054906101000a900473ffffffffffffffffffffffffffffffffffffffff1673ffffffffffffffffffffffffffffffffffffffff163373ffffffffffffffffffffffffffffffffffffffff1614612f38576040517f08c379a0000000000000000000000000000000000000000000000000000000008152600401612f2f90615599565b60405180910390fd5b60026003811115612f4557fe5b6008600085815260200190815260200160002060010160009054906101000a900460ff166003811115612f7457fe5b14612fb4576040517f08c379a0000000000000000000000000000000000000000000000000000000008152600401612fab90615659565b60405180910390fd5b81600554141561302a5760036008600085815260200190815260200160002060010160006101000a81548160ff02191690836003811115612ff157fe5b0217905550612fff81613790565b600860008581526020019081526020016000206007019080519060200190613028929190613ca0565b505b7f3728e75294796694d59d2ffced9c394279baf7b9ebd2702db43f5f04bac6792983600360009054906101000a900473ffffffffffffffffffffffffffffffffffffffff1673ffffffffffffffffffffffffffffffffffffffff1663c4e41b226040518163ffffffff1660e01b815260040160206040518083038186803b1580156130b457600080fd5b505afa1580156130c8573d6000803e3d6000fd5b505050506040513d601f19601f820116820180604052508101906130ec9190614297565b6040516130fa929190615aba565b60405180910390a1505050565b61310f6132b0565b73ffffffffffffffffffffffffffffffffffffffff1661312d612117565b73ffffffffffffffffffffffffffffffffffffffff1614613183576040517f08c379a000000000000000000000000000000000000000000000000000000000815260040161317a906158f9565b60405180910390fd5b600073ffffffffffffffffffffffffffffffffffffffff168173ffffffffffffffffffffffffffffffffffffffff1614156131f3576040517f08c379a00000000000000000000000000000000000000000000000000000000081526004016131ea90615619565b60405180910390fd5b8073ffffffffffffffffffffffffffffffffffffffff1660008054906101000a900473ffffffffffffffffffffffffffffffffffffffff1673ffffffffffffffffffffffffffffffffffffffff167f8be0079c531659141344cd1fd0a4f28419497f9722a3daafe3b4186f6b6457e060405160405180910390a3806000806101000a81548173ffffffffffffffffffffffffffffffffffffffff021916908373ffffffffffffffffffffffffffffffffffffffff16021790555050565b600033905090565b60006132c330613339565b15905090565b6000808314156132dc5760009050613333565b60008284029050828482816132ed57fe5b041461332e576040517f08c379a0000000000000000000000000000000000000000000000000000000008152600401613325906158d9565b60405180910390fd5b809150505b92915050565b600080823b905060008111915050919050565b600080600090505b82518110156133a75782818151811061336957fe5b602002602001015161ffff1684828151811061338157fe5b602002602001015161ffff16141561339a576001820191505b8080600101915050613354565b5092915050565b6000806000905060008460ff1614156133cb57600091505061345d565b6000600860008581526020019081526020016000206004016001860360ff16815481106133f457fe5b90600052602060002090602091828204019190069054906101000a900460ff1660ff1690506134428160086000878152602001908152602001600020600201546132c990919063ffffffff16565b91506134586064836138a290919063ffffffff16565b925050505b92915050565b6000828211156134a8576040517f08c379a000000000000000000000000000000000000000000000000000000000815260040161349f90615739565b60405180910390fd5b818303905092915050565b6000808284019050838110156134fe576040517f08c379a00000000000000000000000000000000000000000000000000000000081526004016134f5906156b9565b60405180910390fd5b8091505092915050565b6135898363a9059cbb60e01b84846040516024016135279291906154cb565b604051602081830303815290604052907bffffffffffffffffffffffffffffffffffffffffffffffffffffffff19166020820180517bffffffffffffffffffffffffffffffffffffffffffffffffffffffff83818316178352505050506138f8565b505050565b6000808360ff1614156135a45760009050613607565b600082840290508260ff168460ff168260ff16816135be57fe5b0460ff1614613602576040517f08c379a00000000000000000000000000000000000000000000000000000000081526004016135f9906158d9565b60405180910390fd5b809150505b92915050565b6000803073ffffffffffffffffffffffffffffffffffffffff16634f7d93db85856040518363ffffffff1660e01b815260040161364b929190615aba565b60206040518083038186803b15801561366357600080fd5b505afa158015613677573d6000803e3d6000fd5b505050506040513d601f19601f8201168201806040525081019061369b9190614297565b9050600760039054906101000a900460ff1660ff168310156136f6576136ef60646136e1600760059054906101000a900460ff1660ff16846132c990919063ffffffff16565b6138a290919063ffffffff16565b9150613789565b600760049054906101000a900460ff1660ff1683101561374f57613748606461373a600760069054906101000a900460ff1660ff16846132c990919063ffffffff16565b6138a290919063ffffffff16565b9150613788565b613785606461377760078054906101000a900460ff1660ff16846132c990919063ffffffff16565b6138a290919063ffffffff16565b91505b5b5092915050565b606080600760009054906101000a900460ff1660ff1667ffffffffffffffff811180156137bc57600080fd5b506040519080825280602002602001820160405280156137eb5781602001602082028036833780820191505090505b50905060005b600760009054906101000a900460ff1660ff168110156138985760008482604051602001613820929190615315565b60405160208183030381529060405280519060200120905060008160001c9050613867600760019054906101000a900461ffff1661ffff16826139bf90919063ffffffff16565b84848151811061387357fe5b602002602001019061ffff16908161ffff1681525050505080806001019150506137f1565b5080915050919050565b60008082116138e6576040517f08c379a00000000000000000000000000000000000000000000000000000000081526004016138dd90615799565b60405180910390fd5b8183816138ef57fe5b04905092915050565b606061395a826040518060400160405280602081526020017f5361666545524332303a206c6f772d6c6576656c2063616c6c206661696c65648152508573ffffffffffffffffffffffffffffffffffffffff16613a159092919063ffffffff16565b90506000815111156139ba578080602001905181019061397a91906141f3565b6139b9576040517f08c379a00000000000000000000000000000000000000000000000000000000081526004016139b0906159d9565b60405180910390fd5b5b505050565b6000808211613a03576040517f08c379a00000000000000000000000000000000000000000000000000000000081526004016139fa90615859565b60405180910390fd5b818381613a0c57fe5b06905092915050565b6060613a248484600085613a2d565b90509392505050565b606082471015613a72576040517f08c379a0000000000000000000000000000000000000000000000000000000008152600401613a6990615759565b60405180910390fd5b613a7b85613339565b613aba576040517f08c379a0000000000000000000000000000000000000000000000000000000008152600401613ab190615959565b60405180910390fd5b600060608673ffffffffffffffffffffffffffffffffffffffff168587604051613ae491906152fe565b60006040518083038185875af1925050503d8060008114613b21576040519150601f19603f3d011682016040523d82523d6000602084013e613b26565b606091505b5091509150613b36828286613b42565b92505050949350505050565b60608315613b5257829050613ba2565b600083511115613b655782518084602001fd5b816040517f08c379a0000000000000000000000000000000000000000000000000000000008152600401613b999190615557565b60405180910390fd5b9392505050565b6040518061010001604052806000815260200160006003811115613bc957fe5b81526020016000815260200160008152602001606081526020016000815260200160008152602001606081525090565b82805482825590600052602060002090601f01602090048101928215613c8f5791602002820160005b83821115613c6057835183826101000a81548160ff021916908360ff1602179055509260200192600101602081600001049283019260010302613c22565b8015613c8d5782816101000a81549060ff0219169055600101602081600001049283019260010302613c60565b505b509050613c9c9190613d4a565b5090565b82805482825590600052602060002090600f01601090048101928215613d395791602002820160005b83821115613d0957835183826101000a81548161ffff021916908361ffff1602179055509260200192600201602081600101049283019260010302613cc9565b8015613d375782816101000a81549061ffff0219169055600201602081600101049283019260010302613d09565b505b509050613d469190613d72565b5090565b5b80821115613d6e57600081816101000a81549060ff021916905550600101613d4b565b5090565b5b80821115613d9757600081816101000a81549061ffff021916905550600101613d73565b5090565b600081359050613daa81615e2c565b92915050565b600081519050613dbf81615e2c565b92915050565b60008083601f840112613dd757600080fd5b8235905067ffffffffffffffff811115613df057600080fd5b602083019150836020820283011115613e0857600080fd5b9250929050565b600082601f830112613e2057600080fd5b8151613e33613e2e82615b8b565b615b5e565b91508181835260208401935060208101905083856020840282011115613e5857600080fd5b60005b83811015613e885781613e6e8882613ffd565b845260208401935060208301925050600181019050613e5b565b5050505092915050565b60008083601f840112613ea457600080fd5b8235905067ffffffffffffffff811115613ebd57600080fd5b602083019150836020820283011115613ed557600080fd5b9250929050565b600082601f830112613eed57600080fd5b8151613f00613efb82615bb3565b615b5e565b91508181835260208401935060208101905083856020840282011115613f2557600080fd5b60005b83811015613f555781613f3b8882614027565b845260208401935060208301925050600181019050613f28565b5050505092915050565b60008083601f840112613f7157600080fd5b8235905067ffffffffffffffff811115613f8a57600080fd5b602083019150836020820283011115613fa257600080fd5b9250929050565b600081519050613fb881615e43565b92915050565b600081359050613fcd81615e5a565b92915050565b600081519050613fe281615e5a565b92915050565b600081359050613ff781615e71565b92915050565b60008151905061400c81615e71565b92915050565b60008135905061402181615e88565b92915050565b60008151905061403681615e88565b92915050565b60008135905061404b81615e9f565b92915050565b60006020828403121561406357600080fd5b600061407184828501613d9b565b91505092915050565b60006020828403121561408c57600080fd5b600061409a84828501613db0565b91505092915050565b600080604083850312156140b657600080fd5b60006140c485828601613d9b565b92505060206140d585828601613d9b565b9150509250929050565b6000602082840312156140f157600080fd5b600082015167ffffffffffffffff81111561410b57600080fd5b61411784828501613e0f565b91505092915050565b60006020828403121561413257600080fd5b600082015167ffffffffffffffff81111561414c57600080fd5b61415884828501613edc565b91505092915050565b60008060008060008060a0878903121561417a57600080fd5b600087013567ffffffffffffffff81111561419457600080fd5b6141a089828a01613f5f565b965096505060206141b389828a01614012565b94505060406141c489828a01614012565b93505060606141d589828a01614012565b92505060806141e689828a01614012565b9150509295509295509295565b60006020828403121561420557600080fd5b600061421384828501613fa9565b91505092915050565b60006020828403121561422e57600080fd5b600061423c84828501613fd3565b91505092915050565b60006020828403121561425757600080fd5b600061426584828501613fe8565b91505092915050565b60006020828403121561428057600080fd5b600061428e84828501614012565b91505092915050565b6000602082840312156142a957600080fd5b60006142b784828501614027565b91505092915050565b6000806000604084860312156142d557600080fd5b60006142e386828701614012565b935050602084013567ffffffffffffffff81111561430057600080fd5b61430c86828701613e92565b92509250509250925092565b60008060006060848603121561432d57600080fd5b600061433b86828701614012565b935050602061434c86828701613fbe565b925050604061435d86828701614012565b9150509250925092565b6000806040838503121561437a57600080fd5b600061438885828601614012565b925050602061439985828601614012565b9150509250929050565b6000806000606084860312156143b857600080fd5b60006143c686828701614027565b93505060206143d786828701614027565b92505060406143e886828701614027565b9150509250925092565b6000806000806060858703121561440857600080fd5b600061441687828801614012565b94505060206144278782880161403c565b935050604085013567ffffffffffffffff81111561444457600080fd5b61445087828801613dc5565b925092505092959194509250565b60006020828403121561447057600080fd5b600061447e8482850161403c565b91505092915050565b600080600080600060a0868803121561449f57600080fd5b60006144ad8882890161403c565b95505060206144be8882890161403c565b94505060406144cf8882890161403c565b93505060606144e08882890161403c565b92505060806144f18882890161403c565b9150509295509295909350565b600061450a838361527e565b60208301905092915050565b6000614522838361529c565b60208301905092915050565b600061453a83836152e0565b60208301905092915050565b61454f81615d77565b82525050565b61455e81615cf7565b82525050565b60006145708385615c91565b935061457b82615bdb565b8060005b858110156145b4576145918284615ce0565b61459b88826144fe565b97506145a683615c4c565b92505060018101905061457f565b5085925050509392505050565b60006145cc82615c15565b6145d68185615c80565b93506145e183615be5565b8060005b838110156146125781516145f988826144fe565b975061460483615c59565b9250506001810190506145e5565b5085935050505092915050565b600061462a82615c20565b6146348185615ca2565b935061463f83615bf5565b8060005b838110156146705781516146578882614516565b975061466283615c66565b925050600181019050614643565b5085935050505092915050565b600061468882615c2b565b6146928185615cb3565b935061469d83615c05565b8060005b838110156146ce5781516146b5888261452e565b97506146c083615c73565b9250506001810190506146a1565b5085935050505092915050565b6146e481615d15565b82525050565b60006146f582615c36565b6146ff8185615cc4565b935061470f818560208601615dd1565b80840191505092915050565b61472481615d89565b82525050565b600061473582615c41565b61473f8185615ccf565b935061474f818560208601615dd1565b61475881615e0e565b840191505092915050565b6000614770601a83615ccf565b91507f70726f787920636f6e7472616374206e6f7420616c6c6f7765640000000000006000830152602082019050919050565b60006147b0601583615ccf565b91507f4f6e6c792072616e646f6d2067656e657261746f7200000000000000000000006000830152602082019050919050565b60006147f0601983615ccf565b91507f5072697a65206f7220636f73742063616e6e6f742062652030000000000000006000830152602082019050919050565b6000614830601483615ccf565b91507f496e76616c696420646973747269627574696f6e0000000000000000000000006000830152602082019050919050565b6000614870601483615ccf565b91507f4261746368206d696e7420746f6f206c617267650000000000000000000000006000830152602082019050919050565b60006148b0602683615ccf565b91507f4f776e61626c653a206e6577206f776e657220697320746865207a65726f206160008301527f64647265737300000000000000000000000000000000000000000000000000006020830152604082019050919050565b6000614916601a83615ccf565b91507f4275636b6574206f6e65206d75737420626520736d616c6c65720000000000006000830152602082019050919050565b6000614956601283615ccf565b91507f44726177206e756d6265727320666972737400000000000000000000000000006000830152602082019050919050565b6000614996601683615ccf565b91507f576169742074696c6c20656e6420746f20636c61696d000000000000000000006000830152602082019050919050565b60006149d6601783615ccf565b91507f446973636f756e7473206d75737420696e6372656173650000000000000000006000830152602082019050919050565b6000614a16601b83615ccf565b91507f536166654d6174683a206164646974696f6e206f766572666c6f7700000000006000830152602082019050919050565b6000614a56601883615ccf565b91507f4c6f74746572792073697a652063616e6e6f74206265203000000000000000006000830152602082019050919050565b6000614a96601a83615ccf565b91507f4e756d6265727320666f72207469636b657420696e76616c69640000000000006000830152602082019050919050565b6000614ad6601b83615ccf565b91507f496e76616c69642074696d6520666f72206d696e743a737461727400000000006000830152602082019050919050565b6000614b16601e83615ccf565b91507f536166654d6174683a207375627472616374696f6e206f766572666c6f7700006000830152602082019050919050565b6000614b56602683615ccf565b91507f416464726573733a20696e73756666696369656e742062616c616e636520666f60008301527f722063616c6c00000000000000000000000000000000000000000000000000006020830152604082019050919050565b6000614bbc602083615ccf565b91507f4c6f747465727920537461746520696e636f727265637420666f7220647261776000830152602082019050919050565b6000614bfc601a83615ccf565b91507f536166654d6174683a206469766973696f6e206279207a65726f0000000000006000830152602082019050919050565b6000614c3c601983615ccf565b91507f496e76616c69642074696d6520666f72206d696e743a656e64000000000000006000830152602082019050919050565b6000614c7c601583615ccf565b91507f426174636820636c61696d20746f6f206c6172676500000000000000000000006000830152602082019050919050565b6000614cbc601583615ccf565b91507f4d61782072616e67652063616e6e6f74206265203000000000000000000000006000830152602082019050919050565b6000614cfc601a83615ccf565b91507f43616e6e6f742073657420746f2063757272656e742073697a650000000000006000830152602082019050919050565b6000614d3c601883615ccf565b91507f4f6e6c7920746865206f776e65722063616e20636c61696d00000000000000006000830152602082019050919050565b6000614d7c601883615ccf565b91507f536166654d6174683a206d6f64756c6f206279207a65726f00000000000000006000830152602082019050919050565b6000614dbc602e83615ccf565b91507f496e697469616c697a61626c653a20636f6e747261637420697320616c72656160008301527f647920696e697469616c697a65640000000000000000000000000000000000006020830152604082019050919050565b6000614e22601683615ccf565b91507f496e76616c69642063686f73656e206e756d62657273000000000000000000006000830152602082019050919050565b6000614e62601d83615ccf565b91507f436f6e7472616374732063616e6e6f74206265203020616464726573730000006000830152602082019050919050565b6000614ea2602183615ccf565b91507f536166654d6174683a206d756c7469706c69636174696f6e206f766572666c6f60008301527f77000000000000000000000000000000000000000000000000000000000000006020830152604082019050919050565b6000614f08602083615ccf565b91507f4f776e61626c653a2063616c6c6572206973206e6f7420746865206f776e65726000830152602082019050919050565b6000614f48601483615ccf565b91507f636f6e7472616374206e6f7420616c6c6f7765640000000000000000000000006000830152602082019050919050565b6000614f88602983615ccf565b91507f43616e6e6f74207365742077696e6e696e67206e756d6265727320647572696e60008301527f67206c6f747465727900000000000000000000000000000000000000000000006020830152604082019050919050565b6000614fee601d83615ccf565b91507f416464726573733a2063616c6c20746f206e6f6e2d636f6e74726163740000006000830152602082019050919050565b600061502e601883615ccf565b91507f4275636b65742072616e67652063616e6e6f74206265203000000000000000006000830152602082019050919050565b600061506e601d83615ccf565b91507f4c6f7474657279206e6f7420696e20737461746520666f72206d696e740000006000830152602082019050919050565b60006150ae601e83615ccf565b91507f54696d657374616d707320666f72206c6f747465727920696e76616c696400006000830152602082019050919050565b60006150ee602a83615ccf565b91507f5361666545524332303a204552433230206f7065726174696f6e20646964206e60008301527f6f742073756363656564000000000000000000000000000000000000000000006020830152604082019050919050565b6000615154601e83615ccf565b91507f57696e6e696e67204e756d62657273206e6f742063686f73656e2079657400006000830152602082019050919050565b6000615194601e83615ccf565b91507f5072697a6520646973747269627574696f6e206973206e6f74203130302500006000830152602082019050919050565b6000610100830160008301516151e0600086018261529c565b5060208301516151f3602086018261471b565b506040830151615206604086018261529c565b506060830151615219606086018261529c565b5060808301518482036080860152615231828261467d565b91505060a083015161524660a086018261529c565b5060c083015161525960c086018261529c565b5060e083015184820360e086015261527182826145c1565b9150508091505092915050565b61528781615d32565b82525050565b61529681615d32565b82525050565b6152a581615d60565b82525050565b6152b481615d60565b82525050565b6152cb6152c682615d60565b615e04565b82525050565b6152da81615dbf565b82525050565b6152e981615d6a565b82525050565b6152f881615d6a565b82525050565b600061530a82846146ea565b915081905092915050565b600061532182856152ba565b60208201915061533182846152ba565b6020820191508190509392505050565b60006020820190506153566000830184614555565b92915050565b60006060820190506153716000830186614546565b61537e6020830185614555565b61538b60408301846152ab565b949350505050565b60006040820190506153a86000830185614546565b6153b5602083018461528d565b9392505050565b60006040820190506153d16000830185614546565b6153de60208301846152ab565b9392505050565b600060a0820190506153fa6000830189614546565b61540760208301886152ab565b61541460408301876152ef565b8181036060830152615427818587614564565b905061543660808301846152ef565b979650505050505050565b60006040820190506154566000830185614546565b61546360208301846152ef565b9392505050565b600060c08201905061547f6000830189614546565b61548c60208301886152ef565b61549960408301876152ef565b6154a660608301866152ef565b6154b360808301856152ef565b6154c060a08301846152ef565b979650505050505050565b60006040820190506154e06000830185614555565b6154ed60208301846152ab565b9392505050565b600060a082019050818103600083015261550e818961461f565b90508181036020830152615523818789614564565b905061553260408301866152ab565b61553f60608301856152ab565b61554c60808301846152ab565b979650505050505050565b60006020820190508181036000830152615571818461472a565b905092915050565b6000602082019050818103600083015261559281614763565b9050919050565b600060208201905081810360008301526155b2816147a3565b9050919050565b600060208201905081810360008301526155d2816147e3565b9050919050565b600060208201905081810360008301526155f281614823565b9050919050565b6000602082019050818103600083015261561281614863565b9050919050565b60006020820190508181036000830152615632816148a3565b9050919050565b6000602082019050818103600083015261565281614909565b9050919050565b6000602082019050818103600083015261567281614949565b9050919050565b6000602082019050818103600083015261569281614989565b9050919050565b600060208201905081810360008301526156b2816149c9565b9050919050565b600060208201905081810360008301526156d281614a09565b9050919050565b600060208201905081810360008301526156f281614a49565b9050919050565b6000602082019050818103600083015261571281614a89565b9050919050565b6000602082019050818103600083015261573281614ac9565b9050919050565b6000602082019050818103600083015261575281614b09565b9050919050565b6000602082019050818103600083015261577281614b49565b9050919050565b6000602082019050818103600083015261579281614baf565b9050919050565b600060208201905081810360008301526157b281614bef565b9050919050565b600060208201905081810360008301526157d281614c2f565b9050919050565b600060208201905081810360008301526157f281614c6f565b9050919050565b6000602082019050818103600083015261581281614caf565b9050919050565b6000602082019050818103600083015261583281614cef565b9050919050565b6000602082019050818103600083015261585281614d2f565b9050919050565b6000602082019050818103600083015261587281614d6f565b9050919050565b6000602082019050818103600083015261589281614daf565b9050919050565b600060208201905081810360008301526158b281614e15565b9050919050565b600060208201905081810360008301526158d281614e55565b9050919050565b600060208201905081810360008301526158f281614e95565b9050919050565b6000602082019050818103600083015261591281614efb565b9050919050565b6000602082019050818103600083015261593281614f3b565b9050919050565b6000602082019050818103600083015261595281614f7b565b9050919050565b6000602082019050818103600083015261597281614fe1565b9050919050565b6000602082019050818103600083015261599281615021565b9050919050565b600060208201905081810360008301526159b281615061565b9050919050565b600060208201905081810360008301526159d2816150a1565b9050919050565b600060208201905081810360008301526159f2816150e1565b9050919050565b60006020820190508181036000830152615a1281615147565b9050919050565b60006020820190508181036000830152615a3281615187565b9050919050565b60006020820190508181036000830152615a5381846151c7565b905092915050565b6000602082019050615a70600083018461528d565b92915050565b6000602082019050615a8b60008301846152ab565b92915050565b6000604082019050615aa660008301856152ab565b615ab360208301846146db565b9392505050565b6000604082019050615acf60008301856152ab565b615adc60208301846152ab565b9392505050565b6000606082019050615af860008301866152ab565b615b0560208301856152ab565b615b1260408301846152ab565b949350505050565b6000604082019050615b2f60008301856152ab565b615b3c60208301846152d1565b9392505050565b6000602082019050615b5860008301846152ef565b92915050565b6000604051905081810181811067ffffffffffffffff82111715615b8157600080fd5b8060405250919050565b600067ffffffffffffffff821115615ba257600080fd5b602082029050602081019050919050565b600067ffffffffffffffff821115615bca57600080fd5b602082029050602081019050919050565b6000819050919050565b6000819050602082019050919050565b6000819050602082019050919050565b6000819050602082019050919050565b600081519050919050565b600081519050919050565b600081519050919050565b600081519050919050565b600081519050919050565b6000602082019050919050565b6000602082019050919050565b6000602082019050919050565b6000602082019050919050565b600082825260208201905092915050565b600082825260208201905092915050565b600082825260208201905092915050565b600082825260208201905092915050565b600081905092915050565b600082825260208201905092915050565b6000615cef6020840184613fe8565b905092915050565b6000615d0282615d40565b9050919050565b60008115159050919050565b6000819050919050565b6000819050615d2d82615e1f565b919050565b600061ffff82169050919050565b600073ffffffffffffffffffffffffffffffffffffffff82169050919050565b6000819050919050565b600060ff82169050919050565b6000615d8282615d9b565b9050919050565b6000615d9482615d1f565b9050919050565b6000615da682615dad565b9050919050565b6000615db882615d40565b9050919050565b6000615dca82615d6a565b9050919050565b60005b83811015615def578082015181840152602081019050615dd4565b83811115615dfe576000848401525b50505050565b6000819050919050565b6000601f19601f8301169050919050565b60048110615e2957fe5b50565b615e3581615cf7565b8114615e4057600080fd5b50565b615e4c81615d09565b8114615e5757600080fd5b50565b615e6381615d15565b8114615e6e57600080fd5b50565b615e7a81615d32565b8114615e8557600080fd5b50565b615e9181615d60565b8114615e9c57600080fd5b50565b615ea881615d6a565b8114615eb357600080fd5b5056fea26469706673582212205999ef8fed5bad9808e1c9eef5bf868a6e4c3c2477cff551dc9618ed8f5b771364736f6c634300060c0033",
  "linkReferences": {},
  "deployedLinkReferences": {}
}